{
	"contracts/Kipu-Bank.sol": {
		"KipuBank": {
			"abi": [
				{
					"inputs": [
						{
							"internalType": "uint128",
							"name": "_bankCap",
							"type": "uint128"
						},
						{
							"internalType": "uint128",
							"name": "_withdrawLimit",
							"type": "uint128"
						}
					],
					"stateMutability": "nonpayable",
					"type": "constructor"
				},
				{
					"inputs": [
						{
							"internalType": "uint128",
							"name": "attempted",
							"type": "uint128"
						},
						{
							"internalType": "uint128",
							"name": "cap",
							"type": "uint128"
						}
					],
					"name": "ExceedsBankCap",
					"type": "error"
				},
				{
					"inputs": [
						{
							"internalType": "uint128",
							"name": "attempted",
							"type": "uint128"
						},
						{
							"internalType": "uint128",
							"name": "limit",
							"type": "uint128"
						}
					],
					"name": "ExceedsWithdrawLimit",
					"type": "error"
				},
				{
					"inputs": [
						{
							"internalType": "uint128",
							"name": "requested",
							"type": "uint128"
						},
						{
							"internalType": "uint128",
							"name": "available",
							"type": "uint128"
						}
					],
					"name": "InsufficientBalance",
					"type": "error"
				},
				{
					"inputs": [
						{
							"internalType": "address",
							"name": "to",
							"type": "address"
						},
						{
							"internalType": "uint128",
							"name": "amount",
							"type": "uint128"
						}
					],
					"name": "TransferFailed",
					"type": "error"
				},
				{
					"anonymous": false,
					"inputs": [
						{
							"indexed": true,
							"internalType": "address",
							"name": "user",
							"type": "address"
						},
						{
							"indexed": false,
							"internalType": "uint128",
							"name": "amount",
							"type": "uint128"
						}
					],
					"name": "Deposited",
					"type": "event"
				},
				{
					"anonymous": false,
					"inputs": [
						{
							"indexed": true,
							"internalType": "address",
							"name": "user",
							"type": "address"
						},
						{
							"indexed": false,
							"internalType": "uint128",
							"name": "amount",
							"type": "uint128"
						}
					],
					"name": "Withdrawn",
					"type": "event"
				},
				{
					"inputs": [],
					"name": "bankCap",
					"outputs": [
						{
							"internalType": "uint128",
							"name": "",
							"type": "uint128"
						}
					],
					"stateMutability": "view",
					"type": "function"
				},
				{
					"inputs": [],
					"name": "deposit",
					"outputs": [],
					"stateMutability": "payable",
					"type": "function"
				},
				{
					"inputs": [],
					"name": "getMyBalance",
					"outputs": [
						{
							"internalType": "uint128",
							"name": "balance",
							"type": "uint128"
						}
					],
					"stateMutability": "view",
					"type": "function"
				},
				{
					"inputs": [],
					"name": "getTotalBalance",
					"outputs": [
						{
							"internalType": "uint256",
							"name": "totalBalance",
							"type": "uint256"
						}
					],
					"stateMutability": "view",
					"type": "function"
				},
				{
					"inputs": [],
					"name": "totalDeposits",
					"outputs": [
						{
							"internalType": "uint32",
							"name": "",
							"type": "uint32"
						}
					],
					"stateMutability": "view",
					"type": "function"
				},
				{
					"inputs": [],
					"name": "totalWithdrawals",
					"outputs": [
						{
							"internalType": "uint32",
							"name": "",
							"type": "uint32"
						}
					],
					"stateMutability": "view",
					"type": "function"
				},
				{
					"inputs": [
						{
							"internalType": "uint128",
							"name": "amount",
							"type": "uint128"
						}
					],
					"name": "withdraw",
					"outputs": [],
					"stateMutability": "nonpayable",
					"type": "function"
				},
				{
					"inputs": [],
					"name": "withdrawLimit",
					"outputs": [
						{
							"internalType": "uint128",
							"name": "",
							"type": "uint128"
						}
					],
					"stateMutability": "view",
					"type": "function"
				}
			],
			"devdoc": {
				"author": "Santiago Cármenes",
				"kind": "dev",
				"methods": {
					"constructor": {
						"params": {
							"_bankCap": "Límite total de ETH que puede almacenar el banco",
							"_withdrawLimit": "Límite máximo por retiro en una transacción"
						}
					},
					"deposit()": {
						"details": "Respeta el límite total del banco"
					},
					"getMyBalance()": {
						"returns": {
							"balance": "Cantidad de ETH disponible para el usuario"
						}
					},
					"getTotalBalance()": {
						"returns": {
							"totalBalance": "ETH total almacenado en el contrato"
						}
					},
					"withdraw(uint128)": {
						"details": "Respeta límites de retiro y saldo disponible, aplica patrón checks-effects-interactions",
						"params": {
							"amount": "Cantidad de ETH a retirar"
						}
					}
				},
				"title": "KipuBank - Un banco simple con límites de depósito y retiro",
				"version": 1
			},
			"evm": {
				"assembly": "    /* \"contracts/Kipu-Bank.sol\":267:6466  contract KipuBank {... */\n  mstore(0x40, 0xc0)\n    /* \"contracts/Kipu-Bank.sol\":2681:2813  constructor(uint128 _bankCap, uint128 _withdrawLimit) {... */\n  callvalue\n  dup1\n  iszero\n  tag_1\n  jumpi\n  revert(0x00, 0x00)\ntag_1:\n  pop\n  mload(0x40)\n  sub(codesize, bytecodeSize)\n  dup1\n  bytecodeSize\n  dup4\n  codecopy\n  dup2\n  dup2\n  add\n  0x40\n  mstore\n  dup2\n  add\n  swap1\n  tag_2\n  swap2\n  swap1\n  tag_3\n  jump\t// in\ntag_2:\n    /* \"contracts/Kipu-Bank.sol\":2756:2764  _bankCap */\n  dup2\n    /* \"contracts/Kipu-Bank.sol\":2746:2764  bankCap = _bankCap */\n  0xffffffffffffffffffffffffffffffff\n  and\n  0x80\n  dup2\n  0xffffffffffffffffffffffffffffffff\n  and\n  dup2\n  mstore\n  pop\n  pop\n    /* \"contracts/Kipu-Bank.sol\":2791:2805  _withdrawLimit */\n  dup1\n    /* \"contracts/Kipu-Bank.sol\":2775:2805  withdrawLimit = _withdrawLimit */\n  0xffffffffffffffffffffffffffffffff\n  and\n  0xa0\n  dup2\n  0xffffffffffffffffffffffffffffffff\n  and\n  dup2\n  mstore\n  pop\n  pop\n    /* \"contracts/Kipu-Bank.sol\":2681:2813  constructor(uint128 _bankCap, uint128 _withdrawLimit) {... */\n  pop\n  pop\n    /* \"contracts/Kipu-Bank.sol\":267:6466  contract KipuBank {... */\n  jump(tag_6)\n    /* \"#utility.yul\":88:205   */\ntag_8:\n    /* \"#utility.yul\":197:198   */\n  0x00\n    /* \"#utility.yul\":194:195   */\n  0x00\n    /* \"#utility.yul\":187:199   */\n  revert\n    /* \"#utility.yul\":334:452   */\ntag_10:\n    /* \"#utility.yul\":371:378   */\n  0x00\n    /* \"#utility.yul\":411:445   */\n  0xffffffffffffffffffffffffffffffff\n    /* \"#utility.yul\":404:409   */\n  dup3\n    /* \"#utility.yul\":400:446   */\n  and\n    /* \"#utility.yul\":389:446   */\n  swap1\n  pop\n    /* \"#utility.yul\":334:452   */\n  swap2\n  swap1\n  pop\n  jump\t// out\n    /* \"#utility.yul\":458:580   */\ntag_11:\n    /* \"#utility.yul\":531:555   */\n  tag_19\n    /* \"#utility.yul\":549:554   */\n  dup2\n    /* \"#utility.yul\":531:555   */\n  tag_10\n  jump\t// in\ntag_19:\n    /* \"#utility.yul\":524:529   */\n  dup2\n    /* \"#utility.yul\":521:556   */\n  eq\n    /* \"#utility.yul\":511:574   */\n  tag_20\n  jumpi\n    /* \"#utility.yul\":570:571   */\n  0x00\n    /* \"#utility.yul\":567:568   */\n  0x00\n    /* \"#utility.yul\":560:572   */\n  revert\n    /* \"#utility.yul\":511:574   */\ntag_20:\n    /* \"#utility.yul\":458:580   */\n  pop\n  jump\t// out\n    /* \"#utility.yul\":586:729   */\ntag_12:\n    /* \"#utility.yul\":643:648   */\n  0x00\n    /* \"#utility.yul\":674:680   */\n  dup2\n    /* \"#utility.yul\":668:681   */\n  mload\n    /* \"#utility.yul\":659:681   */\n  swap1\n  pop\n    /* \"#utility.yul\":690:723   */\n  tag_22\n    /* \"#utility.yul\":717:722   */\n  dup2\n    /* \"#utility.yul\":690:723   */\n  tag_11\n  jump\t// in\ntag_22:\n    /* \"#utility.yul\":586:729   */\n  swap3\n  swap2\n  pop\n  pop\n  jump\t// out\n    /* \"#utility.yul\":735:1242   */\ntag_3:\n    /* \"#utility.yul\":814:820   */\n  0x00\n    /* \"#utility.yul\":822:828   */\n  0x00\n    /* \"#utility.yul\":871:873   */\n  0x40\n    /* \"#utility.yul\":859:868   */\n  dup4\n    /* \"#utility.yul\":850:857   */\n  dup6\n    /* \"#utility.yul\":846:869   */\n  sub\n    /* \"#utility.yul\":842:874   */\n  slt\n    /* \"#utility.yul\":839:958   */\n  iszero\n  tag_24\n  jumpi\n    /* \"#utility.yul\":877:956   */\n  tag_25\n  tag_8\n  jump\t// in\ntag_25:\n    /* \"#utility.yul\":839:958   */\ntag_24:\n    /* \"#utility.yul\":997:998   */\n  0x00\n    /* \"#utility.yul\":1022:1086   */\n  tag_26\n    /* \"#utility.yul\":1078:1085   */\n  dup6\n    /* \"#utility.yul\":1069:1075   */\n  dup3\n    /* \"#utility.yul\":1058:1067   */\n  dup7\n    /* \"#utility.yul\":1054:1076   */\n  add\n    /* \"#utility.yul\":1022:1086   */\n  tag_12\n  jump\t// in\ntag_26:\n    /* \"#utility.yul\":1012:1086   */\n  swap3\n  pop\n    /* \"#utility.yul\":968:1096   */\n  pop\n    /* \"#utility.yul\":1135:1137   */\n  0x20\n    /* \"#utility.yul\":1161:1225   */\n  tag_27\n    /* \"#utility.yul\":1217:1224   */\n  dup6\n    /* \"#utility.yul\":1208:1214   */\n  dup3\n    /* \"#utility.yul\":1197:1206   */\n  dup7\n    /* \"#utility.yul\":1193:1215   */\n  add\n    /* \"#utility.yul\":1161:1225   */\n  tag_12\n  jump\t// in\ntag_27:\n    /* \"#utility.yul\":1151:1225   */\n  swap2\n  pop\n    /* \"#utility.yul\":1106:1235   */\n  pop\n    /* \"#utility.yul\":735:1242   */\n  swap3\n  pop\n  swap3\n  swap1\n  pop\n  jump\t// out\n    /* \"contracts/Kipu-Bank.sol\":267:6466  contract KipuBank {... */\ntag_6:\n  mload(0x80)\n  mload(0xa0)\n  codecopy(0x00, dataOffset(sub_0), dataSize(sub_0))\n  0x00\n  assignImmutable(\"0xe4b1702d9298fee62dfeccc57d322a463ad55ca201256d01f62b45b2e1c21c10\")\n  0x00\n  assignImmutable(\"0xceebf77a833b30520287ddd9478ff51abbdffa30aa90a8d655dba0e8a79ce0c1\")\n  return(0x00, dataSize(sub_0))\nstop\n\nsub_0: assembly {\n        /* \"contracts/Kipu-Bank.sol\":267:6466  contract KipuBank {... */\n      mstore(0x40, 0x80)\n      jumpi(tag_1, lt(calldatasize, 0x04))\n      shr(0xe0, calldataload(0x00))\n      dup1\n      0x7d882097\n      gt\n      tag_10\n      jumpi\n      dup1\n      0x7d882097\n      eq\n      tag_6\n      jumpi\n      dup1\n      0xd0e30db0\n      eq\n      tag_7\n      jumpi\n      dup1\n      0xecbea24d\n      eq\n      tag_8\n      jumpi\n      dup1\n      0xf848d541\n      eq\n      tag_9\n      jumpi\n      jump(tag_1)\n    tag_10:\n      dup1\n      0x02387a7b\n      eq\n      tag_2\n      jumpi\n      dup1\n      0x12b58349\n      eq\n      tag_3\n      jumpi\n      dup1\n      0x4c738909\n      eq\n      tag_4\n      jumpi\n      dup1\n      0x60464627\n      eq\n      tag_5\n      jumpi\n    tag_1:\n      revert(0x00, 0x00)\n        /* \"contracts/Kipu-Bank.sol\":4767:5042  function withdraw(uint128 amount) external withinWithdrawLimit(amount) hasSufficientBalance(amount) {... */\n    tag_2:\n      callvalue\n      dup1\n      iszero\n      tag_11\n      jumpi\n      revert(0x00, 0x00)\n    tag_11:\n      pop\n      tag_12\n      0x04\n      dup1\n      calldatasize\n      sub\n      dup2\n      add\n      swap1\n      tag_13\n      swap2\n      swap1\n      tag_14\n      jump\t// in\n    tag_13:\n      tag_15\n      jump\t// in\n    tag_12:\n      stop\n        /* \"contracts/Kipu-Bank.sol\":5401:5520  function getTotalBalance() external view returns (uint256 totalBalance) {... */\n    tag_3:\n      callvalue\n      dup1\n      iszero\n      tag_16\n      jumpi\n      revert(0x00, 0x00)\n    tag_16:\n      pop\n      tag_17\n      tag_18\n      jump\t// in\n    tag_17:\n      mload(0x40)\n      tag_19\n      swap2\n      swap1\n      tag_20\n      jump\t// in\n    tag_19:\n      mload(0x40)\n      dup1\n      swap2\n      sub\n      swap1\n      return\n        /* \"contracts/Kipu-Bank.sol\":5163:5273  function getMyBalance() external view returns (uint128 balance) {... */\n    tag_4:\n      callvalue\n      dup1\n      iszero\n      tag_21\n      jumpi\n      revert(0x00, 0x00)\n    tag_21:\n      pop\n      tag_22\n      tag_23\n      jump\t// in\n    tag_22:\n      mload(0x40)\n      tag_24\n      swap2\n      swap1\n      tag_25\n      jump\t// in\n    tag_24:\n      mload(0x40)\n      dup1\n      swap2\n      sub\n      swap1\n      return\n        /* \"contracts/Kipu-Bank.sol\":865:895  uint32 public totalWithdrawals */\n    tag_5:\n      callvalue\n      dup1\n      iszero\n      tag_26\n      jumpi\n      revert(0x00, 0x00)\n    tag_26:\n      pop\n      tag_27\n      tag_28\n      jump\t// in\n    tag_27:\n      mload(0x40)\n      tag_29\n      swap2\n      swap1\n      tag_30\n      jump\t// in\n    tag_29:\n      mload(0x40)\n      dup1\n      swap2\n      sub\n      swap1\n      return\n        /* \"contracts/Kipu-Bank.sol\":811:838  uint32 public totalDeposits */\n    tag_6:\n      callvalue\n      dup1\n      iszero\n      tag_31\n      jumpi\n      revert(0x00, 0x00)\n    tag_31:\n      pop\n      tag_32\n      tag_33\n      jump\t// in\n    tag_32:\n      mload(0x40)\n      tag_34\n      swap2\n      swap1\n      tag_30\n      jump\t// in\n    tag_34:\n      mload(0x40)\n      dup1\n      swap2\n      sub\n      swap1\n      return\n        /* \"contracts/Kipu-Bank.sol\":4325:4567  function deposit() external payable withinCap(uint128(msg.value)) {... */\n    tag_7:\n      tag_35\n      tag_36\n      jump\t// in\n    tag_35:\n      stop\n        /* \"contracts/Kipu-Bank.sol\":632:664  uint128 public immutable bankCap */\n    tag_8:\n      callvalue\n      dup1\n      iszero\n      tag_37\n      jumpi\n      revert(0x00, 0x00)\n    tag_37:\n      pop\n      tag_38\n      tag_39\n      jump\t// in\n    tag_38:\n      mload(0x40)\n      tag_40\n      swap2\n      swap1\n      tag_25\n      jump\t// in\n    tag_40:\n      mload(0x40)\n      dup1\n      swap2\n      sub\n      swap1\n      return\n        /* \"contracts/Kipu-Bank.sol\":746:784  uint128 public immutable withdrawLimit */\n    tag_9:\n      callvalue\n      dup1\n      iszero\n      tag_41\n      jumpi\n      revert(0x00, 0x00)\n    tag_41:\n      pop\n      tag_42\n      tag_43\n      jump\t// in\n    tag_42:\n      mload(0x40)\n      tag_44\n      swap2\n      swap1\n      tag_25\n      jump\t// in\n    tag_44:\n      mload(0x40)\n      dup1\n      swap2\n      sub\n      swap1\n      return\n        /* \"contracts/Kipu-Bank.sol\":4767:5042  function withdraw(uint128 amount) external withinWithdrawLimit(amount) hasSufficientBalance(amount) {... */\n    tag_15:\n        /* \"contracts/Kipu-Bank.sol\":4830:4836  amount */\n      dup1\n        /* \"contracts/Kipu-Bank.sol\":3570:3583  withdrawLimit */\n      immutable(\"0xe4b1702d9298fee62dfeccc57d322a463ad55ca201256d01f62b45b2e1c21c10\")\n        /* \"contracts/Kipu-Bank.sol\":3561:3583  amount > withdrawLimit */\n      0xffffffffffffffffffffffffffffffff\n      and\n        /* \"contracts/Kipu-Bank.sol\":3561:3567  amount */\n      dup2\n        /* \"contracts/Kipu-Bank.sol\":3561:3583  amount > withdrawLimit */\n      0xffffffffffffffffffffffffffffffff\n      and\n      gt\n        /* \"contracts/Kipu-Bank.sol\":3557:3662  if (amount > withdrawLimit) {... */\n      iszero\n      tag_46\n      jumpi\n        /* \"contracts/Kipu-Bank.sol\":3628:3634  amount */\n      dup1\n        /* \"contracts/Kipu-Bank.sol\":3636:3649  withdrawLimit */\n      immutable(\"0xe4b1702d9298fee62dfeccc57d322a463ad55ca201256d01f62b45b2e1c21c10\")\n        /* \"contracts/Kipu-Bank.sol\":3607:3650  ExceedsWithdrawLimit(amount, withdrawLimit) */\n      mload(0x40)\n      0xd272831700000000000000000000000000000000000000000000000000000000\n      dup2\n      mstore\n      0x04\n      add\n      tag_47\n      swap3\n      swap2\n      swap1\n      tag_48\n      jump\t// in\n    tag_47:\n      mload(0x40)\n      dup1\n      swap2\n      sub\n      swap1\n      revert\n        /* \"contracts/Kipu-Bank.sol\":3557:3662  if (amount > withdrawLimit) {... */\n    tag_46:\n        /* \"contracts/Kipu-Bank.sol\":4859:4865  amount */\n      dup2\n        /* \"contracts/Kipu-Bank.sol\":3824:3832  balances */\n      0x01\n        /* \"contracts/Kipu-Bank.sol\":3824:3844  balances[msg.sender] */\n      0x00\n        /* \"contracts/Kipu-Bank.sol\":3833:3843  msg.sender */\n      caller\n        /* \"contracts/Kipu-Bank.sol\":3824:3844  balances[msg.sender] */\n      0xffffffffffffffffffffffffffffffffffffffff\n      and\n      0xffffffffffffffffffffffffffffffffffffffff\n      and\n      dup2\n      mstore\n      0x20\n      add\n      swap1\n      dup2\n      mstore\n      0x20\n      add\n      0x00\n      keccak256\n      0x00\n      swap1\n      sload\n      swap1\n      0x0100\n      exp\n      swap1\n      div\n      0xffffffffffffffffffffffffffffffff\n      and\n        /* \"contracts/Kipu-Bank.sol\":3815:3844  amount > balances[msg.sender] */\n      0xffffffffffffffffffffffffffffffff\n      and\n        /* \"contracts/Kipu-Bank.sol\":3815:3821  amount */\n      dup2\n        /* \"contracts/Kipu-Bank.sol\":3815:3844  amount > balances[msg.sender] */\n      0xffffffffffffffffffffffffffffffff\n      and\n      gt\n        /* \"contracts/Kipu-Bank.sol\":3811:3929  if (amount > balances[msg.sender]) {... */\n      iszero\n      tag_50\n      jumpi\n        /* \"contracts/Kipu-Bank.sol\":3888:3894  amount */\n      dup1\n        /* \"contracts/Kipu-Bank.sol\":3896:3904  balances */\n      0x01\n        /* \"contracts/Kipu-Bank.sol\":3896:3916  balances[msg.sender] */\n      0x00\n        /* \"contracts/Kipu-Bank.sol\":3905:3915  msg.sender */\n      caller\n        /* \"contracts/Kipu-Bank.sol\":3896:3916  balances[msg.sender] */\n      0xffffffffffffffffffffffffffffffffffffffff\n      and\n      0xffffffffffffffffffffffffffffffffffffffff\n      and\n      dup2\n      mstore\n      0x20\n      add\n      swap1\n      dup2\n      mstore\n      0x20\n      add\n      0x00\n      keccak256\n      0x00\n      swap1\n      sload\n      swap1\n      0x0100\n      exp\n      swap1\n      div\n      0xffffffffffffffffffffffffffffffff\n      and\n        /* \"contracts/Kipu-Bank.sol\":3868:3917  InsufficientBalance(amount, balances[msg.sender]) */\n      mload(0x40)\n      0xb61caeea00000000000000000000000000000000000000000000000000000000\n      dup2\n      mstore\n      0x04\n      add\n      tag_51\n      swap3\n      swap2\n      swap1\n      tag_48\n      jump\t// in\n    tag_51:\n      mload(0x40)\n      dup1\n      swap2\n      sub\n      swap1\n      revert\n        /* \"contracts/Kipu-Bank.sol\":3811:3929  if (amount > balances[msg.sender]) {... */\n    tag_50:\n        /* \"contracts/Kipu-Bank.sol\":4902:4908  amount */\n      dup3\n        /* \"contracts/Kipu-Bank.sol\":4878:4886  balances */\n      0x01\n        /* \"contracts/Kipu-Bank.sol\":4878:4898  balances[msg.sender] */\n      0x00\n        /* \"contracts/Kipu-Bank.sol\":4887:4897  msg.sender */\n      caller\n        /* \"contracts/Kipu-Bank.sol\":4878:4898  balances[msg.sender] */\n      0xffffffffffffffffffffffffffffffffffffffff\n      and\n      0xffffffffffffffffffffffffffffffffffffffff\n      and\n      dup2\n      mstore\n      0x20\n      add\n      swap1\n      dup2\n      mstore\n      0x20\n      add\n      0x00\n      keccak256\n      0x00\n        /* \"contracts/Kipu-Bank.sol\":4878:4908  balances[msg.sender] -= amount */\n      dup3\n      dup3\n      dup3\n      swap1\n      sload\n      swap1\n      0x0100\n      exp\n      swap1\n      div\n      0xffffffffffffffffffffffffffffffff\n      and\n      tag_53\n      swap2\n      swap1\n      tag_54\n      jump\t// in\n    tag_53:\n      swap3\n      pop\n      0x0100\n      exp\n      dup2\n      sload\n      dup2\n      0xffffffffffffffffffffffffffffffff\n      mul\n      not\n      and\n      swap1\n      dup4\n      0xffffffffffffffffffffffffffffffff\n      and\n      mul\n      or\n      swap1\n      sstore\n      pop\n        /* \"contracts/Kipu-Bank.sol\":4919:4941  _updateCounters(false) */\n      tag_55\n        /* \"contracts/Kipu-Bank.sol\":4935:4940  false */\n      0x00\n        /* \"contracts/Kipu-Bank.sol\":4919:4934  _updateCounters */\n      tag_56\n        /* \"contracts/Kipu-Bank.sol\":4919:4941  _updateCounters(false) */\n      jump\t// in\n    tag_55:\n        /* \"contracts/Kipu-Bank.sol\":4954:4987  _safeTransfer(msg.sender, amount) */\n      tag_57\n        /* \"contracts/Kipu-Bank.sol\":4968:4978  msg.sender */\n      caller\n        /* \"contracts/Kipu-Bank.sol\":4980:4986  amount */\n      dup5\n        /* \"contracts/Kipu-Bank.sol\":4954:4967  _safeTransfer */\n      tag_58\n        /* \"contracts/Kipu-Bank.sol\":4954:4987  _safeTransfer(msg.sender, amount) */\n      jump\t// in\n    tag_57:\n        /* \"contracts/Kipu-Bank.sol\":5015:5025  msg.sender */\n      caller\n        /* \"contracts/Kipu-Bank.sol\":5005:5034  Withdrawn(msg.sender, amount) */\n      0xffffffffffffffffffffffffffffffffffffffff\n      and\n      0xab48b3d59a240196dc5bdd7f7a638fca310f8194c7d350c3dd7765861311ddf8\n        /* \"contracts/Kipu-Bank.sol\":5027:5033  amount */\n      dup5\n        /* \"contracts/Kipu-Bank.sol\":5005:5034  Withdrawn(msg.sender, amount) */\n      mload(0x40)\n      tag_59\n      swap2\n      swap1\n      tag_25\n      jump\t// in\n    tag_59:\n      mload(0x40)\n      dup1\n      swap2\n      sub\n      swap1\n      log2\n        /* \"contracts/Kipu-Bank.sol\":3672:3673  _ */\n      pop\n        /* \"contracts/Kipu-Bank.sol\":4767:5042  function withdraw(uint128 amount) external withinWithdrawLimit(amount) hasSufficientBalance(amount) {... */\n      pop\n      pop\n      jump\t// out\n        /* \"contracts/Kipu-Bank.sol\":5401:5520  function getTotalBalance() external view returns (uint256 totalBalance) {... */\n    tag_18:\n        /* \"contracts/Kipu-Bank.sol\":5451:5471  uint256 totalBalance */\n      0x00\n        /* \"contracts/Kipu-Bank.sol\":5491:5512  address(this).balance */\n      selfbalance\n        /* \"contracts/Kipu-Bank.sol\":5484:5512  return address(this).balance */\n      swap1\n      pop\n        /* \"contracts/Kipu-Bank.sol\":5401:5520  function getTotalBalance() external view returns (uint256 totalBalance) {... */\n      swap1\n      jump\t// out\n        /* \"contracts/Kipu-Bank.sol\":5163:5273  function getMyBalance() external view returns (uint128 balance) {... */\n    tag_23:\n        /* \"contracts/Kipu-Bank.sol\":5210:5225  uint128 balance */\n      0x00\n        /* \"contracts/Kipu-Bank.sol\":5245:5253  balances */\n      0x01\n        /* \"contracts/Kipu-Bank.sol\":5245:5265  balances[msg.sender] */\n      0x00\n        /* \"contracts/Kipu-Bank.sol\":5254:5264  msg.sender */\n      caller\n        /* \"contracts/Kipu-Bank.sol\":5245:5265  balances[msg.sender] */\n      0xffffffffffffffffffffffffffffffffffffffff\n      and\n      0xffffffffffffffffffffffffffffffffffffffff\n      and\n      dup2\n      mstore\n      0x20\n      add\n      swap1\n      dup2\n      mstore\n      0x20\n      add\n      0x00\n      keccak256\n      0x00\n      swap1\n      sload\n      swap1\n      0x0100\n      exp\n      swap1\n      div\n      0xffffffffffffffffffffffffffffffff\n      and\n        /* \"contracts/Kipu-Bank.sol\":5238:5265  return balances[msg.sender] */\n      swap1\n      pop\n        /* \"contracts/Kipu-Bank.sol\":5163:5273  function getMyBalance() external view returns (uint128 balance) {... */\n      swap1\n      jump\t// out\n        /* \"contracts/Kipu-Bank.sol\":865:895  uint32 public totalWithdrawals */\n    tag_28:\n      0x00\n      0x04\n      swap1\n      sload\n      swap1\n      0x0100\n      exp\n      swap1\n      div\n      0xffffffff\n      and\n      dup2\n      jump\t// out\n        /* \"contracts/Kipu-Bank.sol\":811:838  uint32 public totalDeposits */\n    tag_33:\n      0x00\n      0x00\n      swap1\n      sload\n      swap1\n      0x0100\n      exp\n      swap1\n      div\n      0xffffffff\n      and\n      dup2\n      jump\t// out\n        /* \"contracts/Kipu-Bank.sol\":4325:4567  function deposit() external payable withinCap(uint128(msg.value)) {... */\n    tag_36:\n        /* \"contracts/Kipu-Bank.sol\":4379:4388  msg.value */\n      callvalue\n        /* \"contracts/Kipu-Bank.sol\":3216:3236  uint128 totalBalance */\n      0x00\n        /* \"contracts/Kipu-Bank.sol\":3247:3268  address(this).balance */\n      selfbalance\n        /* \"contracts/Kipu-Bank.sol\":3216:3269  uint128 totalBalance = uint128(address(this).balance) */\n      swap1\n      pop\n        /* \"contracts/Kipu-Bank.sol\":3308:3315  bankCap */\n      immutable(\"0xceebf77a833b30520287ddd9478ff51abbdffa30aa90a8d655dba0e8a79ce0c1\")\n        /* \"contracts/Kipu-Bank.sol\":3284:3315  totalBalance + amount > bankCap */\n      0xffffffffffffffffffffffffffffffff\n      and\n        /* \"contracts/Kipu-Bank.sol\":3299:3305  amount */\n      dup3\n        /* \"contracts/Kipu-Bank.sol\":3284:3296  totalBalance */\n      dup3\n        /* \"contracts/Kipu-Bank.sol\":3284:3305  totalBalance + amount */\n      tag_63\n      swap2\n      swap1\n      tag_64\n      jump\t// in\n    tag_63:\n        /* \"contracts/Kipu-Bank.sol\":3284:3315  totalBalance + amount > bankCap */\n      0xffffffffffffffffffffffffffffffff\n      and\n      gt\n        /* \"contracts/Kipu-Bank.sol\":3280:3397  if (totalBalance + amount > bankCap) {... */\n      iszero\n      tag_65\n      jumpi\n        /* \"contracts/Kipu-Bank.sol\":3369:3375  amount */\n      dup2\n        /* \"contracts/Kipu-Bank.sol\":3354:3366  totalBalance */\n      dup2\n        /* \"contracts/Kipu-Bank.sol\":3354:3375  totalBalance + amount */\n      tag_66\n      swap2\n      swap1\n      tag_64\n      jump\t// in\n    tag_66:\n        /* \"contracts/Kipu-Bank.sol\":3377:3384  bankCap */\n      immutable(\"0xceebf77a833b30520287ddd9478ff51abbdffa30aa90a8d655dba0e8a79ce0c1\")\n        /* \"contracts/Kipu-Bank.sol\":3339:3385  ExceedsBankCap(totalBalance + amount, bankCap) */\n      mload(0x40)\n      0xbc42f84600000000000000000000000000000000000000000000000000000000\n      dup2\n      mstore\n      0x04\n      add\n      tag_67\n      swap3\n      swap2\n      swap1\n      tag_48\n      jump\t// in\n    tag_67:\n      mload(0x40)\n      dup1\n      swap2\n      sub\n      swap1\n      revert\n        /* \"contracts/Kipu-Bank.sol\":3280:3397  if (totalBalance + amount > bankCap) {... */\n    tag_65:\n        /* \"contracts/Kipu-Bank.sol\":4402:4416  uint128 amount */\n      0x00\n        /* \"contracts/Kipu-Bank.sol\":4427:4436  msg.value */\n      callvalue\n        /* \"contracts/Kipu-Bank.sol\":4402:4437  uint128 amount = uint128(msg.value) */\n      swap1\n      pop\n        /* \"contracts/Kipu-Bank.sol\":4474:4480  amount */\n      dup1\n        /* \"contracts/Kipu-Bank.sol\":4450:4458  balances */\n      0x01\n        /* \"contracts/Kipu-Bank.sol\":4450:4470  balances[msg.sender] */\n      0x00\n        /* \"contracts/Kipu-Bank.sol\":4459:4469  msg.sender */\n      caller\n        /* \"contracts/Kipu-Bank.sol\":4450:4470  balances[msg.sender] */\n      0xffffffffffffffffffffffffffffffffffffffff\n      and\n      0xffffffffffffffffffffffffffffffffffffffff\n      and\n      dup2\n      mstore\n      0x20\n      add\n      swap1\n      dup2\n      mstore\n      0x20\n      add\n      0x00\n      keccak256\n      0x00\n        /* \"contracts/Kipu-Bank.sol\":4450:4480  balances[msg.sender] += amount */\n      dup3\n      dup3\n      dup3\n      swap1\n      sload\n      swap1\n      0x0100\n      exp\n      swap1\n      div\n      0xffffffffffffffffffffffffffffffff\n      and\n      tag_69\n      swap2\n      swap1\n      tag_64\n      jump\t// in\n    tag_69:\n      swap3\n      pop\n      0x0100\n      exp\n      dup2\n      sload\n      dup2\n      0xffffffffffffffffffffffffffffffff\n      mul\n      not\n      and\n      swap1\n      dup4\n      0xffffffffffffffffffffffffffffffff\n      and\n      mul\n      or\n      swap1\n      sstore\n      pop\n        /* \"contracts/Kipu-Bank.sol\":4491:4512  _updateCounters(true) */\n      tag_70\n        /* \"contracts/Kipu-Bank.sol\":4507:4511  true */\n      0x01\n        /* \"contracts/Kipu-Bank.sol\":4491:4506  _updateCounters */\n      tag_56\n        /* \"contracts/Kipu-Bank.sol\":4491:4512  _updateCounters(true) */\n      jump\t// in\n    tag_70:\n        /* \"contracts/Kipu-Bank.sol\":4540:4550  msg.sender */\n      caller\n        /* \"contracts/Kipu-Bank.sol\":4530:4559  Deposited(msg.sender, amount) */\n      0xffffffffffffffffffffffffffffffffffffffff\n      and\n      0xadb1a06aea2cd2ff20eac971640a5eb7d687df3e3a897be2f334836494958a47\n        /* \"contracts/Kipu-Bank.sol\":4552:4558  amount */\n      dup3\n        /* \"contracts/Kipu-Bank.sol\":4530:4559  Deposited(msg.sender, amount) */\n      mload(0x40)\n      tag_71\n      swap2\n      swap1\n      tag_25\n      jump\t// in\n    tag_71:\n      mload(0x40)\n      dup1\n      swap2\n      sub\n      swap1\n      log2\n        /* \"contracts/Kipu-Bank.sol\":4391:4567  {... */\n      pop\n        /* \"contracts/Kipu-Bank.sol\":3205:3416  {... */\n      pop\n        /* \"contracts/Kipu-Bank.sol\":4325:4567  function deposit() external payable withinCap(uint128(msg.value)) {... */\n      pop\n      jump\t// out\n        /* \"contracts/Kipu-Bank.sol\":632:664  uint128 public immutable bankCap */\n    tag_39:\n      immutable(\"0xceebf77a833b30520287ddd9478ff51abbdffa30aa90a8d655dba0e8a79ce0c1\")\n      dup2\n      jump\t// out\n        /* \"contracts/Kipu-Bank.sol\":746:784  uint128 public immutable withdrawLimit */\n    tag_43:\n      immutable(\"0xe4b1702d9298fee62dfeccc57d322a463ad55ca201256d01f62b45b2e1c21c10\")\n      dup2\n      jump\t// out\n        /* \"contracts/Kipu-Bank.sol\":5936:6117  function _updateCounters(bool isDeposit) private {... */\n    tag_56:\n        /* \"contracts/Kipu-Bank.sol\":6000:6009  isDeposit */\n      dup1\n        /* \"contracts/Kipu-Bank.sol\":5996:6110  if (isDeposit) {... */\n      iszero\n      tag_73\n      jumpi\n        /* \"contracts/Kipu-Bank.sol\":6043:6044  1 */\n      0x01\n        /* \"contracts/Kipu-Bank.sol\":6026:6039  totalDeposits */\n      0x00\n      0x00\n        /* \"contracts/Kipu-Bank.sol\":6026:6044  totalDeposits += 1 */\n      dup3\n      dup3\n      dup3\n      swap1\n      sload\n      swap1\n      0x0100\n      exp\n      swap1\n      div\n      0xffffffff\n      and\n      tag_74\n      swap2\n      swap1\n      tag_75\n      jump\t// in\n    tag_74:\n      swap3\n      pop\n      0x0100\n      exp\n      dup2\n      sload\n      dup2\n      0xffffffff\n      mul\n      not\n      and\n      swap1\n      dup4\n      0xffffffff\n      and\n      mul\n      or\n      swap1\n      sstore\n      pop\n        /* \"contracts/Kipu-Bank.sol\":5996:6110  if (isDeposit) {... */\n      jump(tag_76)\n    tag_73:\n        /* \"contracts/Kipu-Bank.sol\":6097:6098  1 */\n      0x01\n        /* \"contracts/Kipu-Bank.sol\":6077:6093  totalWithdrawals */\n      0x00\n      0x04\n        /* \"contracts/Kipu-Bank.sol\":6077:6098  totalWithdrawals += 1 */\n      dup3\n      dup3\n      dup3\n      swap1\n      sload\n      swap1\n      0x0100\n      exp\n      swap1\n      div\n      0xffffffff\n      and\n      tag_77\n      swap2\n      swap1\n      tag_75\n      jump\t// in\n    tag_77:\n      swap3\n      pop\n      0x0100\n      exp\n      dup2\n      sload\n      dup2\n      0xffffffff\n      mul\n      not\n      and\n      swap1\n      dup4\n      0xffffffff\n      and\n      mul\n      or\n      swap1\n      sstore\n      pop\n        /* \"contracts/Kipu-Bank.sol\":5996:6110  if (isDeposit) {... */\n    tag_76:\n        /* \"contracts/Kipu-Bank.sol\":5936:6117  function _updateCounters(bool isDeposit) private {... */\n      pop\n      jump\t// out\n        /* \"contracts/Kipu-Bank.sol\":6262:6463  function _safeTransfer(address to, uint128 amount) private {... */\n    tag_58:\n        /* \"contracts/Kipu-Bank.sol\":6333:6342  bool sent */\n      0x00\n        /* \"contracts/Kipu-Bank.sol\":6348:6350  to */\n      dup3\n        /* \"contracts/Kipu-Bank.sol\":6348:6355  to.call */\n      0xffffffffffffffffffffffffffffffffffffffff\n      and\n        /* \"contracts/Kipu-Bank.sol\":6363:6369  amount */\n      dup3\n        /* \"contracts/Kipu-Bank.sol\":6348:6374  to.call{value: amount}(\"\") */\n      0xffffffffffffffffffffffffffffffff\n      and\n      mload(0x40)\n      tag_79\n      swap1\n      tag_80\n      jump\t// in\n    tag_79:\n      0x00\n      mload(0x40)\n      dup1\n      dup4\n      sub\n      dup2\n      dup6\n      dup8\n      gas\n      call\n      swap3\n      pop\n      pop\n      pop\n      returndatasize\n      dup1\n      0x00\n      dup2\n      eq\n      tag_83\n      jumpi\n      mload(0x40)\n      swap2\n      pop\n      and(add(returndatasize, 0x3f), not(0x1f))\n      dup3\n      add\n      0x40\n      mstore\n      returndatasize\n      dup3\n      mstore\n      returndatasize\n      0x00\n      0x20\n      dup5\n      add\n      returndatacopy\n      jump(tag_82)\n    tag_83:\n      0x60\n      swap2\n      pop\n    tag_82:\n      pop\n        /* \"contracts/Kipu-Bank.sol\":6332:6374  (bool sent, ) = to.call{value: amount}(\"\") */\n      pop\n      swap1\n      pop\n        /* \"contracts/Kipu-Bank.sol\":6390:6394  sent */\n      dup1\n        /* \"contracts/Kipu-Bank.sol\":6385:6456  if (!sent) {... */\n      tag_84\n      jumpi\n        /* \"contracts/Kipu-Bank.sol\":6433:6435  to */\n      dup3\n        /* \"contracts/Kipu-Bank.sol\":6437:6443  amount */\n      dup3\n        /* \"contracts/Kipu-Bank.sol\":6418:6444  TransferFailed(to, amount) */\n      mload(0x40)\n      0x947fba8b00000000000000000000000000000000000000000000000000000000\n      dup2\n      mstore\n      0x04\n      add\n      tag_85\n      swap3\n      swap2\n      swap1\n      tag_86\n      jump\t// in\n    tag_85:\n      mload(0x40)\n      dup1\n      swap2\n      sub\n      swap1\n      revert\n        /* \"contracts/Kipu-Bank.sol\":6385:6456  if (!sent) {... */\n    tag_84:\n        /* \"contracts/Kipu-Bank.sol\":6321:6463  {... */\n      pop\n        /* \"contracts/Kipu-Bank.sol\":6262:6463  function _safeTransfer(address to, uint128 amount) private {... */\n      pop\n      pop\n      jump\t// out\n        /* \"#utility.yul\":88:205   */\n    tag_88:\n        /* \"#utility.yul\":197:198   */\n      0x00\n        /* \"#utility.yul\":194:195   */\n      0x00\n        /* \"#utility.yul\":187:199   */\n      revert\n        /* \"#utility.yul\":334:452   */\n    tag_90:\n        /* \"#utility.yul\":371:378   */\n      0x00\n        /* \"#utility.yul\":411:445   */\n      0xffffffffffffffffffffffffffffffff\n        /* \"#utility.yul\":404:409   */\n      dup3\n        /* \"#utility.yul\":400:446   */\n      and\n        /* \"#utility.yul\":389:446   */\n      swap1\n      pop\n        /* \"#utility.yul\":334:452   */\n      swap2\n      swap1\n      pop\n      jump\t// out\n        /* \"#utility.yul\":458:580   */\n    tag_91:\n        /* \"#utility.yul\":531:555   */\n      tag_111\n        /* \"#utility.yul\":549:554   */\n      dup2\n        /* \"#utility.yul\":531:555   */\n      tag_90\n      jump\t// in\n    tag_111:\n        /* \"#utility.yul\":524:529   */\n      dup2\n        /* \"#utility.yul\":521:556   */\n      eq\n        /* \"#utility.yul\":511:574   */\n      tag_112\n      jumpi\n        /* \"#utility.yul\":570:571   */\n      0x00\n        /* \"#utility.yul\":567:568   */\n      0x00\n        /* \"#utility.yul\":560:572   */\n      revert\n        /* \"#utility.yul\":511:574   */\n    tag_112:\n        /* \"#utility.yul\":458:580   */\n      pop\n      jump\t// out\n        /* \"#utility.yul\":586:725   */\n    tag_92:\n        /* \"#utility.yul\":632:637   */\n      0x00\n        /* \"#utility.yul\":670:676   */\n      dup2\n        /* \"#utility.yul\":657:677   */\n      calldataload\n        /* \"#utility.yul\":648:677   */\n      swap1\n      pop\n        /* \"#utility.yul\":686:719   */\n      tag_114\n        /* \"#utility.yul\":713:718   */\n      dup2\n        /* \"#utility.yul\":686:719   */\n      tag_91\n      jump\t// in\n    tag_114:\n        /* \"#utility.yul\":586:725   */\n      swap3\n      swap2\n      pop\n      pop\n      jump\t// out\n        /* \"#utility.yul\":731:1060   */\n    tag_14:\n        /* \"#utility.yul\":790:796   */\n      0x00\n        /* \"#utility.yul\":839:841   */\n      0x20\n        /* \"#utility.yul\":827:836   */\n      dup3\n        /* \"#utility.yul\":818:825   */\n      dup5\n        /* \"#utility.yul\":814:837   */\n      sub\n        /* \"#utility.yul\":810:842   */\n      slt\n        /* \"#utility.yul\":807:926   */\n      iszero\n      tag_116\n      jumpi\n        /* \"#utility.yul\":845:924   */\n      tag_117\n      tag_88\n      jump\t// in\n    tag_117:\n        /* \"#utility.yul\":807:926   */\n    tag_116:\n        /* \"#utility.yul\":965:966   */\n      0x00\n        /* \"#utility.yul\":990:1043   */\n      tag_118\n        /* \"#utility.yul\":1035:1042   */\n      dup5\n        /* \"#utility.yul\":1026:1032   */\n      dup3\n        /* \"#utility.yul\":1015:1024   */\n      dup6\n        /* \"#utility.yul\":1011:1033   */\n      add\n        /* \"#utility.yul\":990:1043   */\n      tag_92\n      jump\t// in\n    tag_118:\n        /* \"#utility.yul\":980:1043   */\n      swap2\n      pop\n        /* \"#utility.yul\":936:1053   */\n      pop\n        /* \"#utility.yul\":731:1060   */\n      swap3\n      swap2\n      pop\n      pop\n      jump\t// out\n        /* \"#utility.yul\":1066:1143   */\n    tag_93:\n        /* \"#utility.yul\":1103:1110   */\n      0x00\n        /* \"#utility.yul\":1132:1137   */\n      dup2\n        /* \"#utility.yul\":1121:1137   */\n      swap1\n      pop\n        /* \"#utility.yul\":1066:1143   */\n      swap2\n      swap1\n      pop\n      jump\t// out\n        /* \"#utility.yul\":1149:1267   */\n    tag_94:\n        /* \"#utility.yul\":1236:1260   */\n      tag_121\n        /* \"#utility.yul\":1254:1259   */\n      dup2\n        /* \"#utility.yul\":1236:1260   */\n      tag_93\n      jump\t// in\n    tag_121:\n        /* \"#utility.yul\":1231:1234   */\n      dup3\n        /* \"#utility.yul\":1224:1261   */\n      mstore\n        /* \"#utility.yul\":1149:1267   */\n      pop\n      pop\n      jump\t// out\n        /* \"#utility.yul\":1273:1495   */\n    tag_20:\n        /* \"#utility.yul\":1366:1370   */\n      0x00\n        /* \"#utility.yul\":1404:1406   */\n      0x20\n        /* \"#utility.yul\":1393:1402   */\n      dup3\n        /* \"#utility.yul\":1389:1407   */\n      add\n        /* \"#utility.yul\":1381:1407   */\n      swap1\n      pop\n        /* \"#utility.yul\":1417:1488   */\n      tag_123\n        /* \"#utility.yul\":1485:1486   */\n      0x00\n        /* \"#utility.yul\":1474:1483   */\n      dup4\n        /* \"#utility.yul\":1470:1487   */\n      add\n        /* \"#utility.yul\":1461:1467   */\n      dup5\n        /* \"#utility.yul\":1417:1488   */\n      tag_94\n      jump\t// in\n    tag_123:\n        /* \"#utility.yul\":1273:1495   */\n      swap3\n      swap2\n      pop\n      pop\n      jump\t// out\n        /* \"#utility.yul\":1501:1619   */\n    tag_95:\n        /* \"#utility.yul\":1588:1612   */\n      tag_125\n        /* \"#utility.yul\":1606:1611   */\n      dup2\n        /* \"#utility.yul\":1588:1612   */\n      tag_90\n      jump\t// in\n    tag_125:\n        /* \"#utility.yul\":1583:1586   */\n      dup3\n        /* \"#utility.yul\":1576:1613   */\n      mstore\n        /* \"#utility.yul\":1501:1619   */\n      pop\n      pop\n      jump\t// out\n        /* \"#utility.yul\":1625:1847   */\n    tag_25:\n        /* \"#utility.yul\":1718:1722   */\n      0x00\n        /* \"#utility.yul\":1756:1758   */\n      0x20\n        /* \"#utility.yul\":1745:1754   */\n      dup3\n        /* \"#utility.yul\":1741:1759   */\n      add\n        /* \"#utility.yul\":1733:1759   */\n      swap1\n      pop\n        /* \"#utility.yul\":1769:1840   */\n      tag_127\n        /* \"#utility.yul\":1837:1838   */\n      0x00\n        /* \"#utility.yul\":1826:1835   */\n      dup4\n        /* \"#utility.yul\":1822:1839   */\n      add\n        /* \"#utility.yul\":1813:1819   */\n      dup5\n        /* \"#utility.yul\":1769:1840   */\n      tag_95\n      jump\t// in\n    tag_127:\n        /* \"#utility.yul\":1625:1847   */\n      swap3\n      swap2\n      pop\n      pop\n      jump\t// out\n        /* \"#utility.yul\":1853:1946   */\n    tag_96:\n        /* \"#utility.yul\":1889:1896   */\n      0x00\n        /* \"#utility.yul\":1929:1939   */\n      0xffffffff\n        /* \"#utility.yul\":1922:1927   */\n      dup3\n        /* \"#utility.yul\":1918:1940   */\n      and\n        /* \"#utility.yul\":1907:1940   */\n      swap1\n      pop\n        /* \"#utility.yul\":1853:1946   */\n      swap2\n      swap1\n      pop\n      jump\t// out\n        /* \"#utility.yul\":1952:2067   */\n    tag_97:\n        /* \"#utility.yul\":2037:2060   */\n      tag_130\n        /* \"#utility.yul\":2054:2059   */\n      dup2\n        /* \"#utility.yul\":2037:2060   */\n      tag_96\n      jump\t// in\n    tag_130:\n        /* \"#utility.yul\":2032:2035   */\n      dup3\n        /* \"#utility.yul\":2025:2061   */\n      mstore\n        /* \"#utility.yul\":1952:2067   */\n      pop\n      pop\n      jump\t// out\n        /* \"#utility.yul\":2073:2291   */\n    tag_30:\n        /* \"#utility.yul\":2164:2168   */\n      0x00\n        /* \"#utility.yul\":2202:2204   */\n      0x20\n        /* \"#utility.yul\":2191:2200   */\n      dup3\n        /* \"#utility.yul\":2187:2205   */\n      add\n        /* \"#utility.yul\":2179:2205   */\n      swap1\n      pop\n        /* \"#utility.yul\":2215:2284   */\n      tag_132\n        /* \"#utility.yul\":2281:2282   */\n      0x00\n        /* \"#utility.yul\":2270:2279   */\n      dup4\n        /* \"#utility.yul\":2266:2283   */\n      add\n        /* \"#utility.yul\":2257:2263   */\n      dup5\n        /* \"#utility.yul\":2215:2284   */\n      tag_97\n      jump\t// in\n    tag_132:\n        /* \"#utility.yul\":2073:2291   */\n      swap3\n      swap2\n      pop\n      pop\n      jump\t// out\n        /* \"#utility.yul\":2297:2629   */\n    tag_48:\n        /* \"#utility.yul\":2418:2422   */\n      0x00\n        /* \"#utility.yul\":2456:2458   */\n      0x40\n        /* \"#utility.yul\":2445:2454   */\n      dup3\n        /* \"#utility.yul\":2441:2459   */\n      add\n        /* \"#utility.yul\":2433:2459   */\n      swap1\n      pop\n        /* \"#utility.yul\":2469:2540   */\n      tag_134\n        /* \"#utility.yul\":2537:2538   */\n      0x00\n        /* \"#utility.yul\":2526:2535   */\n      dup4\n        /* \"#utility.yul\":2522:2539   */\n      add\n        /* \"#utility.yul\":2513:2519   */\n      dup6\n        /* \"#utility.yul\":2469:2540   */\n      tag_95\n      jump\t// in\n    tag_134:\n        /* \"#utility.yul\":2550:2622   */\n      tag_135\n        /* \"#utility.yul\":2618:2620   */\n      0x20\n        /* \"#utility.yul\":2607:2616   */\n      dup4\n        /* \"#utility.yul\":2603:2621   */\n      add\n        /* \"#utility.yul\":2594:2600   */\n      dup5\n        /* \"#utility.yul\":2550:2622   */\n      tag_95\n      jump\t// in\n    tag_135:\n        /* \"#utility.yul\":2297:2629   */\n      swap4\n      swap3\n      pop\n      pop\n      pop\n      jump\t// out\n        /* \"#utility.yul\":2635:2815   */\n    tag_98:\n        /* \"#utility.yul\":2683:2760   */\n      0x4e487b7100000000000000000000000000000000000000000000000000000000\n        /* \"#utility.yul\":2680:2681   */\n      0x00\n        /* \"#utility.yul\":2673:2761   */\n      mstore\n        /* \"#utility.yul\":2780:2784   */\n      0x11\n        /* \"#utility.yul\":2777:2778   */\n      0x04\n        /* \"#utility.yul\":2770:2785   */\n      mstore\n        /* \"#utility.yul\":2804:2808   */\n      0x24\n        /* \"#utility.yul\":2801:2802   */\n      0x00\n        /* \"#utility.yul\":2794:2809   */\n      revert\n        /* \"#utility.yul\":2821:3048   */\n    tag_54:\n        /* \"#utility.yul\":2861:2865   */\n      0x00\n        /* \"#utility.yul\":2881:2901   */\n      tag_138\n        /* \"#utility.yul\":2899:2900   */\n      dup3\n        /* \"#utility.yul\":2881:2901   */\n      tag_90\n      jump\t// in\n    tag_138:\n        /* \"#utility.yul\":2876:2901   */\n      swap2\n      pop\n        /* \"#utility.yul\":2915:2935   */\n      tag_139\n        /* \"#utility.yul\":2933:2934   */\n      dup4\n        /* \"#utility.yul\":2915:2935   */\n      tag_90\n      jump\t// in\n    tag_139:\n        /* \"#utility.yul\":2910:2935   */\n      swap3\n      pop\n        /* \"#utility.yul\":2959:2960   */\n      dup3\n        /* \"#utility.yul\":2956:2957   */\n      dup3\n        /* \"#utility.yul\":2952:2961   */\n      sub\n        /* \"#utility.yul\":2944:2961   */\n      swap1\n      pop\n        /* \"#utility.yul\":2983:3017   */\n      0xffffffffffffffffffffffffffffffff\n        /* \"#utility.yul\":2977:2981   */\n      dup2\n        /* \"#utility.yul\":2974:3018   */\n      gt\n        /* \"#utility.yul\":2971:3041   */\n      iszero\n      tag_140\n      jumpi\n        /* \"#utility.yul\":3021:3039   */\n      tag_141\n      tag_98\n      jump\t// in\n    tag_141:\n        /* \"#utility.yul\":2971:3041   */\n    tag_140:\n        /* \"#utility.yul\":2821:3048   */\n      swap3\n      swap2\n      pop\n      pop\n      jump\t// out\n        /* \"#utility.yul\":3054:3278   */\n    tag_64:\n        /* \"#utility.yul\":3094:3097   */\n      0x00\n        /* \"#utility.yul\":3113:3133   */\n      tag_143\n        /* \"#utility.yul\":3131:3132   */\n      dup3\n        /* \"#utility.yul\":3113:3133   */\n      tag_90\n      jump\t// in\n    tag_143:\n        /* \"#utility.yul\":3108:3133   */\n      swap2\n      pop\n        /* \"#utility.yul\":3147:3167   */\n      tag_144\n        /* \"#utility.yul\":3165:3166   */\n      dup4\n        /* \"#utility.yul\":3147:3167   */\n      tag_90\n      jump\t// in\n    tag_144:\n        /* \"#utility.yul\":3142:3167   */\n      swap3\n      pop\n        /* \"#utility.yul\":3190:3191   */\n      dup3\n        /* \"#utility.yul\":3187:3188   */\n      dup3\n        /* \"#utility.yul\":3183:3192   */\n      add\n        /* \"#utility.yul\":3176:3192   */\n      swap1\n      pop\n        /* \"#utility.yul\":3213:3247   */\n      0xffffffffffffffffffffffffffffffff\n        /* \"#utility.yul\":3208:3211   */\n      dup2\n        /* \"#utility.yul\":3205:3248   */\n      gt\n        /* \"#utility.yul\":3202:3271   */\n      iszero\n      tag_145\n      jumpi\n        /* \"#utility.yul\":3251:3269   */\n      tag_146\n      tag_98\n      jump\t// in\n    tag_146:\n        /* \"#utility.yul\":3202:3271   */\n    tag_145:\n        /* \"#utility.yul\":3054:3278   */\n      swap3\n      swap2\n      pop\n      pop\n      jump\t// out\n        /* \"#utility.yul\":3284:3481   */\n    tag_75:\n        /* \"#utility.yul\":3323:3326   */\n      0x00\n        /* \"#utility.yul\":3342:3361   */\n      tag_148\n        /* \"#utility.yul\":3359:3360   */\n      dup3\n        /* \"#utility.yul\":3342:3361   */\n      tag_96\n      jump\t// in\n    tag_148:\n        /* \"#utility.yul\":3337:3361   */\n      swap2\n      pop\n        /* \"#utility.yul\":3375:3394   */\n      tag_149\n        /* \"#utility.yul\":3392:3393   */\n      dup4\n        /* \"#utility.yul\":3375:3394   */\n      tag_96\n      jump\t// in\n    tag_149:\n        /* \"#utility.yul\":3370:3394   */\n      swap3\n      pop\n        /* \"#utility.yul\":3417:3418   */\n      dup3\n        /* \"#utility.yul\":3414:3415   */\n      dup3\n        /* \"#utility.yul\":3410:3419   */\n      add\n        /* \"#utility.yul\":3403:3419   */\n      swap1\n      pop\n        /* \"#utility.yul\":3440:3450   */\n      0xffffffff\n        /* \"#utility.yul\":3435:3438   */\n      dup2\n        /* \"#utility.yul\":3432:3451   */\n      gt\n        /* \"#utility.yul\":3429:3474   */\n      iszero\n      tag_150\n      jumpi\n        /* \"#utility.yul\":3454:3472   */\n      tag_151\n      tag_98\n      jump\t// in\n    tag_151:\n        /* \"#utility.yul\":3429:3474   */\n    tag_150:\n        /* \"#utility.yul\":3284:3481   */\n      swap3\n      swap2\n      pop\n      pop\n      jump\t// out\n        /* \"#utility.yul\":3487:3634   */\n    tag_99:\n        /* \"#utility.yul\":3588:3599   */\n      0x00\n        /* \"#utility.yul\":3625:3628   */\n      dup2\n        /* \"#utility.yul\":3610:3628   */\n      swap1\n      pop\n        /* \"#utility.yul\":3487:3634   */\n      swap3\n      swap2\n      pop\n      pop\n      jump\t// out\n        /* \"#utility.yul\":3640:3754   */\n    tag_100:\n      pop\n      jump\t// out\n        /* \"#utility.yul\":3760:4158   */\n    tag_101:\n        /* \"#utility.yul\":3919:3922   */\n      0x00\n        /* \"#utility.yul\":3940:4023   */\n      tag_155\n        /* \"#utility.yul\":4021:4022   */\n      0x00\n        /* \"#utility.yul\":4016:4019   */\n      dup4\n        /* \"#utility.yul\":3940:4023   */\n      tag_99\n      jump\t// in\n    tag_155:\n        /* \"#utility.yul\":3933:4023   */\n      swap2\n      pop\n        /* \"#utility.yul\":4032:4125   */\n      tag_156\n        /* \"#utility.yul\":4121:4124   */\n      dup3\n        /* \"#utility.yul\":4032:4125   */\n      tag_100\n      jump\t// in\n    tag_156:\n        /* \"#utility.yul\":4150:4151   */\n      0x00\n        /* \"#utility.yul\":4145:4148   */\n      dup3\n        /* \"#utility.yul\":4141:4152   */\n      add\n        /* \"#utility.yul\":4134:4152   */\n      swap1\n      pop\n        /* \"#utility.yul\":3760:4158   */\n      swap2\n      swap1\n      pop\n      jump\t// out\n        /* \"#utility.yul\":4164:4543   */\n    tag_80:\n        /* \"#utility.yul\":4348:4351   */\n      0x00\n        /* \"#utility.yul\":4370:4517   */\n      tag_158\n        /* \"#utility.yul\":4513:4516   */\n      dup3\n        /* \"#utility.yul\":4370:4517   */\n      tag_101\n      jump\t// in\n    tag_158:\n        /* \"#utility.yul\":4363:4517   */\n      swap2\n      pop\n        /* \"#utility.yul\":4534:4537   */\n      dup2\n        /* \"#utility.yul\":4527:4537   */\n      swap1\n      pop\n        /* \"#utility.yul\":4164:4543   */\n      swap2\n      swap1\n      pop\n      jump\t// out\n        /* \"#utility.yul\":4549:4675   */\n    tag_102:\n        /* \"#utility.yul\":4586:4593   */\n      0x00\n        /* \"#utility.yul\":4626:4668   */\n      0xffffffffffffffffffffffffffffffffffffffff\n        /* \"#utility.yul\":4619:4624   */\n      dup3\n        /* \"#utility.yul\":4615:4669   */\n      and\n        /* \"#utility.yul\":4604:4669   */\n      swap1\n      pop\n        /* \"#utility.yul\":4549:4675   */\n      swap2\n      swap1\n      pop\n      jump\t// out\n        /* \"#utility.yul\":4681:4777   */\n    tag_103:\n        /* \"#utility.yul\":4718:4725   */\n      0x00\n        /* \"#utility.yul\":4747:4771   */\n      tag_161\n        /* \"#utility.yul\":4765:4770   */\n      dup3\n        /* \"#utility.yul\":4747:4771   */\n      tag_102\n      jump\t// in\n    tag_161:\n        /* \"#utility.yul\":4736:4771   */\n      swap1\n      pop\n        /* \"#utility.yul\":4681:4777   */\n      swap2\n      swap1\n      pop\n      jump\t// out\n        /* \"#utility.yul\":4783:4901   */\n    tag_104:\n        /* \"#utility.yul\":4870:4894   */\n      tag_163\n        /* \"#utility.yul\":4888:4893   */\n      dup2\n        /* \"#utility.yul\":4870:4894   */\n      tag_103\n      jump\t// in\n    tag_163:\n        /* \"#utility.yul\":4865:4868   */\n      dup3\n        /* \"#utility.yul\":4858:4895   */\n      mstore\n        /* \"#utility.yul\":4783:4901   */\n      pop\n      pop\n      jump\t// out\n        /* \"#utility.yul\":4907:5239   */\n    tag_86:\n        /* \"#utility.yul\":5028:5032   */\n      0x00\n        /* \"#utility.yul\":5066:5068   */\n      0x40\n        /* \"#utility.yul\":5055:5064   */\n      dup3\n        /* \"#utility.yul\":5051:5069   */\n      add\n        /* \"#utility.yul\":5043:5069   */\n      swap1\n      pop\n        /* \"#utility.yul\":5079:5150   */\n      tag_165\n        /* \"#utility.yul\":5147:5148   */\n      0x00\n        /* \"#utility.yul\":5136:5145   */\n      dup4\n        /* \"#utility.yul\":5132:5149   */\n      add\n        /* \"#utility.yul\":5123:5129   */\n      dup6\n        /* \"#utility.yul\":5079:5150   */\n      tag_104\n      jump\t// in\n    tag_165:\n        /* \"#utility.yul\":5160:5232   */\n      tag_166\n        /* \"#utility.yul\":5228:5230   */\n      0x20\n        /* \"#utility.yul\":5217:5226   */\n      dup4\n        /* \"#utility.yul\":5213:5231   */\n      add\n        /* \"#utility.yul\":5204:5210   */\n      dup5\n        /* \"#utility.yul\":5160:5232   */\n      tag_95\n      jump\t// in\n    tag_166:\n        /* \"#utility.yul\":4907:5239   */\n      swap4\n      swap3\n      pop\n      pop\n      pop\n      jump\t// out\n\n    auxdata: 0xa2646970667358221220e3e2d599bf04f010046f315c71f110c0d4045f7461a5f8da599f6fd94edd048e64736f6c634300081e0033\n}\n",
				"bytecode": {
					"linkReferences": {},
					"object": "60c060405234801561000f575f5ffd5b50604051610ca7380380610ca7833981810160405281019061003191906100d9565b816fffffffffffffffffffffffffffffffff166080816fffffffffffffffffffffffffffffffff1681525050806fffffffffffffffffffffffffffffffff1660a0816fffffffffffffffffffffffffffffffff16815250505050610117565b5f5ffd5b5f6fffffffffffffffffffffffffffffffff82169050919050565b6100b881610094565b81146100c2575f5ffd5b50565b5f815190506100d3816100af565b92915050565b5f5f604083850312156100ef576100ee610090565b5b5f6100fc858286016100c5565b925050602061010d858286016100c5565b9150509250929050565b60805160a051610b536101545f395f81816101af015281816101fc01526106f001525f818161050d0152818161057001526106cc0152610b535ff3fe60806040526004361061007a575f3560e01c80637d8820971161004d5780637d88209714610124578063d0e30db01461014e578063ecbea24d14610158578063f848d541146101825761007a565b806302387a7b1461007e57806312b58349146100a65780634c738909146100d057806360464627146100fa575b5f5ffd5b348015610089575f5ffd5b506100a4600480360381019061009f91906108aa565b6101ac565b005b3480156100b1575f5ffd5b506100ba610477565b6040516100c791906108ed565b60405180910390f35b3480156100db575f5ffd5b506100e461047e565b6040516100f19190610915565b60405180910390f35b348015610105575f5ffd5b5061010e6104dd565b60405161011b919061094c565b60405180910390f35b34801561012f575f5ffd5b506101386104f2565b604051610145919061094c565b60405180910390f35b610156610506565b005b348015610163575f5ffd5b5061016c6106ca565b6040516101799190610915565b60405180910390f35b34801561018d575f5ffd5b506101966106ee565b6040516101a39190610915565b60405180910390f35b807f00000000000000000000000000000000000000000000000000000000000000006fffffffffffffffffffffffffffffffff16816fffffffffffffffffffffffffffffffff16111561025857807f00000000000000000000000000000000000000000000000000000000000000006040517fd272831700000000000000000000000000000000000000000000000000000000815260040161024f929190610965565b60405180910390fd5b8160015f3373ffffffffffffffffffffffffffffffffffffffff1673ffffffffffffffffffffffffffffffffffffffff1681526020019081526020015f205f9054906101000a90046fffffffffffffffffffffffffffffffff166fffffffffffffffffffffffffffffffff16816fffffffffffffffffffffffffffffffff161115610374578060015f3373ffffffffffffffffffffffffffffffffffffffff1673ffffffffffffffffffffffffffffffffffffffff1681526020019081526020015f205f9054906101000a90046fffffffffffffffffffffffffffffffff166040517fb61caeea00000000000000000000000000000000000000000000000000000000815260040161036b929190610965565b60405180910390fd5b8260015f3373ffffffffffffffffffffffffffffffffffffffff1673ffffffffffffffffffffffffffffffffffffffff1681526020019081526020015f205f8282829054906101000a90046fffffffffffffffffffffffffffffffff166103db91906109b9565b92506101000a8154816fffffffffffffffffffffffffffffffff02191690836fffffffffffffffffffffffffffffffff16021790555061041a5f610712565b610424338461079e565b3373ffffffffffffffffffffffffffffffffffffffff167fab48b3d59a240196dc5bdd7f7a638fca310f8194c7d350c3dd7765861311ddf88460405161046a9190610915565b60405180910390a2505050565b5f47905090565b5f60015f3373ffffffffffffffffffffffffffffffffffffffff1673ffffffffffffffffffffffffffffffffffffffff1681526020019081526020015f205f9054906101000a90046fffffffffffffffffffffffffffffffff16905090565b5f60049054906101000a900463ffffffff1681565b5f5f9054906101000a900463ffffffff1681565b345f4790507f00000000000000000000000000000000000000000000000000000000000000006fffffffffffffffffffffffffffffffff16828261054a91906109fc565b6fffffffffffffffffffffffffffffffff1611156105cc57818161056e91906109fc565b7f00000000000000000000000000000000000000000000000000000000000000006040517fbc42f8460000000000000000000000000000000000000000000000000000000081526004016105c3929190610965565b60405180910390fd5b5f3490508060015f3373ffffffffffffffffffffffffffffffffffffffff1673ffffffffffffffffffffffffffffffffffffffff1681526020019081526020015f205f8282829054906101000a90046fffffffffffffffffffffffffffffffff1661063791906109fc565b92506101000a8154816fffffffffffffffffffffffffffffffff02191690836fffffffffffffffffffffffffffffffff1602179055506106776001610712565b3373ffffffffffffffffffffffffffffffffffffffff167fadb1a06aea2cd2ff20eac971640a5eb7d687df3e3a897be2f334836494958a47826040516106bd9190610915565b60405180910390a2505050565b7f000000000000000000000000000000000000000000000000000000000000000081565b7f000000000000000000000000000000000000000000000000000000000000000081565b801561075b5760015f5f8282829054906101000a900463ffffffff166107389190610a3f565b92506101000a81548163ffffffff021916908363ffffffff16021790555061079b565b60015f60048282829054906101000a900463ffffffff1661077c9190610a3f565b92506101000a81548163ffffffff021916908363ffffffff1602179055505b50565b5f8273ffffffffffffffffffffffffffffffffffffffff16826fffffffffffffffffffffffffffffffff166040516107d590610aa3565b5f6040518083038185875af1925050503d805f811461080f576040519150601f19603f3d011682016040523d82523d5f602084013e610814565b606091505b505090508061085c5782826040517f947fba8b000000000000000000000000000000000000000000000000000000008152600401610853929190610af6565b60405180910390fd5b505050565b5f5ffd5b5f6fffffffffffffffffffffffffffffffff82169050919050565b61088981610865565b8114610893575f5ffd5b50565b5f813590506108a481610880565b92915050565b5f602082840312156108bf576108be610861565b5b5f6108cc84828501610896565b91505092915050565b5f819050919050565b6108e7816108d5565b82525050565b5f6020820190506109005f8301846108de565b92915050565b61090f81610865565b82525050565b5f6020820190506109285f830184610906565b92915050565b5f63ffffffff82169050919050565b6109468161092e565b82525050565b5f60208201905061095f5f83018461093d565b92915050565b5f6040820190506109785f830185610906565b6109856020830184610906565b9392505050565b7f4e487b71000000000000000000000000000000000000000000000000000000005f52601160045260245ffd5b5f6109c382610865565b91506109ce83610865565b925082820390506fffffffffffffffffffffffffffffffff8111156109f6576109f561098c565b5b92915050565b5f610a0682610865565b9150610a1183610865565b925082820190506fffffffffffffffffffffffffffffffff811115610a3957610a3861098c565b5b92915050565b5f610a498261092e565b9150610a548361092e565b9250828201905063ffffffff811115610a7057610a6f61098c565b5b92915050565b5f81905092915050565b50565b5f610a8e5f83610a76565b9150610a9982610a80565b5f82019050919050565b5f610aad82610a83565b9150819050919050565b5f73ffffffffffffffffffffffffffffffffffffffff82169050919050565b5f610ae082610ab7565b9050919050565b610af081610ad6565b82525050565b5f604082019050610b095f830185610ae7565b610b166020830184610906565b939250505056fea2646970667358221220e3e2d599bf04f010046f315c71f110c0d4045f7461a5f8da599f6fd94edd048e64736f6c634300081e0033",
					"opcodes": "PUSH1 0xC0 PUSH1 0x40 MSTORE CALLVALUE DUP1 ISZERO PUSH2 0xF JUMPI PUSH0 PUSH0 REVERT JUMPDEST POP PUSH1 0x40 MLOAD PUSH2 0xCA7 CODESIZE SUB DUP1 PUSH2 0xCA7 DUP4 CODECOPY DUP2 DUP2 ADD PUSH1 0x40 MSTORE DUP2 ADD SWAP1 PUSH2 0x31 SWAP2 SWAP1 PUSH2 0xD9 JUMP JUMPDEST DUP2 PUSH16 0xFFFFFFFFFFFFFFFFFFFFFFFFFFFFFFFF AND PUSH1 0x80 DUP2 PUSH16 0xFFFFFFFFFFFFFFFFFFFFFFFFFFFFFFFF AND DUP2 MSTORE POP POP DUP1 PUSH16 0xFFFFFFFFFFFFFFFFFFFFFFFFFFFFFFFF AND PUSH1 0xA0 DUP2 PUSH16 0xFFFFFFFFFFFFFFFFFFFFFFFFFFFFFFFF AND DUP2 MSTORE POP POP POP POP PUSH2 0x117 JUMP JUMPDEST PUSH0 PUSH0 REVERT JUMPDEST PUSH0 PUSH16 0xFFFFFFFFFFFFFFFFFFFFFFFFFFFFFFFF DUP3 AND SWAP1 POP SWAP2 SWAP1 POP JUMP JUMPDEST PUSH2 0xB8 DUP2 PUSH2 0x94 JUMP JUMPDEST DUP2 EQ PUSH2 0xC2 JUMPI PUSH0 PUSH0 REVERT JUMPDEST POP JUMP JUMPDEST PUSH0 DUP2 MLOAD SWAP1 POP PUSH2 0xD3 DUP2 PUSH2 0xAF JUMP JUMPDEST SWAP3 SWAP2 POP POP JUMP JUMPDEST PUSH0 PUSH0 PUSH1 0x40 DUP4 DUP6 SUB SLT ISZERO PUSH2 0xEF JUMPI PUSH2 0xEE PUSH2 0x90 JUMP JUMPDEST JUMPDEST PUSH0 PUSH2 0xFC DUP6 DUP3 DUP7 ADD PUSH2 0xC5 JUMP JUMPDEST SWAP3 POP POP PUSH1 0x20 PUSH2 0x10D DUP6 DUP3 DUP7 ADD PUSH2 0xC5 JUMP JUMPDEST SWAP2 POP POP SWAP3 POP SWAP3 SWAP1 POP JUMP JUMPDEST PUSH1 0x80 MLOAD PUSH1 0xA0 MLOAD PUSH2 0xB53 PUSH2 0x154 PUSH0 CODECOPY PUSH0 DUP2 DUP2 PUSH2 0x1AF ADD MSTORE DUP2 DUP2 PUSH2 0x1FC ADD MSTORE PUSH2 0x6F0 ADD MSTORE PUSH0 DUP2 DUP2 PUSH2 0x50D ADD MSTORE DUP2 DUP2 PUSH2 0x570 ADD MSTORE PUSH2 0x6CC ADD MSTORE PUSH2 0xB53 PUSH0 RETURN INVALID PUSH1 0x80 PUSH1 0x40 MSTORE PUSH1 0x4 CALLDATASIZE LT PUSH2 0x7A JUMPI PUSH0 CALLDATALOAD PUSH1 0xE0 SHR DUP1 PUSH4 0x7D882097 GT PUSH2 0x4D JUMPI DUP1 PUSH4 0x7D882097 EQ PUSH2 0x124 JUMPI DUP1 PUSH4 0xD0E30DB0 EQ PUSH2 0x14E JUMPI DUP1 PUSH4 0xECBEA24D EQ PUSH2 0x158 JUMPI DUP1 PUSH4 0xF848D541 EQ PUSH2 0x182 JUMPI PUSH2 0x7A JUMP JUMPDEST DUP1 PUSH4 0x2387A7B EQ PUSH2 0x7E JUMPI DUP1 PUSH4 0x12B58349 EQ PUSH2 0xA6 JUMPI DUP1 PUSH4 0x4C738909 EQ PUSH2 0xD0 JUMPI DUP1 PUSH4 0x60464627 EQ PUSH2 0xFA JUMPI JUMPDEST PUSH0 PUSH0 REVERT JUMPDEST CALLVALUE DUP1 ISZERO PUSH2 0x89 JUMPI PUSH0 PUSH0 REVERT JUMPDEST POP PUSH2 0xA4 PUSH1 0x4 DUP1 CALLDATASIZE SUB DUP2 ADD SWAP1 PUSH2 0x9F SWAP2 SWAP1 PUSH2 0x8AA JUMP JUMPDEST PUSH2 0x1AC JUMP JUMPDEST STOP JUMPDEST CALLVALUE DUP1 ISZERO PUSH2 0xB1 JUMPI PUSH0 PUSH0 REVERT JUMPDEST POP PUSH2 0xBA PUSH2 0x477 JUMP JUMPDEST PUSH1 0x40 MLOAD PUSH2 0xC7 SWAP2 SWAP1 PUSH2 0x8ED JUMP JUMPDEST PUSH1 0x40 MLOAD DUP1 SWAP2 SUB SWAP1 RETURN JUMPDEST CALLVALUE DUP1 ISZERO PUSH2 0xDB JUMPI PUSH0 PUSH0 REVERT JUMPDEST POP PUSH2 0xE4 PUSH2 0x47E JUMP JUMPDEST PUSH1 0x40 MLOAD PUSH2 0xF1 SWAP2 SWAP1 PUSH2 0x915 JUMP JUMPDEST PUSH1 0x40 MLOAD DUP1 SWAP2 SUB SWAP1 RETURN JUMPDEST CALLVALUE DUP1 ISZERO PUSH2 0x105 JUMPI PUSH0 PUSH0 REVERT JUMPDEST POP PUSH2 0x10E PUSH2 0x4DD JUMP JUMPDEST PUSH1 0x40 MLOAD PUSH2 0x11B SWAP2 SWAP1 PUSH2 0x94C JUMP JUMPDEST PUSH1 0x40 MLOAD DUP1 SWAP2 SUB SWAP1 RETURN JUMPDEST CALLVALUE DUP1 ISZERO PUSH2 0x12F JUMPI PUSH0 PUSH0 REVERT JUMPDEST POP PUSH2 0x138 PUSH2 0x4F2 JUMP JUMPDEST PUSH1 0x40 MLOAD PUSH2 0x145 SWAP2 SWAP1 PUSH2 0x94C JUMP JUMPDEST PUSH1 0x40 MLOAD DUP1 SWAP2 SUB SWAP1 RETURN JUMPDEST PUSH2 0x156 PUSH2 0x506 JUMP JUMPDEST STOP JUMPDEST CALLVALUE DUP1 ISZERO PUSH2 0x163 JUMPI PUSH0 PUSH0 REVERT JUMPDEST POP PUSH2 0x16C PUSH2 0x6CA JUMP JUMPDEST PUSH1 0x40 MLOAD PUSH2 0x179 SWAP2 SWAP1 PUSH2 0x915 JUMP JUMPDEST PUSH1 0x40 MLOAD DUP1 SWAP2 SUB SWAP1 RETURN JUMPDEST CALLVALUE DUP1 ISZERO PUSH2 0x18D JUMPI PUSH0 PUSH0 REVERT JUMPDEST POP PUSH2 0x196 PUSH2 0x6EE JUMP JUMPDEST PUSH1 0x40 MLOAD PUSH2 0x1A3 SWAP2 SWAP1 PUSH2 0x915 JUMP JUMPDEST PUSH1 0x40 MLOAD DUP1 SWAP2 SUB SWAP1 RETURN JUMPDEST DUP1 PUSH32 0x0 PUSH16 0xFFFFFFFFFFFFFFFFFFFFFFFFFFFFFFFF AND DUP2 PUSH16 0xFFFFFFFFFFFFFFFFFFFFFFFFFFFFFFFF AND GT ISZERO PUSH2 0x258 JUMPI DUP1 PUSH32 0x0 PUSH1 0x40 MLOAD PUSH32 0xD272831700000000000000000000000000000000000000000000000000000000 DUP2 MSTORE PUSH1 0x4 ADD PUSH2 0x24F SWAP3 SWAP2 SWAP1 PUSH2 0x965 JUMP JUMPDEST PUSH1 0x40 MLOAD DUP1 SWAP2 SUB SWAP1 REVERT JUMPDEST DUP2 PUSH1 0x1 PUSH0 CALLER PUSH20 0xFFFFFFFFFFFFFFFFFFFFFFFFFFFFFFFFFFFFFFFF AND PUSH20 0xFFFFFFFFFFFFFFFFFFFFFFFFFFFFFFFFFFFFFFFF AND DUP2 MSTORE PUSH1 0x20 ADD SWAP1 DUP2 MSTORE PUSH1 0x20 ADD PUSH0 KECCAK256 PUSH0 SWAP1 SLOAD SWAP1 PUSH2 0x100 EXP SWAP1 DIV PUSH16 0xFFFFFFFFFFFFFFFFFFFFFFFFFFFFFFFF AND PUSH16 0xFFFFFFFFFFFFFFFFFFFFFFFFFFFFFFFF AND DUP2 PUSH16 0xFFFFFFFFFFFFFFFFFFFFFFFFFFFFFFFF AND GT ISZERO PUSH2 0x374 JUMPI DUP1 PUSH1 0x1 PUSH0 CALLER PUSH20 0xFFFFFFFFFFFFFFFFFFFFFFFFFFFFFFFFFFFFFFFF AND PUSH20 0xFFFFFFFFFFFFFFFFFFFFFFFFFFFFFFFFFFFFFFFF AND DUP2 MSTORE PUSH1 0x20 ADD SWAP1 DUP2 MSTORE PUSH1 0x20 ADD PUSH0 KECCAK256 PUSH0 SWAP1 SLOAD SWAP1 PUSH2 0x100 EXP SWAP1 DIV PUSH16 0xFFFFFFFFFFFFFFFFFFFFFFFFFFFFFFFF AND PUSH1 0x40 MLOAD PUSH32 0xB61CAEEA00000000000000000000000000000000000000000000000000000000 DUP2 MSTORE PUSH1 0x4 ADD PUSH2 0x36B SWAP3 SWAP2 SWAP1 PUSH2 0x965 JUMP JUMPDEST PUSH1 0x40 MLOAD DUP1 SWAP2 SUB SWAP1 REVERT JUMPDEST DUP3 PUSH1 0x1 PUSH0 CALLER PUSH20 0xFFFFFFFFFFFFFFFFFFFFFFFFFFFFFFFFFFFFFFFF AND PUSH20 0xFFFFFFFFFFFFFFFFFFFFFFFFFFFFFFFFFFFFFFFF AND DUP2 MSTORE PUSH1 0x20 ADD SWAP1 DUP2 MSTORE PUSH1 0x20 ADD PUSH0 KECCAK256 PUSH0 DUP3 DUP3 DUP3 SWAP1 SLOAD SWAP1 PUSH2 0x100 EXP SWAP1 DIV PUSH16 0xFFFFFFFFFFFFFFFFFFFFFFFFFFFFFFFF AND PUSH2 0x3DB SWAP2 SWAP1 PUSH2 0x9B9 JUMP JUMPDEST SWAP3 POP PUSH2 0x100 EXP DUP2 SLOAD DUP2 PUSH16 0xFFFFFFFFFFFFFFFFFFFFFFFFFFFFFFFF MUL NOT AND SWAP1 DUP4 PUSH16 0xFFFFFFFFFFFFFFFFFFFFFFFFFFFFFFFF AND MUL OR SWAP1 SSTORE POP PUSH2 0x41A PUSH0 PUSH2 0x712 JUMP JUMPDEST PUSH2 0x424 CALLER DUP5 PUSH2 0x79E JUMP JUMPDEST CALLER PUSH20 0xFFFFFFFFFFFFFFFFFFFFFFFFFFFFFFFFFFFFFFFF AND PUSH32 0xAB48B3D59A240196DC5BDD7F7A638FCA310F8194C7D350C3DD7765861311DDF8 DUP5 PUSH1 0x40 MLOAD PUSH2 0x46A SWAP2 SWAP1 PUSH2 0x915 JUMP JUMPDEST PUSH1 0x40 MLOAD DUP1 SWAP2 SUB SWAP1 LOG2 POP POP POP JUMP JUMPDEST PUSH0 SELFBALANCE SWAP1 POP SWAP1 JUMP JUMPDEST PUSH0 PUSH1 0x1 PUSH0 CALLER PUSH20 0xFFFFFFFFFFFFFFFFFFFFFFFFFFFFFFFFFFFFFFFF AND PUSH20 0xFFFFFFFFFFFFFFFFFFFFFFFFFFFFFFFFFFFFFFFF AND DUP2 MSTORE PUSH1 0x20 ADD SWAP1 DUP2 MSTORE PUSH1 0x20 ADD PUSH0 KECCAK256 PUSH0 SWAP1 SLOAD SWAP1 PUSH2 0x100 EXP SWAP1 DIV PUSH16 0xFFFFFFFFFFFFFFFFFFFFFFFFFFFFFFFF AND SWAP1 POP SWAP1 JUMP JUMPDEST PUSH0 PUSH1 0x4 SWAP1 SLOAD SWAP1 PUSH2 0x100 EXP SWAP1 DIV PUSH4 0xFFFFFFFF AND DUP2 JUMP JUMPDEST PUSH0 PUSH0 SWAP1 SLOAD SWAP1 PUSH2 0x100 EXP SWAP1 DIV PUSH4 0xFFFFFFFF AND DUP2 JUMP JUMPDEST CALLVALUE PUSH0 SELFBALANCE SWAP1 POP PUSH32 0x0 PUSH16 0xFFFFFFFFFFFFFFFFFFFFFFFFFFFFFFFF AND DUP3 DUP3 PUSH2 0x54A SWAP2 SWAP1 PUSH2 0x9FC JUMP JUMPDEST PUSH16 0xFFFFFFFFFFFFFFFFFFFFFFFFFFFFFFFF AND GT ISZERO PUSH2 0x5CC JUMPI DUP2 DUP2 PUSH2 0x56E SWAP2 SWAP1 PUSH2 0x9FC JUMP JUMPDEST PUSH32 0x0 PUSH1 0x40 MLOAD PUSH32 0xBC42F84600000000000000000000000000000000000000000000000000000000 DUP2 MSTORE PUSH1 0x4 ADD PUSH2 0x5C3 SWAP3 SWAP2 SWAP1 PUSH2 0x965 JUMP JUMPDEST PUSH1 0x40 MLOAD DUP1 SWAP2 SUB SWAP1 REVERT JUMPDEST PUSH0 CALLVALUE SWAP1 POP DUP1 PUSH1 0x1 PUSH0 CALLER PUSH20 0xFFFFFFFFFFFFFFFFFFFFFFFFFFFFFFFFFFFFFFFF AND PUSH20 0xFFFFFFFFFFFFFFFFFFFFFFFFFFFFFFFFFFFFFFFF AND DUP2 MSTORE PUSH1 0x20 ADD SWAP1 DUP2 MSTORE PUSH1 0x20 ADD PUSH0 KECCAK256 PUSH0 DUP3 DUP3 DUP3 SWAP1 SLOAD SWAP1 PUSH2 0x100 EXP SWAP1 DIV PUSH16 0xFFFFFFFFFFFFFFFFFFFFFFFFFFFFFFFF AND PUSH2 0x637 SWAP2 SWAP1 PUSH2 0x9FC JUMP JUMPDEST SWAP3 POP PUSH2 0x100 EXP DUP2 SLOAD DUP2 PUSH16 0xFFFFFFFFFFFFFFFFFFFFFFFFFFFFFFFF MUL NOT AND SWAP1 DUP4 PUSH16 0xFFFFFFFFFFFFFFFFFFFFFFFFFFFFFFFF AND MUL OR SWAP1 SSTORE POP PUSH2 0x677 PUSH1 0x1 PUSH2 0x712 JUMP JUMPDEST CALLER PUSH20 0xFFFFFFFFFFFFFFFFFFFFFFFFFFFFFFFFFFFFFFFF AND PUSH32 0xADB1A06AEA2CD2FF20EAC971640A5EB7D687DF3E3A897BE2F334836494958A47 DUP3 PUSH1 0x40 MLOAD PUSH2 0x6BD SWAP2 SWAP1 PUSH2 0x915 JUMP JUMPDEST PUSH1 0x40 MLOAD DUP1 SWAP2 SUB SWAP1 LOG2 POP POP POP JUMP JUMPDEST PUSH32 0x0 DUP2 JUMP JUMPDEST PUSH32 0x0 DUP2 JUMP JUMPDEST DUP1 ISZERO PUSH2 0x75B JUMPI PUSH1 0x1 PUSH0 PUSH0 DUP3 DUP3 DUP3 SWAP1 SLOAD SWAP1 PUSH2 0x100 EXP SWAP1 DIV PUSH4 0xFFFFFFFF AND PUSH2 0x738 SWAP2 SWAP1 PUSH2 0xA3F JUMP JUMPDEST SWAP3 POP PUSH2 0x100 EXP DUP2 SLOAD DUP2 PUSH4 0xFFFFFFFF MUL NOT AND SWAP1 DUP4 PUSH4 0xFFFFFFFF AND MUL OR SWAP1 SSTORE POP PUSH2 0x79B JUMP JUMPDEST PUSH1 0x1 PUSH0 PUSH1 0x4 DUP3 DUP3 DUP3 SWAP1 SLOAD SWAP1 PUSH2 0x100 EXP SWAP1 DIV PUSH4 0xFFFFFFFF AND PUSH2 0x77C SWAP2 SWAP1 PUSH2 0xA3F JUMP JUMPDEST SWAP3 POP PUSH2 0x100 EXP DUP2 SLOAD DUP2 PUSH4 0xFFFFFFFF MUL NOT AND SWAP1 DUP4 PUSH4 0xFFFFFFFF AND MUL OR SWAP1 SSTORE POP JUMPDEST POP JUMP JUMPDEST PUSH0 DUP3 PUSH20 0xFFFFFFFFFFFFFFFFFFFFFFFFFFFFFFFFFFFFFFFF AND DUP3 PUSH16 0xFFFFFFFFFFFFFFFFFFFFFFFFFFFFFFFF AND PUSH1 0x40 MLOAD PUSH2 0x7D5 SWAP1 PUSH2 0xAA3 JUMP JUMPDEST PUSH0 PUSH1 0x40 MLOAD DUP1 DUP4 SUB DUP2 DUP6 DUP8 GAS CALL SWAP3 POP POP POP RETURNDATASIZE DUP1 PUSH0 DUP2 EQ PUSH2 0x80F JUMPI PUSH1 0x40 MLOAD SWAP2 POP PUSH1 0x1F NOT PUSH1 0x3F RETURNDATASIZE ADD AND DUP3 ADD PUSH1 0x40 MSTORE RETURNDATASIZE DUP3 MSTORE RETURNDATASIZE PUSH0 PUSH1 0x20 DUP5 ADD RETURNDATACOPY PUSH2 0x814 JUMP JUMPDEST PUSH1 0x60 SWAP2 POP JUMPDEST POP POP SWAP1 POP DUP1 PUSH2 0x85C JUMPI DUP3 DUP3 PUSH1 0x40 MLOAD PUSH32 0x947FBA8B00000000000000000000000000000000000000000000000000000000 DUP2 MSTORE PUSH1 0x4 ADD PUSH2 0x853 SWAP3 SWAP2 SWAP1 PUSH2 0xAF6 JUMP JUMPDEST PUSH1 0x40 MLOAD DUP1 SWAP2 SUB SWAP1 REVERT JUMPDEST POP POP POP JUMP JUMPDEST PUSH0 PUSH0 REVERT JUMPDEST PUSH0 PUSH16 0xFFFFFFFFFFFFFFFFFFFFFFFFFFFFFFFF DUP3 AND SWAP1 POP SWAP2 SWAP1 POP JUMP JUMPDEST PUSH2 0x889 DUP2 PUSH2 0x865 JUMP JUMPDEST DUP2 EQ PUSH2 0x893 JUMPI PUSH0 PUSH0 REVERT JUMPDEST POP JUMP JUMPDEST PUSH0 DUP2 CALLDATALOAD SWAP1 POP PUSH2 0x8A4 DUP2 PUSH2 0x880 JUMP JUMPDEST SWAP3 SWAP2 POP POP JUMP JUMPDEST PUSH0 PUSH1 0x20 DUP3 DUP5 SUB SLT ISZERO PUSH2 0x8BF JUMPI PUSH2 0x8BE PUSH2 0x861 JUMP JUMPDEST JUMPDEST PUSH0 PUSH2 0x8CC DUP5 DUP3 DUP6 ADD PUSH2 0x896 JUMP JUMPDEST SWAP2 POP POP SWAP3 SWAP2 POP POP JUMP JUMPDEST PUSH0 DUP2 SWAP1 POP SWAP2 SWAP1 POP JUMP JUMPDEST PUSH2 0x8E7 DUP2 PUSH2 0x8D5 JUMP JUMPDEST DUP3 MSTORE POP POP JUMP JUMPDEST PUSH0 PUSH1 0x20 DUP3 ADD SWAP1 POP PUSH2 0x900 PUSH0 DUP4 ADD DUP5 PUSH2 0x8DE JUMP JUMPDEST SWAP3 SWAP2 POP POP JUMP JUMPDEST PUSH2 0x90F DUP2 PUSH2 0x865 JUMP JUMPDEST DUP3 MSTORE POP POP JUMP JUMPDEST PUSH0 PUSH1 0x20 DUP3 ADD SWAP1 POP PUSH2 0x928 PUSH0 DUP4 ADD DUP5 PUSH2 0x906 JUMP JUMPDEST SWAP3 SWAP2 POP POP JUMP JUMPDEST PUSH0 PUSH4 0xFFFFFFFF DUP3 AND SWAP1 POP SWAP2 SWAP1 POP JUMP JUMPDEST PUSH2 0x946 DUP2 PUSH2 0x92E JUMP JUMPDEST DUP3 MSTORE POP POP JUMP JUMPDEST PUSH0 PUSH1 0x20 DUP3 ADD SWAP1 POP PUSH2 0x95F PUSH0 DUP4 ADD DUP5 PUSH2 0x93D JUMP JUMPDEST SWAP3 SWAP2 POP POP JUMP JUMPDEST PUSH0 PUSH1 0x40 DUP3 ADD SWAP1 POP PUSH2 0x978 PUSH0 DUP4 ADD DUP6 PUSH2 0x906 JUMP JUMPDEST PUSH2 0x985 PUSH1 0x20 DUP4 ADD DUP5 PUSH2 0x906 JUMP JUMPDEST SWAP4 SWAP3 POP POP POP JUMP JUMPDEST PUSH32 0x4E487B7100000000000000000000000000000000000000000000000000000000 PUSH0 MSTORE PUSH1 0x11 PUSH1 0x4 MSTORE PUSH1 0x24 PUSH0 REVERT JUMPDEST PUSH0 PUSH2 0x9C3 DUP3 PUSH2 0x865 JUMP JUMPDEST SWAP2 POP PUSH2 0x9CE DUP4 PUSH2 0x865 JUMP JUMPDEST SWAP3 POP DUP3 DUP3 SUB SWAP1 POP PUSH16 0xFFFFFFFFFFFFFFFFFFFFFFFFFFFFFFFF DUP2 GT ISZERO PUSH2 0x9F6 JUMPI PUSH2 0x9F5 PUSH2 0x98C JUMP JUMPDEST JUMPDEST SWAP3 SWAP2 POP POP JUMP JUMPDEST PUSH0 PUSH2 0xA06 DUP3 PUSH2 0x865 JUMP JUMPDEST SWAP2 POP PUSH2 0xA11 DUP4 PUSH2 0x865 JUMP JUMPDEST SWAP3 POP DUP3 DUP3 ADD SWAP1 POP PUSH16 0xFFFFFFFFFFFFFFFFFFFFFFFFFFFFFFFF DUP2 GT ISZERO PUSH2 0xA39 JUMPI PUSH2 0xA38 PUSH2 0x98C JUMP JUMPDEST JUMPDEST SWAP3 SWAP2 POP POP JUMP JUMPDEST PUSH0 PUSH2 0xA49 DUP3 PUSH2 0x92E JUMP JUMPDEST SWAP2 POP PUSH2 0xA54 DUP4 PUSH2 0x92E JUMP JUMPDEST SWAP3 POP DUP3 DUP3 ADD SWAP1 POP PUSH4 0xFFFFFFFF DUP2 GT ISZERO PUSH2 0xA70 JUMPI PUSH2 0xA6F PUSH2 0x98C JUMP JUMPDEST JUMPDEST SWAP3 SWAP2 POP POP JUMP JUMPDEST PUSH0 DUP2 SWAP1 POP SWAP3 SWAP2 POP POP JUMP JUMPDEST POP JUMP JUMPDEST PUSH0 PUSH2 0xA8E PUSH0 DUP4 PUSH2 0xA76 JUMP JUMPDEST SWAP2 POP PUSH2 0xA99 DUP3 PUSH2 0xA80 JUMP JUMPDEST PUSH0 DUP3 ADD SWAP1 POP SWAP2 SWAP1 POP JUMP JUMPDEST PUSH0 PUSH2 0xAAD DUP3 PUSH2 0xA83 JUMP JUMPDEST SWAP2 POP DUP2 SWAP1 POP SWAP2 SWAP1 POP JUMP JUMPDEST PUSH0 PUSH20 0xFFFFFFFFFFFFFFFFFFFFFFFFFFFFFFFFFFFFFFFF DUP3 AND SWAP1 POP SWAP2 SWAP1 POP JUMP JUMPDEST PUSH0 PUSH2 0xAE0 DUP3 PUSH2 0xAB7 JUMP JUMPDEST SWAP1 POP SWAP2 SWAP1 POP JUMP JUMPDEST PUSH2 0xAF0 DUP2 PUSH2 0xAD6 JUMP JUMPDEST DUP3 MSTORE POP POP JUMP JUMPDEST PUSH0 PUSH1 0x40 DUP3 ADD SWAP1 POP PUSH2 0xB09 PUSH0 DUP4 ADD DUP6 PUSH2 0xAE7 JUMP JUMPDEST PUSH2 0xB16 PUSH1 0x20 DUP4 ADD DUP5 PUSH2 0x906 JUMP JUMPDEST SWAP4 SWAP3 POP POP POP JUMP INVALID LOG2 PUSH5 0x6970667358 0x22 SLT KECCAK256 CALLF 0xE2D5 SWAP10 0xBF DIV CREATE LT DIV PUSH16 0x315C71F110C0D4045F7461A5F8DA599F PUSH16 0xD94EDD048E64736F6C634300081E0033 "
				},
				"gasEstimates": {
					"creation": {
						"codeDepositCost": "579800",
						"executionCost": "infinite",
						"totalCost": "infinite"
					},
					"external": {
						"bankCap()": "infinite",
						"deposit()": "infinite",
						"getMyBalance()": "2605",
						"getTotalBalance()": "357",
						"totalDeposits()": "2465",
						"totalWithdrawals()": "2583",
						"withdraw(uint128)": "infinite",
						"withdrawLimit()": "infinite"
					},
					"internal": {
						"_safeTransfer(address,uint128)": "infinite",
						"_updateCounters(bool)": "infinite"
					}
				},
				"methodIdentifiers": {
					"bankCap()": "ecbea24d",
					"deposit()": "d0e30db0",
					"getMyBalance()": "4c738909",
					"getTotalBalance()": "12b58349",
					"totalDeposits()": "7d882097",
					"totalWithdrawals()": "60464627",
					"withdraw(uint128)": "02387a7b",
					"withdrawLimit()": "f848d541"
				}
			},
			"storageLayout": {
				"storage": [
					{
						"astId": 11,
						"contract": "contracts/Kipu-Bank.sol:KipuBank",
						"label": "totalDeposits",
						"offset": 0,
						"slot": "0",
						"type": "t_uint32"
					},
					{
						"astId": 14,
						"contract": "contracts/Kipu-Bank.sol:KipuBank",
						"label": "totalWithdrawals",
						"offset": 4,
						"slot": "0",
						"type": "t_uint32"
					},
					{
						"astId": 19,
						"contract": "contracts/Kipu-Bank.sol:KipuBank",
						"label": "balances",
						"offset": 0,
						"slot": "1",
						"type": "t_mapping(t_address,t_uint128)"
					}
				],
				"types": {
					"t_address": {
						"encoding": "inplace",
						"label": "address",
						"numberOfBytes": "20"
					},
					"t_mapping(t_address,t_uint128)": {
						"encoding": "mapping",
						"key": "t_address",
						"label": "mapping(address => uint128)",
						"numberOfBytes": "32",
						"value": "t_uint128"
					},
					"t_uint128": {
						"encoding": "inplace",
						"label": "uint128",
						"numberOfBytes": "16"
					},
					"t_uint32": {
						"encoding": "inplace",
						"label": "uint32",
						"numberOfBytes": "4"
					}
				}
			},
			"userdoc": {
				"errors": {
					"ExceedsBankCap(uint128,uint128)": [
						{
							"notice": "-----------------------------------------------------------------------------------------------                                     ERRORES -----------------------------------------------------------------------------------------------"
						}
					]
				},
				"events": {
					"Deposited(address,uint128)": {
						"notice": "Se emitirá al depositar ETH"
					},
					"Withdrawn(address,uint128)": {
						"notice": "Se emitirá al retirar ETH"
					}
				},
				"kind": "user",
				"methods": {
					"bankCap()": {
						"notice": "Límite total de ETH que se puede almacenar en el banco"
					},
					"deposit()": {
						"notice": "Depositar ETH en el banco"
					},
					"getMyBalance()": {
						"notice": "Consultar el balance propio"
					},
					"getTotalBalance()": {
						"notice": "Consultar el balance total del banco"
					},
					"withdraw(uint128)": {
						"notice": "Retirar ETH del banco"
					},
					"withdrawLimit()": {
						"notice": "Límite de ETH que se puede retirar en una transacción"
					}
				},
				"notice": "Este contrato permite a los usuarios depositar y retirar ETH con límites de seguridad",
				"version": 1
			}
		}
	}
}