{
	"contracts/Kipu-Bank.sol": {
		"KipuBank": {
			"abi": [
				{
					"inputs": [
						{
							"internalType": "uint128",
							"name": "_bankCap",
							"type": "uint128"
						},
						{
							"internalType": "uint128",
							"name": "_withdrawLimit",
							"type": "uint128"
						}
					],
					"stateMutability": "nonpayable",
					"type": "constructor"
				},
				{
					"inputs": [
						{
							"internalType": "uint128",
							"name": "attempted",
							"type": "uint128"
						},
						{
							"internalType": "uint128",
							"name": "cap",
							"type": "uint128"
						}
					],
					"name": "ExceedsBankCap",
					"type": "error"
				},
				{
					"inputs": [
						{
							"internalType": "uint128",
							"name": "attempted",
							"type": "uint128"
						},
						{
							"internalType": "uint128",
							"name": "limit",
							"type": "uint128"
						}
					],
					"name": "ExceedsWithdrawLimit",
					"type": "error"
				},
				{
					"inputs": [
						{
							"internalType": "uint128",
							"name": "requested",
							"type": "uint128"
						},
						{
							"internalType": "uint128",
							"name": "available",
							"type": "uint128"
						}
					],
					"name": "InsufficientBalance",
					"type": "error"
				},
				{
					"inputs": [
						{
							"internalType": "address",
							"name": "to",
							"type": "address"
						},
						{
							"internalType": "uint128",
							"name": "amount",
							"type": "uint128"
						}
					],
					"name": "TransferFailed",
					"type": "error"
				},
				{
					"anonymous": false,
					"inputs": [
						{
							"indexed": true,
							"internalType": "address",
							"name": "user",
							"type": "address"
						},
						{
							"indexed": false,
							"internalType": "uint128",
							"name": "amount",
							"type": "uint128"
						}
					],
					"name": "Deposited",
					"type": "event"
				},
				{
					"anonymous": false,
					"inputs": [
						{
							"indexed": true,
							"internalType": "address",
							"name": "user",
							"type": "address"
						},
						{
							"indexed": false,
							"internalType": "uint128",
							"name": "amount",
							"type": "uint128"
						}
					],
					"name": "Withdrawn",
					"type": "event"
				},
				{
					"inputs": [],
					"name": "bankCap",
					"outputs": [
						{
							"internalType": "uint128",
							"name": "",
							"type": "uint128"
						}
					],
					"stateMutability": "view",
					"type": "function"
				},
				{
					"inputs": [],
					"name": "deposit",
					"outputs": [],
					"stateMutability": "payable",
					"type": "function"
				},
				{
					"inputs": [],
					"name": "getMyBalance",
					"outputs": [
						{
							"internalType": "uint128",
							"name": "balance",
							"type": "uint128"
						}
					],
					"stateMutability": "view",
					"type": "function"
				},
				{
					"inputs": [],
					"name": "getTotalBalance",
					"outputs": [
						{
							"internalType": "uint256",
							"name": "totalBalance",
							"type": "uint256"
						}
					],
					"stateMutability": "view",
					"type": "function"
				},
				{
					"inputs": [
						{
							"internalType": "uint128",
							"name": "amount",
							"type": "uint128"
						}
					],
					"name": "withdraw",
					"outputs": [],
					"stateMutability": "nonpayable",
					"type": "function"
				},
				{
					"inputs": [],
					"name": "withdrawLimit",
					"outputs": [
						{
							"internalType": "uint128",
							"name": "",
							"type": "uint128"
						}
					],
					"stateMutability": "view",
					"type": "function"
				}
			],
			"devdoc": {
				"author": "Santiago Cármenes",
				"kind": "dev",
				"methods": {
					"constructor": {
						"params": {
							"_bankCap": "Límite total de ETH que puede almacenar el banco",
							"_withdrawLimit": "Límite máximo por retiro en una transacción"
						}
					},
					"deposit()": {
						"details": "Respeta el límite total del banco"
					},
					"getMyBalance()": {
						"returns": {
							"balance": "Cantidad de ETH disponible para el usuario"
						}
					},
					"getTotalBalance()": {
						"returns": {
							"totalBalance": "ETH total almacenado en el contrato"
						}
					},
					"withdraw(uint128)": {
						"details": "Respeta límites de retiro y saldo disponible, aplica patrón checks-effects-interactions",
						"params": {
							"amount": "Cantidad de ETH a retirar"
						}
					}
				},
				"title": "KipuBank - Un banco simple con límites de depósito y retiro",
				"version": 1
			},
			"evm": {
				"assembly": "    /* \"contracts/Kipu-Bank.sol\":267:6466  contract KipuBank {... */\n  mstore(0x40, 0xc0)\n    /* \"contracts/Kipu-Bank.sol\":2559:2691  constructor(uint128 _bankCap, uint128 _withdrawLimit) {... */\n  callvalue\n  dup1\n  iszero\n  tag_1\n  jumpi\n  revert(0x00, 0x00)\ntag_1:\n  pop\n  mload(0x40)\n  sub(codesize, bytecodeSize)\n  dup1\n  bytecodeSize\n  dup4\n  codecopy\n  dup2\n  dup2\n  add\n  0x40\n  mstore\n  dup2\n  add\n  swap1\n  tag_2\n  swap2\n  swap1\n  tag_3\n  jump\t// in\ntag_2:\n    /* \"contracts/Kipu-Bank.sol\":2634:2642  _bankCap */\n  dup2\n    /* \"contracts/Kipu-Bank.sol\":2624:2642  bankCap = _bankCap */\n  0xffffffffffffffffffffffffffffffff\n  and\n  0x80\n  dup2\n  0xffffffffffffffffffffffffffffffff\n  and\n  dup2\n  mstore\n  pop\n  pop\n    /* \"contracts/Kipu-Bank.sol\":2669:2683  _withdrawLimit */\n  dup1\n    /* \"contracts/Kipu-Bank.sol\":2653:2683  withdrawLimit = _withdrawLimit */\n  0xffffffffffffffffffffffffffffffff\n  and\n  0xa0\n  dup2\n  0xffffffffffffffffffffffffffffffff\n  and\n  dup2\n  mstore\n  pop\n  pop\n    /* \"contracts/Kipu-Bank.sol\":2559:2691  constructor(uint128 _bankCap, uint128 _withdrawLimit) {... */\n  pop\n  pop\n    /* \"contracts/Kipu-Bank.sol\":267:6466  contract KipuBank {... */\n  jump(tag_6)\n    /* \"#utility.yul\":88:205   */\ntag_8:\n    /* \"#utility.yul\":197:198   */\n  0x00\n    /* \"#utility.yul\":194:195   */\n  0x00\n    /* \"#utility.yul\":187:199   */\n  revert\n    /* \"#utility.yul\":334:452   */\ntag_10:\n    /* \"#utility.yul\":371:378   */\n  0x00\n    /* \"#utility.yul\":411:445   */\n  0xffffffffffffffffffffffffffffffff\n    /* \"#utility.yul\":404:409   */\n  dup3\n    /* \"#utility.yul\":400:446   */\n  and\n    /* \"#utility.yul\":389:446   */\n  swap1\n  pop\n    /* \"#utility.yul\":334:452   */\n  swap2\n  swap1\n  pop\n  jump\t// out\n    /* \"#utility.yul\":458:580   */\ntag_11:\n    /* \"#utility.yul\":531:555   */\n  tag_19\n    /* \"#utility.yul\":549:554   */\n  dup2\n    /* \"#utility.yul\":531:555   */\n  tag_10\n  jump\t// in\ntag_19:\n    /* \"#utility.yul\":524:529   */\n  dup2\n    /* \"#utility.yul\":521:556   */\n  eq\n    /* \"#utility.yul\":511:574   */\n  tag_20\n  jumpi\n    /* \"#utility.yul\":570:571   */\n  0x00\n    /* \"#utility.yul\":567:568   */\n  0x00\n    /* \"#utility.yul\":560:572   */\n  revert\n    /* \"#utility.yul\":511:574   */\ntag_20:\n    /* \"#utility.yul\":458:580   */\n  pop\n  jump\t// out\n    /* \"#utility.yul\":586:729   */\ntag_12:\n    /* \"#utility.yul\":643:648   */\n  0x00\n    /* \"#utility.yul\":674:680   */\n  dup2\n    /* \"#utility.yul\":668:681   */\n  mload\n    /* \"#utility.yul\":659:681   */\n  swap1\n  pop\n    /* \"#utility.yul\":690:723   */\n  tag_22\n    /* \"#utility.yul\":717:722   */\n  dup2\n    /* \"#utility.yul\":690:723   */\n  tag_11\n  jump\t// in\ntag_22:\n    /* \"#utility.yul\":586:729   */\n  swap3\n  swap2\n  pop\n  pop\n  jump\t// out\n    /* \"#utility.yul\":735:1242   */\ntag_3:\n    /* \"#utility.yul\":814:820   */\n  0x00\n    /* \"#utility.yul\":822:828   */\n  0x00\n    /* \"#utility.yul\":871:873   */\n  0x40\n    /* \"#utility.yul\":859:868   */\n  dup4\n    /* \"#utility.yul\":850:857   */\n  dup6\n    /* \"#utility.yul\":846:869   */\n  sub\n    /* \"#utility.yul\":842:874   */\n  slt\n    /* \"#utility.yul\":839:958   */\n  iszero\n  tag_24\n  jumpi\n    /* \"#utility.yul\":877:956   */\n  tag_25\n  tag_8\n  jump\t// in\ntag_25:\n    /* \"#utility.yul\":839:958   */\ntag_24:\n    /* \"#utility.yul\":997:998   */\n  0x00\n    /* \"#utility.yul\":1022:1086   */\n  tag_26\n    /* \"#utility.yul\":1078:1085   */\n  dup6\n    /* \"#utility.yul\":1069:1075   */\n  dup3\n    /* \"#utility.yul\":1058:1067   */\n  dup7\n    /* \"#utility.yul\":1054:1076   */\n  add\n    /* \"#utility.yul\":1022:1086   */\n  tag_12\n  jump\t// in\ntag_26:\n    /* \"#utility.yul\":1012:1086   */\n  swap3\n  pop\n    /* \"#utility.yul\":968:1096   */\n  pop\n    /* \"#utility.yul\":1135:1137   */\n  0x20\n    /* \"#utility.yul\":1161:1225   */\n  tag_27\n    /* \"#utility.yul\":1217:1224   */\n  dup6\n    /* \"#utility.yul\":1208:1214   */\n  dup3\n    /* \"#utility.yul\":1197:1206   */\n  dup7\n    /* \"#utility.yul\":1193:1215   */\n  add\n    /* \"#utility.yul\":1161:1225   */\n  tag_12\n  jump\t// in\ntag_27:\n    /* \"#utility.yul\":1151:1225   */\n  swap2\n  pop\n    /* \"#utility.yul\":1106:1235   */\n  pop\n    /* \"#utility.yul\":735:1242   */\n  swap3\n  pop\n  swap3\n  swap1\n  pop\n  jump\t// out\n    /* \"contracts/Kipu-Bank.sol\":267:6466  contract KipuBank {... */\ntag_6:\n  mload(0x80)\n  mload(0xa0)\n  codecopy(0x00, dataOffset(sub_0), dataSize(sub_0))\n  0x00\n  assignImmutable(\"0xe4b1702d9298fee62dfeccc57d322a463ad55ca201256d01f62b45b2e1c21c10\")\n  0x00\n  assignImmutable(\"0xceebf77a833b30520287ddd9478ff51abbdffa30aa90a8d655dba0e8a79ce0c1\")\n  return(0x00, dataSize(sub_0))\nstop\n\nsub_0: assembly {\n        /* \"contracts/Kipu-Bank.sol\":267:6466  contract KipuBank {... */\n      mstore(0x40, 0x80)\n      jumpi(tag_1, lt(calldatasize, 0x04))\n      shr(0xe0, calldataload(0x00))\n      dup1\n      0x02387a7b\n      eq\n      tag_2\n      jumpi\n      dup1\n      0x12b58349\n      eq\n      tag_3\n      jumpi\n      dup1\n      0x4c738909\n      eq\n      tag_4\n      jumpi\n      dup1\n      0xd0e30db0\n      eq\n      tag_5\n      jumpi\n      dup1\n      0xecbea24d\n      eq\n      tag_6\n      jumpi\n      dup1\n      0xf848d541\n      eq\n      tag_7\n      jumpi\n    tag_1:\n      revert(0x00, 0x00)\n        /* \"contracts/Kipu-Bank.sol\":4657:4976  function withdraw(uint128 amount)... */\n    tag_2:\n      callvalue\n      dup1\n      iszero\n      tag_8\n      jumpi\n      revert(0x00, 0x00)\n    tag_8:\n      pop\n      tag_9\n      0x04\n      dup1\n      calldatasize\n      sub\n      dup2\n      add\n      swap1\n      tag_10\n      swap2\n      swap1\n      tag_11\n      jump\t// in\n    tag_10:\n      tag_12\n      jump\t// in\n    tag_9:\n      stop\n        /* \"contracts/Kipu-Bank.sol\":5335:5454  function getTotalBalance() external view returns (uint256 totalBalance) {... */\n    tag_3:\n      callvalue\n      dup1\n      iszero\n      tag_13\n      jumpi\n      revert(0x00, 0x00)\n    tag_13:\n      pop\n      tag_14\n      tag_15\n      jump\t// in\n    tag_14:\n      mload(0x40)\n      tag_16\n      swap2\n      swap1\n      tag_17\n      jump\t// in\n    tag_16:\n      mload(0x40)\n      dup1\n      swap2\n      sub\n      swap1\n      return\n        /* \"contracts/Kipu-Bank.sol\":5097:5207  function getMyBalance() external view returns (uint128 balance) {... */\n    tag_4:\n      callvalue\n      dup1\n      iszero\n      tag_18\n      jumpi\n      revert(0x00, 0x00)\n    tag_18:\n      pop\n      tag_19\n      tag_20\n      jump\t// in\n    tag_19:\n      mload(0x40)\n      tag_21\n      swap2\n      swap1\n      tag_22\n      jump\t// in\n    tag_21:\n      mload(0x40)\n      dup1\n      swap2\n      sub\n      swap1\n      return\n        /* \"contracts/Kipu-Bank.sol\":4203:4457  function deposit() external payable withinCap(uint128(msg.value)) {... */\n    tag_5:\n      tag_23\n      tag_24\n      jump\t// in\n    tag_23:\n      stop\n        /* \"contracts/Kipu-Bank.sol\":367:399  uint128 public immutable bankCap */\n    tag_6:\n      callvalue\n      dup1\n      iszero\n      tag_25\n      jumpi\n      revert(0x00, 0x00)\n    tag_25:\n      pop\n      tag_26\n      tag_27\n      jump\t// in\n    tag_26:\n      mload(0x40)\n      tag_28\n      swap2\n      swap1\n      tag_22\n      jump\t// in\n    tag_28:\n      mload(0x40)\n      dup1\n      swap2\n      sub\n      swap1\n      return\n        /* \"contracts/Kipu-Bank.sol\":481:519  uint128 public immutable withdrawLimit */\n    tag_7:\n      callvalue\n      dup1\n      iszero\n      tag_29\n      jumpi\n      revert(0x00, 0x00)\n    tag_29:\n      pop\n      tag_30\n      tag_31\n      jump\t// in\n    tag_30:\n      mload(0x40)\n      tag_32\n      swap2\n      swap1\n      tag_22\n      jump\t// in\n    tag_32:\n      mload(0x40)\n      dup1\n      swap2\n      sub\n      swap1\n      return\n        /* \"contracts/Kipu-Bank.sol\":4657:4976  function withdraw(uint128 amount)... */\n    tag_12:\n        /* \"contracts/Kipu-Bank.sol\":4738:4744  amount */\n      dup1\n        /* \"contracts/Kipu-Bank.sol\":3448:3461  withdrawLimit */\n      immutable(\"0xe4b1702d9298fee62dfeccc57d322a463ad55ca201256d01f62b45b2e1c21c10\")\n        /* \"contracts/Kipu-Bank.sol\":3439:3461  amount > withdrawLimit */\n      0xffffffffffffffffffffffffffffffff\n      and\n        /* \"contracts/Kipu-Bank.sol\":3439:3445  amount */\n      dup2\n        /* \"contracts/Kipu-Bank.sol\":3439:3461  amount > withdrawLimit */\n      0xffffffffffffffffffffffffffffffff\n      and\n      gt\n        /* \"contracts/Kipu-Bank.sol\":3435:3540  if (amount > withdrawLimit) {... */\n      iszero\n      tag_34\n      jumpi\n        /* \"contracts/Kipu-Bank.sol\":3506:3512  amount */\n      dup1\n        /* \"contracts/Kipu-Bank.sol\":3514:3527  withdrawLimit */\n      immutable(\"0xe4b1702d9298fee62dfeccc57d322a463ad55ca201256d01f62b45b2e1c21c10\")\n        /* \"contracts/Kipu-Bank.sol\":3485:3528  ExceedsWithdrawLimit(amount, withdrawLimit) */\n      mload(0x40)\n      0xd272831700000000000000000000000000000000000000000000000000000000\n      dup2\n      mstore\n      0x04\n      add\n      tag_35\n      swap3\n      swap2\n      swap1\n      tag_36\n      jump\t// in\n    tag_35:\n      mload(0x40)\n      dup1\n      swap2\n      sub\n      swap1\n      revert\n        /* \"contracts/Kipu-Bank.sol\":3435:3540  if (amount > withdrawLimit) {... */\n    tag_34:\n        /* \"contracts/Kipu-Bank.sol\":4776:4782  amount */\n      dup2\n        /* \"contracts/Kipu-Bank.sol\":3702:3710  balances */\n      0x00\n        /* \"contracts/Kipu-Bank.sol\":3702:3722  balances[msg.sender] */\n      0x00\n        /* \"contracts/Kipu-Bank.sol\":3711:3721  msg.sender */\n      caller\n        /* \"contracts/Kipu-Bank.sol\":3702:3722  balances[msg.sender] */\n      0xffffffffffffffffffffffffffffffffffffffff\n      and\n      0xffffffffffffffffffffffffffffffffffffffff\n      and\n      dup2\n      mstore\n      0x20\n      add\n      swap1\n      dup2\n      mstore\n      0x20\n      add\n      0x00\n      keccak256\n      0x00\n      swap1\n      sload\n      swap1\n      0x0100\n      exp\n      swap1\n      div\n      0xffffffffffffffffffffffffffffffff\n      and\n        /* \"contracts/Kipu-Bank.sol\":3693:3722  amount > balances[msg.sender] */\n      0xffffffffffffffffffffffffffffffff\n      and\n        /* \"contracts/Kipu-Bank.sol\":3693:3699  amount */\n      dup2\n        /* \"contracts/Kipu-Bank.sol\":3693:3722  amount > balances[msg.sender] */\n      0xffffffffffffffffffffffffffffffff\n      and\n      gt\n        /* \"contracts/Kipu-Bank.sol\":3689:3807  if (amount > balances[msg.sender]) {... */\n      iszero\n      tag_38\n      jumpi\n        /* \"contracts/Kipu-Bank.sol\":3766:3772  amount */\n      dup1\n        /* \"contracts/Kipu-Bank.sol\":3774:3782  balances */\n      0x00\n        /* \"contracts/Kipu-Bank.sol\":3774:3794  balances[msg.sender] */\n      0x00\n        /* \"contracts/Kipu-Bank.sol\":3783:3793  msg.sender */\n      caller\n        /* \"contracts/Kipu-Bank.sol\":3774:3794  balances[msg.sender] */\n      0xffffffffffffffffffffffffffffffffffffffff\n      and\n      0xffffffffffffffffffffffffffffffffffffffff\n      and\n      dup2\n      mstore\n      0x20\n      add\n      swap1\n      dup2\n      mstore\n      0x20\n      add\n      0x00\n      keccak256\n      0x00\n      swap1\n      sload\n      swap1\n      0x0100\n      exp\n      swap1\n      div\n      0xffffffffffffffffffffffffffffffff\n      and\n        /* \"contracts/Kipu-Bank.sol\":3746:3795  InsufficientBalance(amount, balances[msg.sender]) */\n      mload(0x40)\n      0xb61caeea00000000000000000000000000000000000000000000000000000000\n      dup2\n      mstore\n      0x04\n      add\n      tag_39\n      swap3\n      swap2\n      swap1\n      tag_36\n      jump\t// in\n    tag_39:\n      mload(0x40)\n      dup1\n      swap2\n      sub\n      swap1\n      revert\n        /* \"contracts/Kipu-Bank.sol\":3689:3807  if (amount > balances[msg.sender]) {... */\n    tag_38:\n        /* \"contracts/Kipu-Bank.sol\":4824:4830  amount */\n      dup3\n        /* \"contracts/Kipu-Bank.sol\":4800:4808  balances */\n      0x00\n        /* \"contracts/Kipu-Bank.sol\":4800:4820  balances[msg.sender] */\n      0x00\n        /* \"contracts/Kipu-Bank.sol\":4809:4819  msg.sender */\n      caller\n        /* \"contracts/Kipu-Bank.sol\":4800:4820  balances[msg.sender] */\n      0xffffffffffffffffffffffffffffffffffffffff\n      and\n      0xffffffffffffffffffffffffffffffffffffffff\n      and\n      dup2\n      mstore\n      0x20\n      add\n      swap1\n      dup2\n      mstore\n      0x20\n      add\n      0x00\n      keccak256\n      0x00\n        /* \"contracts/Kipu-Bank.sol\":4800:4830  balances[msg.sender] -= amount */\n      dup3\n      dup3\n      dup3\n      swap1\n      sload\n      swap1\n      0x0100\n      exp\n      swap1\n      div\n      0xffffffffffffffffffffffffffffffff\n      and\n      tag_41\n      swap2\n      swap1\n      tag_42\n      jump\t// in\n    tag_41:\n      swap3\n      pop\n      0x0100\n      exp\n      dup2\n      sload\n      dup2\n      0xffffffffffffffffffffffffffffffff\n      mul\n      not\n      and\n      swap1\n      dup4\n      0xffffffffffffffffffffffffffffffff\n      and\n      mul\n      or\n      swap1\n      sstore\n      pop\n        /* \"contracts/Kipu-Bank.sol\":4841:4875  _updateCounters(msg.sender, false) */\n      tag_43\n        /* \"contracts/Kipu-Bank.sol\":4857:4867  msg.sender */\n      caller\n        /* \"contracts/Kipu-Bank.sol\":4869:4874  false */\n      0x00\n        /* \"contracts/Kipu-Bank.sol\":4841:4856  _updateCounters */\n      tag_44\n        /* \"contracts/Kipu-Bank.sol\":4841:4875  _updateCounters(msg.sender, false) */\n      jump\t// in\n    tag_43:\n        /* \"contracts/Kipu-Bank.sol\":4888:4921  _safeTransfer(msg.sender, amount) */\n      tag_45\n        /* \"contracts/Kipu-Bank.sol\":4902:4912  msg.sender */\n      caller\n        /* \"contracts/Kipu-Bank.sol\":4914:4920  amount */\n      dup5\n        /* \"contracts/Kipu-Bank.sol\":4888:4901  _safeTransfer */\n      tag_46\n        /* \"contracts/Kipu-Bank.sol\":4888:4921  _safeTransfer(msg.sender, amount) */\n      jump\t// in\n    tag_45:\n        /* \"contracts/Kipu-Bank.sol\":4949:4959  msg.sender */\n      caller\n        /* \"contracts/Kipu-Bank.sol\":4939:4968  Withdrawn(msg.sender, amount) */\n      0xffffffffffffffffffffffffffffffffffffffff\n      and\n      0xab48b3d59a240196dc5bdd7f7a638fca310f8194c7d350c3dd7765861311ddf8\n        /* \"contracts/Kipu-Bank.sol\":4961:4967  amount */\n      dup5\n        /* \"contracts/Kipu-Bank.sol\":4939:4968  Withdrawn(msg.sender, amount) */\n      mload(0x40)\n      tag_47\n      swap2\n      swap1\n      tag_22\n      jump\t// in\n    tag_47:\n      mload(0x40)\n      dup1\n      swap2\n      sub\n      swap1\n      log2\n        /* \"contracts/Kipu-Bank.sol\":3550:3551  _ */\n      pop\n        /* \"contracts/Kipu-Bank.sol\":4657:4976  function withdraw(uint128 amount)... */\n      pop\n      pop\n      jump\t// out\n        /* \"contracts/Kipu-Bank.sol\":5335:5454  function getTotalBalance() external view returns (uint256 totalBalance) {... */\n    tag_15:\n        /* \"contracts/Kipu-Bank.sol\":5385:5405  uint256 totalBalance */\n      0x00\n        /* \"contracts/Kipu-Bank.sol\":5425:5446  address(this).balance */\n      selfbalance\n        /* \"contracts/Kipu-Bank.sol\":5418:5446  return address(this).balance */\n      swap1\n      pop\n        /* \"contracts/Kipu-Bank.sol\":5335:5454  function getTotalBalance() external view returns (uint256 totalBalance) {... */\n      swap1\n      jump\t// out\n        /* \"contracts/Kipu-Bank.sol\":5097:5207  function getMyBalance() external view returns (uint128 balance) {... */\n    tag_20:\n        /* \"contracts/Kipu-Bank.sol\":5144:5159  uint128 balance */\n      0x00\n        /* \"contracts/Kipu-Bank.sol\":5179:5187  balances */\n      0x00\n        /* \"contracts/Kipu-Bank.sol\":5179:5199  balances[msg.sender] */\n      0x00\n        /* \"contracts/Kipu-Bank.sol\":5188:5198  msg.sender */\n      caller\n        /* \"contracts/Kipu-Bank.sol\":5179:5199  balances[msg.sender] */\n      0xffffffffffffffffffffffffffffffffffffffff\n      and\n      0xffffffffffffffffffffffffffffffffffffffff\n      and\n      dup2\n      mstore\n      0x20\n      add\n      swap1\n      dup2\n      mstore\n      0x20\n      add\n      0x00\n      keccak256\n      0x00\n      swap1\n      sload\n      swap1\n      0x0100\n      exp\n      swap1\n      div\n      0xffffffffffffffffffffffffffffffff\n      and\n        /* \"contracts/Kipu-Bank.sol\":5172:5199  return balances[msg.sender] */\n      swap1\n      pop\n        /* \"contracts/Kipu-Bank.sol\":5097:5207  function getMyBalance() external view returns (uint128 balance) {... */\n      swap1\n      jump\t// out\n        /* \"contracts/Kipu-Bank.sol\":4203:4457  function deposit() external payable withinCap(uint128(msg.value)) {... */\n    tag_24:\n        /* \"contracts/Kipu-Bank.sol\":4257:4266  msg.value */\n      callvalue\n        /* \"contracts/Kipu-Bank.sol\":3094:3114  uint128 totalBalance */\n      0x00\n        /* \"contracts/Kipu-Bank.sol\":3125:3146  address(this).balance */\n      selfbalance\n        /* \"contracts/Kipu-Bank.sol\":3094:3147  uint128 totalBalance = uint128(address(this).balance) */\n      swap1\n      pop\n        /* \"contracts/Kipu-Bank.sol\":3186:3193  bankCap */\n      immutable(\"0xceebf77a833b30520287ddd9478ff51abbdffa30aa90a8d655dba0e8a79ce0c1\")\n        /* \"contracts/Kipu-Bank.sol\":3162:3193  totalBalance + amount > bankCap */\n      0xffffffffffffffffffffffffffffffff\n      and\n        /* \"contracts/Kipu-Bank.sol\":3177:3183  amount */\n      dup3\n        /* \"contracts/Kipu-Bank.sol\":3162:3174  totalBalance */\n      dup3\n        /* \"contracts/Kipu-Bank.sol\":3162:3183  totalBalance + amount */\n      tag_51\n      swap2\n      swap1\n      tag_52\n      jump\t// in\n    tag_51:\n        /* \"contracts/Kipu-Bank.sol\":3162:3193  totalBalance + amount > bankCap */\n      0xffffffffffffffffffffffffffffffff\n      and\n      gt\n        /* \"contracts/Kipu-Bank.sol\":3158:3275  if (totalBalance + amount > bankCap) {... */\n      iszero\n      tag_53\n      jumpi\n        /* \"contracts/Kipu-Bank.sol\":3247:3253  amount */\n      dup2\n        /* \"contracts/Kipu-Bank.sol\":3232:3244  totalBalance */\n      dup2\n        /* \"contracts/Kipu-Bank.sol\":3232:3253  totalBalance + amount */\n      tag_54\n      swap2\n      swap1\n      tag_52\n      jump\t// in\n    tag_54:\n        /* \"contracts/Kipu-Bank.sol\":3255:3262  bankCap */\n      immutable(\"0xceebf77a833b30520287ddd9478ff51abbdffa30aa90a8d655dba0e8a79ce0c1\")\n        /* \"contracts/Kipu-Bank.sol\":3217:3263  ExceedsBankCap(totalBalance + amount, bankCap) */\n      mload(0x40)\n      0xbc42f84600000000000000000000000000000000000000000000000000000000\n      dup2\n      mstore\n      0x04\n      add\n      tag_55\n      swap3\n      swap2\n      swap1\n      tag_36\n      jump\t// in\n    tag_55:\n      mload(0x40)\n      dup1\n      swap2\n      sub\n      swap1\n      revert\n        /* \"contracts/Kipu-Bank.sol\":3158:3275  if (totalBalance + amount > bankCap) {... */\n    tag_53:\n        /* \"contracts/Kipu-Bank.sol\":4280:4294  uint128 amount */\n      0x00\n        /* \"contracts/Kipu-Bank.sol\":4305:4314  msg.value */\n      callvalue\n        /* \"contracts/Kipu-Bank.sol\":4280:4315  uint128 amount = uint128(msg.value) */\n      swap1\n      pop\n        /* \"contracts/Kipu-Bank.sol\":4352:4358  amount */\n      dup1\n        /* \"contracts/Kipu-Bank.sol\":4328:4336  balances */\n      0x00\n        /* \"contracts/Kipu-Bank.sol\":4328:4348  balances[msg.sender] */\n      0x00\n        /* \"contracts/Kipu-Bank.sol\":4337:4347  msg.sender */\n      caller\n        /* \"contracts/Kipu-Bank.sol\":4328:4348  balances[msg.sender] */\n      0xffffffffffffffffffffffffffffffffffffffff\n      and\n      0xffffffffffffffffffffffffffffffffffffffff\n      and\n      dup2\n      mstore\n      0x20\n      add\n      swap1\n      dup2\n      mstore\n      0x20\n      add\n      0x00\n      keccak256\n      0x00\n        /* \"contracts/Kipu-Bank.sol\":4328:4358  balances[msg.sender] += amount */\n      dup3\n      dup3\n      dup3\n      swap1\n      sload\n      swap1\n      0x0100\n      exp\n      swap1\n      div\n      0xffffffffffffffffffffffffffffffff\n      and\n      tag_57\n      swap2\n      swap1\n      tag_52\n      jump\t// in\n    tag_57:\n      swap3\n      pop\n      0x0100\n      exp\n      dup2\n      sload\n      dup2\n      0xffffffffffffffffffffffffffffffff\n      mul\n      not\n      and\n      swap1\n      dup4\n      0xffffffffffffffffffffffffffffffff\n      and\n      mul\n      or\n      swap1\n      sstore\n      pop\n        /* \"contracts/Kipu-Bank.sol\":4369:4402  _updateCounters(msg.sender, true) */\n      tag_58\n        /* \"contracts/Kipu-Bank.sol\":4385:4395  msg.sender */\n      caller\n        /* \"contracts/Kipu-Bank.sol\":4397:4401  true */\n      0x01\n        /* \"contracts/Kipu-Bank.sol\":4369:4384  _updateCounters */\n      tag_44\n        /* \"contracts/Kipu-Bank.sol\":4369:4402  _updateCounters(msg.sender, true) */\n      jump\t// in\n    tag_58:\n        /* \"contracts/Kipu-Bank.sol\":4430:4440  msg.sender */\n      caller\n        /* \"contracts/Kipu-Bank.sol\":4420:4449  Deposited(msg.sender, amount) */\n      0xffffffffffffffffffffffffffffffffffffffff\n      and\n      0xadb1a06aea2cd2ff20eac971640a5eb7d687df3e3a897be2f334836494958a47\n        /* \"contracts/Kipu-Bank.sol\":4442:4448  amount */\n      dup3\n        /* \"contracts/Kipu-Bank.sol\":4420:4449  Deposited(msg.sender, amount) */\n      mload(0x40)\n      tag_59\n      swap2\n      swap1\n      tag_22\n      jump\t// in\n    tag_59:\n      mload(0x40)\n      dup1\n      swap2\n      sub\n      swap1\n      log2\n        /* \"contracts/Kipu-Bank.sol\":4269:4457  {... */\n      pop\n        /* \"contracts/Kipu-Bank.sol\":3083:3294  {... */\n      pop\n        /* \"contracts/Kipu-Bank.sol\":4203:4457  function deposit() external payable withinCap(uint128(msg.value)) {... */\n      pop\n      jump\t// out\n        /* \"contracts/Kipu-Bank.sol\":367:399  uint128 public immutable bankCap */\n    tag_27:\n      immutable(\"0xceebf77a833b30520287ddd9478ff51abbdffa30aa90a8d655dba0e8a79ce0c1\")\n      dup2\n      jump\t// out\n        /* \"contracts/Kipu-Bank.sol\":481:519  uint128 public immutable withdrawLimit */\n    tag_31:\n      immutable(\"0xe4b1702d9298fee62dfeccc57d322a463ad55ca201256d01f62b45b2e1c21c10\")\n      dup2\n      jump\t// out\n        /* \"contracts/Kipu-Bank.sol\":5914:6117  function _updateCounters(address user, bool isDeposit) private {... */\n    tag_44:\n        /* \"contracts/Kipu-Bank.sol\":5992:6001  isDeposit */\n      dup1\n        /* \"contracts/Kipu-Bank.sol\":5988:6110  if (isDeposit) {... */\n      iszero\n      tag_61\n      jumpi\n        /* \"contracts/Kipu-Bank.sol\":6040:6041  1 */\n      0x01\n        /* \"contracts/Kipu-Bank.sol\":6018:6030  depositCount */\n      dup1\n        /* \"contracts/Kipu-Bank.sol\":6018:6036  depositCount[user] */\n      0x00\n        /* \"contracts/Kipu-Bank.sol\":6031:6035  user */\n      dup5\n        /* \"contracts/Kipu-Bank.sol\":6018:6036  depositCount[user] */\n      0xffffffffffffffffffffffffffffffffffffffff\n      and\n      0xffffffffffffffffffffffffffffffffffffffff\n      and\n      dup2\n      mstore\n      0x20\n      add\n      swap1\n      dup2\n      mstore\n      0x20\n      add\n      0x00\n      keccak256\n      0x00\n        /* \"contracts/Kipu-Bank.sol\":6018:6041  depositCount[user] += 1 */\n      dup3\n      dup3\n      dup3\n      swap1\n      sload\n      swap1\n      0x0100\n      exp\n      swap1\n      div\n      0xffffffff\n      and\n      tag_62\n      swap2\n      swap1\n      tag_63\n      jump\t// in\n    tag_62:\n      swap3\n      pop\n      0x0100\n      exp\n      dup2\n      sload\n      dup2\n      0xffffffff\n      mul\n      not\n      and\n      swap1\n      dup4\n      0xffffffff\n      and\n      mul\n      or\n      swap1\n      sstore\n      pop\n        /* \"contracts/Kipu-Bank.sol\":5988:6110  if (isDeposit) {... */\n      jump(tag_64)\n    tag_61:\n        /* \"contracts/Kipu-Bank.sol\":6097:6098  1 */\n      0x01\n        /* \"contracts/Kipu-Bank.sol\":6074:6087  withdrawCount */\n      0x02\n        /* \"contracts/Kipu-Bank.sol\":6074:6093  withdrawCount[user] */\n      0x00\n        /* \"contracts/Kipu-Bank.sol\":6088:6092  user */\n      dup5\n        /* \"contracts/Kipu-Bank.sol\":6074:6093  withdrawCount[user] */\n      0xffffffffffffffffffffffffffffffffffffffff\n      and\n      0xffffffffffffffffffffffffffffffffffffffff\n      and\n      dup2\n      mstore\n      0x20\n      add\n      swap1\n      dup2\n      mstore\n      0x20\n      add\n      0x00\n      keccak256\n      0x00\n        /* \"contracts/Kipu-Bank.sol\":6074:6098  withdrawCount[user] += 1 */\n      dup3\n      dup3\n      dup3\n      swap1\n      sload\n      swap1\n      0x0100\n      exp\n      swap1\n      div\n      0xffffffff\n      and\n      tag_65\n      swap2\n      swap1\n      tag_63\n      jump\t// in\n    tag_65:\n      swap3\n      pop\n      0x0100\n      exp\n      dup2\n      sload\n      dup2\n      0xffffffff\n      mul\n      not\n      and\n      swap1\n      dup4\n      0xffffffff\n      and\n      mul\n      or\n      swap1\n      sstore\n      pop\n        /* \"contracts/Kipu-Bank.sol\":5988:6110  if (isDeposit) {... */\n    tag_64:\n        /* \"contracts/Kipu-Bank.sol\":5914:6117  function _updateCounters(address user, bool isDeposit) private {... */\n      pop\n      pop\n      jump\t// out\n        /* \"contracts/Kipu-Bank.sol\":6262:6463  function _safeTransfer(address to, uint128 amount) private {... */\n    tag_46:\n        /* \"contracts/Kipu-Bank.sol\":6333:6342  bool sent */\n      0x00\n        /* \"contracts/Kipu-Bank.sol\":6348:6350  to */\n      dup3\n        /* \"contracts/Kipu-Bank.sol\":6348:6355  to.call */\n      0xffffffffffffffffffffffffffffffffffffffff\n      and\n        /* \"contracts/Kipu-Bank.sol\":6363:6369  amount */\n      dup3\n        /* \"contracts/Kipu-Bank.sol\":6348:6374  to.call{value: amount}(\"\") */\n      0xffffffffffffffffffffffffffffffff\n      and\n      mload(0x40)\n      tag_67\n      swap1\n      tag_68\n      jump\t// in\n    tag_67:\n      0x00\n      mload(0x40)\n      dup1\n      dup4\n      sub\n      dup2\n      dup6\n      dup8\n      gas\n      call\n      swap3\n      pop\n      pop\n      pop\n      returndatasize\n      dup1\n      0x00\n      dup2\n      eq\n      tag_71\n      jumpi\n      mload(0x40)\n      swap2\n      pop\n      and(add(returndatasize, 0x3f), not(0x1f))\n      dup3\n      add\n      0x40\n      mstore\n      returndatasize\n      dup3\n      mstore\n      returndatasize\n      0x00\n      0x20\n      dup5\n      add\n      returndatacopy\n      jump(tag_70)\n    tag_71:\n      0x60\n      swap2\n      pop\n    tag_70:\n      pop\n        /* \"contracts/Kipu-Bank.sol\":6332:6374  (bool sent, ) = to.call{value: amount}(\"\") */\n      pop\n      swap1\n      pop\n        /* \"contracts/Kipu-Bank.sol\":6390:6394  sent */\n      dup1\n        /* \"contracts/Kipu-Bank.sol\":6385:6456  if (!sent) {... */\n      tag_72\n      jumpi\n        /* \"contracts/Kipu-Bank.sol\":6433:6435  to */\n      dup3\n        /* \"contracts/Kipu-Bank.sol\":6437:6443  amount */\n      dup3\n        /* \"contracts/Kipu-Bank.sol\":6418:6444  TransferFailed(to, amount) */\n      mload(0x40)\n      0x947fba8b00000000000000000000000000000000000000000000000000000000\n      dup2\n      mstore\n      0x04\n      add\n      tag_73\n      swap3\n      swap2\n      swap1\n      tag_74\n      jump\t// in\n    tag_73:\n      mload(0x40)\n      dup1\n      swap2\n      sub\n      swap1\n      revert\n        /* \"contracts/Kipu-Bank.sol\":6385:6456  if (!sent) {... */\n    tag_72:\n        /* \"contracts/Kipu-Bank.sol\":6321:6463  {... */\n      pop\n        /* \"contracts/Kipu-Bank.sol\":6262:6463  function _safeTransfer(address to, uint128 amount) private {... */\n      pop\n      pop\n      jump\t// out\n        /* \"#utility.yul\":88:205   */\n    tag_76:\n        /* \"#utility.yul\":197:198   */\n      0x00\n        /* \"#utility.yul\":194:195   */\n      0x00\n        /* \"#utility.yul\":187:199   */\n      revert\n        /* \"#utility.yul\":334:452   */\n    tag_78:\n        /* \"#utility.yul\":371:378   */\n      0x00\n        /* \"#utility.yul\":411:445   */\n      0xffffffffffffffffffffffffffffffff\n        /* \"#utility.yul\":404:409   */\n      dup3\n        /* \"#utility.yul\":400:446   */\n      and\n        /* \"#utility.yul\":389:446   */\n      swap1\n      pop\n        /* \"#utility.yul\":334:452   */\n      swap2\n      swap1\n      pop\n      jump\t// out\n        /* \"#utility.yul\":458:580   */\n    tag_79:\n        /* \"#utility.yul\":531:555   */\n      tag_98\n        /* \"#utility.yul\":549:554   */\n      dup2\n        /* \"#utility.yul\":531:555   */\n      tag_78\n      jump\t// in\n    tag_98:\n        /* \"#utility.yul\":524:529   */\n      dup2\n        /* \"#utility.yul\":521:556   */\n      eq\n        /* \"#utility.yul\":511:574   */\n      tag_99\n      jumpi\n        /* \"#utility.yul\":570:571   */\n      0x00\n        /* \"#utility.yul\":567:568   */\n      0x00\n        /* \"#utility.yul\":560:572   */\n      revert\n        /* \"#utility.yul\":511:574   */\n    tag_99:\n        /* \"#utility.yul\":458:580   */\n      pop\n      jump\t// out\n        /* \"#utility.yul\":586:725   */\n    tag_80:\n        /* \"#utility.yul\":632:637   */\n      0x00\n        /* \"#utility.yul\":670:676   */\n      dup2\n        /* \"#utility.yul\":657:677   */\n      calldataload\n        /* \"#utility.yul\":648:677   */\n      swap1\n      pop\n        /* \"#utility.yul\":686:719   */\n      tag_101\n        /* \"#utility.yul\":713:718   */\n      dup2\n        /* \"#utility.yul\":686:719   */\n      tag_79\n      jump\t// in\n    tag_101:\n        /* \"#utility.yul\":586:725   */\n      swap3\n      swap2\n      pop\n      pop\n      jump\t// out\n        /* \"#utility.yul\":731:1060   */\n    tag_11:\n        /* \"#utility.yul\":790:796   */\n      0x00\n        /* \"#utility.yul\":839:841   */\n      0x20\n        /* \"#utility.yul\":827:836   */\n      dup3\n        /* \"#utility.yul\":818:825   */\n      dup5\n        /* \"#utility.yul\":814:837   */\n      sub\n        /* \"#utility.yul\":810:842   */\n      slt\n        /* \"#utility.yul\":807:926   */\n      iszero\n      tag_103\n      jumpi\n        /* \"#utility.yul\":845:924   */\n      tag_104\n      tag_76\n      jump\t// in\n    tag_104:\n        /* \"#utility.yul\":807:926   */\n    tag_103:\n        /* \"#utility.yul\":965:966   */\n      0x00\n        /* \"#utility.yul\":990:1043   */\n      tag_105\n        /* \"#utility.yul\":1035:1042   */\n      dup5\n        /* \"#utility.yul\":1026:1032   */\n      dup3\n        /* \"#utility.yul\":1015:1024   */\n      dup6\n        /* \"#utility.yul\":1011:1033   */\n      add\n        /* \"#utility.yul\":990:1043   */\n      tag_80\n      jump\t// in\n    tag_105:\n        /* \"#utility.yul\":980:1043   */\n      swap2\n      pop\n        /* \"#utility.yul\":936:1053   */\n      pop\n        /* \"#utility.yul\":731:1060   */\n      swap3\n      swap2\n      pop\n      pop\n      jump\t// out\n        /* \"#utility.yul\":1066:1143   */\n    tag_81:\n        /* \"#utility.yul\":1103:1110   */\n      0x00\n        /* \"#utility.yul\":1132:1137   */\n      dup2\n        /* \"#utility.yul\":1121:1137   */\n      swap1\n      pop\n        /* \"#utility.yul\":1066:1143   */\n      swap2\n      swap1\n      pop\n      jump\t// out\n        /* \"#utility.yul\":1149:1267   */\n    tag_82:\n        /* \"#utility.yul\":1236:1260   */\n      tag_108\n        /* \"#utility.yul\":1254:1259   */\n      dup2\n        /* \"#utility.yul\":1236:1260   */\n      tag_81\n      jump\t// in\n    tag_108:\n        /* \"#utility.yul\":1231:1234   */\n      dup3\n        /* \"#utility.yul\":1224:1261   */\n      mstore\n        /* \"#utility.yul\":1149:1267   */\n      pop\n      pop\n      jump\t// out\n        /* \"#utility.yul\":1273:1495   */\n    tag_17:\n        /* \"#utility.yul\":1366:1370   */\n      0x00\n        /* \"#utility.yul\":1404:1406   */\n      0x20\n        /* \"#utility.yul\":1393:1402   */\n      dup3\n        /* \"#utility.yul\":1389:1407   */\n      add\n        /* \"#utility.yul\":1381:1407   */\n      swap1\n      pop\n        /* \"#utility.yul\":1417:1488   */\n      tag_110\n        /* \"#utility.yul\":1485:1486   */\n      0x00\n        /* \"#utility.yul\":1474:1483   */\n      dup4\n        /* \"#utility.yul\":1470:1487   */\n      add\n        /* \"#utility.yul\":1461:1467   */\n      dup5\n        /* \"#utility.yul\":1417:1488   */\n      tag_82\n      jump\t// in\n    tag_110:\n        /* \"#utility.yul\":1273:1495   */\n      swap3\n      swap2\n      pop\n      pop\n      jump\t// out\n        /* \"#utility.yul\":1501:1619   */\n    tag_83:\n        /* \"#utility.yul\":1588:1612   */\n      tag_112\n        /* \"#utility.yul\":1606:1611   */\n      dup2\n        /* \"#utility.yul\":1588:1612   */\n      tag_78\n      jump\t// in\n    tag_112:\n        /* \"#utility.yul\":1583:1586   */\n      dup3\n        /* \"#utility.yul\":1576:1613   */\n      mstore\n        /* \"#utility.yul\":1501:1619   */\n      pop\n      pop\n      jump\t// out\n        /* \"#utility.yul\":1625:1847   */\n    tag_22:\n        /* \"#utility.yul\":1718:1722   */\n      0x00\n        /* \"#utility.yul\":1756:1758   */\n      0x20\n        /* \"#utility.yul\":1745:1754   */\n      dup3\n        /* \"#utility.yul\":1741:1759   */\n      add\n        /* \"#utility.yul\":1733:1759   */\n      swap1\n      pop\n        /* \"#utility.yul\":1769:1840   */\n      tag_114\n        /* \"#utility.yul\":1837:1838   */\n      0x00\n        /* \"#utility.yul\":1826:1835   */\n      dup4\n        /* \"#utility.yul\":1822:1839   */\n      add\n        /* \"#utility.yul\":1813:1819   */\n      dup5\n        /* \"#utility.yul\":1769:1840   */\n      tag_83\n      jump\t// in\n    tag_114:\n        /* \"#utility.yul\":1625:1847   */\n      swap3\n      swap2\n      pop\n      pop\n      jump\t// out\n        /* \"#utility.yul\":1853:2185   */\n    tag_36:\n        /* \"#utility.yul\":1974:1978   */\n      0x00\n        /* \"#utility.yul\":2012:2014   */\n      0x40\n        /* \"#utility.yul\":2001:2010   */\n      dup3\n        /* \"#utility.yul\":1997:2015   */\n      add\n        /* \"#utility.yul\":1989:2015   */\n      swap1\n      pop\n        /* \"#utility.yul\":2025:2096   */\n      tag_116\n        /* \"#utility.yul\":2093:2094   */\n      0x00\n        /* \"#utility.yul\":2082:2091   */\n      dup4\n        /* \"#utility.yul\":2078:2095   */\n      add\n        /* \"#utility.yul\":2069:2075   */\n      dup6\n        /* \"#utility.yul\":2025:2096   */\n      tag_83\n      jump\t// in\n    tag_116:\n        /* \"#utility.yul\":2106:2178   */\n      tag_117\n        /* \"#utility.yul\":2174:2176   */\n      0x20\n        /* \"#utility.yul\":2163:2172   */\n      dup4\n        /* \"#utility.yul\":2159:2177   */\n      add\n        /* \"#utility.yul\":2150:2156   */\n      dup5\n        /* \"#utility.yul\":2106:2178   */\n      tag_83\n      jump\t// in\n    tag_117:\n        /* \"#utility.yul\":1853:2185   */\n      swap4\n      swap3\n      pop\n      pop\n      pop\n      jump\t// out\n        /* \"#utility.yul\":2191:2371   */\n    tag_84:\n        /* \"#utility.yul\":2239:2316   */\n      0x4e487b7100000000000000000000000000000000000000000000000000000000\n        /* \"#utility.yul\":2236:2237   */\n      0x00\n        /* \"#utility.yul\":2229:2317   */\n      mstore\n        /* \"#utility.yul\":2336:2340   */\n      0x11\n        /* \"#utility.yul\":2333:2334   */\n      0x04\n        /* \"#utility.yul\":2326:2341   */\n      mstore\n        /* \"#utility.yul\":2360:2364   */\n      0x24\n        /* \"#utility.yul\":2357:2358   */\n      0x00\n        /* \"#utility.yul\":2350:2365   */\n      revert\n        /* \"#utility.yul\":2377:2604   */\n    tag_42:\n        /* \"#utility.yul\":2417:2421   */\n      0x00\n        /* \"#utility.yul\":2437:2457   */\n      tag_120\n        /* \"#utility.yul\":2455:2456   */\n      dup3\n        /* \"#utility.yul\":2437:2457   */\n      tag_78\n      jump\t// in\n    tag_120:\n        /* \"#utility.yul\":2432:2457   */\n      swap2\n      pop\n        /* \"#utility.yul\":2471:2491   */\n      tag_121\n        /* \"#utility.yul\":2489:2490   */\n      dup4\n        /* \"#utility.yul\":2471:2491   */\n      tag_78\n      jump\t// in\n    tag_121:\n        /* \"#utility.yul\":2466:2491   */\n      swap3\n      pop\n        /* \"#utility.yul\":2515:2516   */\n      dup3\n        /* \"#utility.yul\":2512:2513   */\n      dup3\n        /* \"#utility.yul\":2508:2517   */\n      sub\n        /* \"#utility.yul\":2500:2517   */\n      swap1\n      pop\n        /* \"#utility.yul\":2539:2573   */\n      0xffffffffffffffffffffffffffffffff\n        /* \"#utility.yul\":2533:2537   */\n      dup2\n        /* \"#utility.yul\":2530:2574   */\n      gt\n        /* \"#utility.yul\":2527:2597   */\n      iszero\n      tag_122\n      jumpi\n        /* \"#utility.yul\":2577:2595   */\n      tag_123\n      tag_84\n      jump\t// in\n    tag_123:\n        /* \"#utility.yul\":2527:2597   */\n    tag_122:\n        /* \"#utility.yul\":2377:2604   */\n      swap3\n      swap2\n      pop\n      pop\n      jump\t// out\n        /* \"#utility.yul\":2610:2834   */\n    tag_52:\n        /* \"#utility.yul\":2650:2653   */\n      0x00\n        /* \"#utility.yul\":2669:2689   */\n      tag_125\n        /* \"#utility.yul\":2687:2688   */\n      dup3\n        /* \"#utility.yul\":2669:2689   */\n      tag_78\n      jump\t// in\n    tag_125:\n        /* \"#utility.yul\":2664:2689   */\n      swap2\n      pop\n        /* \"#utility.yul\":2703:2723   */\n      tag_126\n        /* \"#utility.yul\":2721:2722   */\n      dup4\n        /* \"#utility.yul\":2703:2723   */\n      tag_78\n      jump\t// in\n    tag_126:\n        /* \"#utility.yul\":2698:2723   */\n      swap3\n      pop\n        /* \"#utility.yul\":2746:2747   */\n      dup3\n        /* \"#utility.yul\":2743:2744   */\n      dup3\n        /* \"#utility.yul\":2739:2748   */\n      add\n        /* \"#utility.yul\":2732:2748   */\n      swap1\n      pop\n        /* \"#utility.yul\":2769:2803   */\n      0xffffffffffffffffffffffffffffffff\n        /* \"#utility.yul\":2764:2767   */\n      dup2\n        /* \"#utility.yul\":2761:2804   */\n      gt\n        /* \"#utility.yul\":2758:2827   */\n      iszero\n      tag_127\n      jumpi\n        /* \"#utility.yul\":2807:2825   */\n      tag_128\n      tag_84\n      jump\t// in\n    tag_128:\n        /* \"#utility.yul\":2758:2827   */\n    tag_127:\n        /* \"#utility.yul\":2610:2834   */\n      swap3\n      swap2\n      pop\n      pop\n      jump\t// out\n        /* \"#utility.yul\":2840:2933   */\n    tag_85:\n        /* \"#utility.yul\":2876:2883   */\n      0x00\n        /* \"#utility.yul\":2916:2926   */\n      0xffffffff\n        /* \"#utility.yul\":2909:2914   */\n      dup3\n        /* \"#utility.yul\":2905:2927   */\n      and\n        /* \"#utility.yul\":2894:2927   */\n      swap1\n      pop\n        /* \"#utility.yul\":2840:2933   */\n      swap2\n      swap1\n      pop\n      jump\t// out\n        /* \"#utility.yul\":2939:3136   */\n    tag_63:\n        /* \"#utility.yul\":2978:2981   */\n      0x00\n        /* \"#utility.yul\":2997:3016   */\n      tag_131\n        /* \"#utility.yul\":3014:3015   */\n      dup3\n        /* \"#utility.yul\":2997:3016   */\n      tag_85\n      jump\t// in\n    tag_131:\n        /* \"#utility.yul\":2992:3016   */\n      swap2\n      pop\n        /* \"#utility.yul\":3030:3049   */\n      tag_132\n        /* \"#utility.yul\":3047:3048   */\n      dup4\n        /* \"#utility.yul\":3030:3049   */\n      tag_85\n      jump\t// in\n    tag_132:\n        /* \"#utility.yul\":3025:3049   */\n      swap3\n      pop\n        /* \"#utility.yul\":3072:3073   */\n      dup3\n        /* \"#utility.yul\":3069:3070   */\n      dup3\n        /* \"#utility.yul\":3065:3074   */\n      add\n        /* \"#utility.yul\":3058:3074   */\n      swap1\n      pop\n        /* \"#utility.yul\":3095:3105   */\n      0xffffffff\n        /* \"#utility.yul\":3090:3093   */\n      dup2\n        /* \"#utility.yul\":3087:3106   */\n      gt\n        /* \"#utility.yul\":3084:3129   */\n      iszero\n      tag_133\n      jumpi\n        /* \"#utility.yul\":3109:3127   */\n      tag_134\n      tag_84\n      jump\t// in\n    tag_134:\n        /* \"#utility.yul\":3084:3129   */\n    tag_133:\n        /* \"#utility.yul\":2939:3136   */\n      swap3\n      swap2\n      pop\n      pop\n      jump\t// out\n        /* \"#utility.yul\":3142:3289   */\n    tag_86:\n        /* \"#utility.yul\":3243:3254   */\n      0x00\n        /* \"#utility.yul\":3280:3283   */\n      dup2\n        /* \"#utility.yul\":3265:3283   */\n      swap1\n      pop\n        /* \"#utility.yul\":3142:3289   */\n      swap3\n      swap2\n      pop\n      pop\n      jump\t// out\n        /* \"#utility.yul\":3295:3409   */\n    tag_87:\n      pop\n      jump\t// out\n        /* \"#utility.yul\":3415:3813   */\n    tag_88:\n        /* \"#utility.yul\":3574:3577   */\n      0x00\n        /* \"#utility.yul\":3595:3678   */\n      tag_138\n        /* \"#utility.yul\":3676:3677   */\n      0x00\n        /* \"#utility.yul\":3671:3674   */\n      dup4\n        /* \"#utility.yul\":3595:3678   */\n      tag_86\n      jump\t// in\n    tag_138:\n        /* \"#utility.yul\":3588:3678   */\n      swap2\n      pop\n        /* \"#utility.yul\":3687:3780   */\n      tag_139\n        /* \"#utility.yul\":3776:3779   */\n      dup3\n        /* \"#utility.yul\":3687:3780   */\n      tag_87\n      jump\t// in\n    tag_139:\n        /* \"#utility.yul\":3805:3806   */\n      0x00\n        /* \"#utility.yul\":3800:3803   */\n      dup3\n        /* \"#utility.yul\":3796:3807   */\n      add\n        /* \"#utility.yul\":3789:3807   */\n      swap1\n      pop\n        /* \"#utility.yul\":3415:3813   */\n      swap2\n      swap1\n      pop\n      jump\t// out\n        /* \"#utility.yul\":3819:4198   */\n    tag_68:\n        /* \"#utility.yul\":4003:4006   */\n      0x00\n        /* \"#utility.yul\":4025:4172   */\n      tag_141\n        /* \"#utility.yul\":4168:4171   */\n      dup3\n        /* \"#utility.yul\":4025:4172   */\n      tag_88\n      jump\t// in\n    tag_141:\n        /* \"#utility.yul\":4018:4172   */\n      swap2\n      pop\n        /* \"#utility.yul\":4189:4192   */\n      dup2\n        /* \"#utility.yul\":4182:4192   */\n      swap1\n      pop\n        /* \"#utility.yul\":3819:4198   */\n      swap2\n      swap1\n      pop\n      jump\t// out\n        /* \"#utility.yul\":4204:4330   */\n    tag_89:\n        /* \"#utility.yul\":4241:4248   */\n      0x00\n        /* \"#utility.yul\":4281:4323   */\n      0xffffffffffffffffffffffffffffffffffffffff\n        /* \"#utility.yul\":4274:4279   */\n      dup3\n        /* \"#utility.yul\":4270:4324   */\n      and\n        /* \"#utility.yul\":4259:4324   */\n      swap1\n      pop\n        /* \"#utility.yul\":4204:4330   */\n      swap2\n      swap1\n      pop\n      jump\t// out\n        /* \"#utility.yul\":4336:4432   */\n    tag_90:\n        /* \"#utility.yul\":4373:4380   */\n      0x00\n        /* \"#utility.yul\":4402:4426   */\n      tag_144\n        /* \"#utility.yul\":4420:4425   */\n      dup3\n        /* \"#utility.yul\":4402:4426   */\n      tag_89\n      jump\t// in\n    tag_144:\n        /* \"#utility.yul\":4391:4426   */\n      swap1\n      pop\n        /* \"#utility.yul\":4336:4432   */\n      swap2\n      swap1\n      pop\n      jump\t// out\n        /* \"#utility.yul\":4438:4556   */\n    tag_91:\n        /* \"#utility.yul\":4525:4549   */\n      tag_146\n        /* \"#utility.yul\":4543:4548   */\n      dup2\n        /* \"#utility.yul\":4525:4549   */\n      tag_90\n      jump\t// in\n    tag_146:\n        /* \"#utility.yul\":4520:4523   */\n      dup3\n        /* \"#utility.yul\":4513:4550   */\n      mstore\n        /* \"#utility.yul\":4438:4556   */\n      pop\n      pop\n      jump\t// out\n        /* \"#utility.yul\":4562:4894   */\n    tag_74:\n        /* \"#utility.yul\":4683:4687   */\n      0x00\n        /* \"#utility.yul\":4721:4723   */\n      0x40\n        /* \"#utility.yul\":4710:4719   */\n      dup3\n        /* \"#utility.yul\":4706:4724   */\n      add\n        /* \"#utility.yul\":4698:4724   */\n      swap1\n      pop\n        /* \"#utility.yul\":4734:4805   */\n      tag_148\n        /* \"#utility.yul\":4802:4803   */\n      0x00\n        /* \"#utility.yul\":4791:4800   */\n      dup4\n        /* \"#utility.yul\":4787:4804   */\n      add\n        /* \"#utility.yul\":4778:4784   */\n      dup6\n        /* \"#utility.yul\":4734:4805   */\n      tag_91\n      jump\t// in\n    tag_148:\n        /* \"#utility.yul\":4815:4887   */\n      tag_149\n        /* \"#utility.yul\":4883:4885   */\n      0x20\n        /* \"#utility.yul\":4872:4881   */\n      dup4\n        /* \"#utility.yul\":4868:4886   */\n      add\n        /* \"#utility.yul\":4859:4865   */\n      dup5\n        /* \"#utility.yul\":4815:4887   */\n      tag_83\n      jump\t// in\n    tag_149:\n        /* \"#utility.yul\":4562:4894   */\n      swap4\n      swap3\n      pop\n      pop\n      pop\n      jump\t// out\n\n    auxdata: 0xa264697066735822122072a4a47b77e6a44211f2445a445aaca81db704091967bbfd67b7bcef2ae380c064736f6c634300081e0033\n}\n",
				"bytecode": {
					"linkReferences": {},
					"object": "60c060405234801561000f575f5ffd5b50604051610c50380380610c50833981810160405281019061003191906100d9565b816fffffffffffffffffffffffffffffffff166080816fffffffffffffffffffffffffffffffff1681525050806fffffffffffffffffffffffffffffffff1660a0816fffffffffffffffffffffffffffffffff16815250505050610117565b5f5ffd5b5f6fffffffffffffffffffffffffffffffff82169050919050565b6100b881610094565b81146100c2575f5ffd5b50565b5f815190506100d3816100af565b92915050565b5f5f604083850312156100ef576100ee610090565b5b5f6100fc858286016100c5565b925050602061010d858286016100c5565b9150509250929050565b60805160a051610afc6101545f395f818161013501528181610182015261064a01525f8181610467015281816104ca01526106260152610afc5ff3fe608060405260043610610054575f3560e01c806302387a7b1461005857806312b58349146100805780634c738909146100aa578063d0e30db0146100d4578063ecbea24d146100de578063f848d54114610108575b5f5ffd5b348015610063575f5ffd5b5061007e6004803603810190610079919061087b565b610132565b005b34801561008b575f5ffd5b506100946103fb565b6040516100a191906108be565b60405180910390f35b3480156100b5575f5ffd5b506100be610402565b6040516100cb91906108e6565b60405180910390f35b6100dc610460565b005b3480156100e9575f5ffd5b506100f2610624565b6040516100ff91906108e6565b60405180910390f35b348015610113575f5ffd5b5061011c610648565b60405161012991906108e6565b60405180910390f35b807f00000000000000000000000000000000000000000000000000000000000000006fffffffffffffffffffffffffffffffff16816fffffffffffffffffffffffffffffffff1611156101de57807f00000000000000000000000000000000000000000000000000000000000000006040517fd27283170000000000000000000000000000000000000000000000000000000081526004016101d59291906108ff565b60405180910390fd5b815f5f3373ffffffffffffffffffffffffffffffffffffffff1673ffffffffffffffffffffffffffffffffffffffff1681526020019081526020015f205f9054906101000a90046fffffffffffffffffffffffffffffffff166fffffffffffffffffffffffffffffffff16816fffffffffffffffffffffffffffffffff1611156102f857805f5f3373ffffffffffffffffffffffffffffffffffffffff1673ffffffffffffffffffffffffffffffffffffffff1681526020019081526020015f205f9054906101000a90046fffffffffffffffffffffffffffffffff166040517fb61caeea0000000000000000000000000000000000000000000000000000000081526004016102ef9291906108ff565b60405180910390fd5b825f5f3373ffffffffffffffffffffffffffffffffffffffff1673ffffffffffffffffffffffffffffffffffffffff1681526020019081526020015f205f8282829054906101000a90046fffffffffffffffffffffffffffffffff1661035e9190610953565b92506101000a8154816fffffffffffffffffffffffffffffffff02191690836fffffffffffffffffffffffffffffffff16021790555061039e335f61066c565b6103a8338461076f565b3373ffffffffffffffffffffffffffffffffffffffff167fab48b3d59a240196dc5bdd7f7a638fca310f8194c7d350c3dd7765861311ddf8846040516103ee91906108e6565b60405180910390a2505050565b5f47905090565b5f5f5f3373ffffffffffffffffffffffffffffffffffffffff1673ffffffffffffffffffffffffffffffffffffffff1681526020019081526020015f205f9054906101000a90046fffffffffffffffffffffffffffffffff16905090565b345f4790507f00000000000000000000000000000000000000000000000000000000000000006fffffffffffffffffffffffffffffffff1682826104a49190610996565b6fffffffffffffffffffffffffffffffff1611156105265781816104c89190610996565b7f00000000000000000000000000000000000000000000000000000000000000006040517fbc42f84600000000000000000000000000000000000000000000000000000000815260040161051d9291906108ff565b60405180910390fd5b5f349050805f5f3373ffffffffffffffffffffffffffffffffffffffff1673ffffffffffffffffffffffffffffffffffffffff1681526020019081526020015f205f8282829054906101000a90046fffffffffffffffffffffffffffffffff166105909190610996565b92506101000a8154816fffffffffffffffffffffffffffffffff02191690836fffffffffffffffffffffffffffffffff1602179055506105d133600161066c565b3373ffffffffffffffffffffffffffffffffffffffff167fadb1a06aea2cd2ff20eac971640a5eb7d687df3e3a897be2f334836494958a478260405161061791906108e6565b60405180910390a2505050565b7f000000000000000000000000000000000000000000000000000000000000000081565b7f000000000000000000000000000000000000000000000000000000000000000081565b80156106f0576001805f8473ffffffffffffffffffffffffffffffffffffffff1673ffffffffffffffffffffffffffffffffffffffff1681526020019081526020015f205f8282829054906101000a900463ffffffff166106cd91906109e8565b92506101000a81548163ffffffff021916908363ffffffff16021790555061076b565b600160025f8473ffffffffffffffffffffffffffffffffffffffff1673ffffffffffffffffffffffffffffffffffffffff1681526020019081526020015f205f8282829054906101000a900463ffffffff1661074c91906109e8565b92506101000a81548163ffffffff021916908363ffffffff1602179055505b5050565b5f8273ffffffffffffffffffffffffffffffffffffffff16826fffffffffffffffffffffffffffffffff166040516107a690610a4c565b5f6040518083038185875af1925050503d805f81146107e0576040519150601f19603f3d011682016040523d82523d5f602084013e6107e5565b606091505b505090508061082d5782826040517f947fba8b000000000000000000000000000000000000000000000000000000008152600401610824929190610a9f565b60405180910390fd5b505050565b5f5ffd5b5f6fffffffffffffffffffffffffffffffff82169050919050565b61085a81610836565b8114610864575f5ffd5b50565b5f8135905061087581610851565b92915050565b5f602082840312156108905761088f610832565b5b5f61089d84828501610867565b91505092915050565b5f819050919050565b6108b8816108a6565b82525050565b5f6020820190506108d15f8301846108af565b92915050565b6108e081610836565b82525050565b5f6020820190506108f95f8301846108d7565b92915050565b5f6040820190506109125f8301856108d7565b61091f60208301846108d7565b9392505050565b7f4e487b71000000000000000000000000000000000000000000000000000000005f52601160045260245ffd5b5f61095d82610836565b915061096883610836565b925082820390506fffffffffffffffffffffffffffffffff8111156109905761098f610926565b5b92915050565b5f6109a082610836565b91506109ab83610836565b925082820190506fffffffffffffffffffffffffffffffff8111156109d3576109d2610926565b5b92915050565b5f63ffffffff82169050919050565b5f6109f2826109d9565b91506109fd836109d9565b9250828201905063ffffffff811115610a1957610a18610926565b5b92915050565b5f81905092915050565b50565b5f610a375f83610a1f565b9150610a4282610a29565b5f82019050919050565b5f610a5682610a2c565b9150819050919050565b5f73ffffffffffffffffffffffffffffffffffffffff82169050919050565b5f610a8982610a60565b9050919050565b610a9981610a7f565b82525050565b5f604082019050610ab25f830185610a90565b610abf60208301846108d7565b939250505056fea264697066735822122072a4a47b77e6a44211f2445a445aaca81db704091967bbfd67b7bcef2ae380c064736f6c634300081e0033",
					"opcodes": "PUSH1 0xC0 PUSH1 0x40 MSTORE CALLVALUE DUP1 ISZERO PUSH2 0xF JUMPI PUSH0 PUSH0 REVERT JUMPDEST POP PUSH1 0x40 MLOAD PUSH2 0xC50 CODESIZE SUB DUP1 PUSH2 0xC50 DUP4 CODECOPY DUP2 DUP2 ADD PUSH1 0x40 MSTORE DUP2 ADD SWAP1 PUSH2 0x31 SWAP2 SWAP1 PUSH2 0xD9 JUMP JUMPDEST DUP2 PUSH16 0xFFFFFFFFFFFFFFFFFFFFFFFFFFFFFFFF AND PUSH1 0x80 DUP2 PUSH16 0xFFFFFFFFFFFFFFFFFFFFFFFFFFFFFFFF AND DUP2 MSTORE POP POP DUP1 PUSH16 0xFFFFFFFFFFFFFFFFFFFFFFFFFFFFFFFF AND PUSH1 0xA0 DUP2 PUSH16 0xFFFFFFFFFFFFFFFFFFFFFFFFFFFFFFFF AND DUP2 MSTORE POP POP POP POP PUSH2 0x117 JUMP JUMPDEST PUSH0 PUSH0 REVERT JUMPDEST PUSH0 PUSH16 0xFFFFFFFFFFFFFFFFFFFFFFFFFFFFFFFF DUP3 AND SWAP1 POP SWAP2 SWAP1 POP JUMP JUMPDEST PUSH2 0xB8 DUP2 PUSH2 0x94 JUMP JUMPDEST DUP2 EQ PUSH2 0xC2 JUMPI PUSH0 PUSH0 REVERT JUMPDEST POP JUMP JUMPDEST PUSH0 DUP2 MLOAD SWAP1 POP PUSH2 0xD3 DUP2 PUSH2 0xAF JUMP JUMPDEST SWAP3 SWAP2 POP POP JUMP JUMPDEST PUSH0 PUSH0 PUSH1 0x40 DUP4 DUP6 SUB SLT ISZERO PUSH2 0xEF JUMPI PUSH2 0xEE PUSH2 0x90 JUMP JUMPDEST JUMPDEST PUSH0 PUSH2 0xFC DUP6 DUP3 DUP7 ADD PUSH2 0xC5 JUMP JUMPDEST SWAP3 POP POP PUSH1 0x20 PUSH2 0x10D DUP6 DUP3 DUP7 ADD PUSH2 0xC5 JUMP JUMPDEST SWAP2 POP POP SWAP3 POP SWAP3 SWAP1 POP JUMP JUMPDEST PUSH1 0x80 MLOAD PUSH1 0xA0 MLOAD PUSH2 0xAFC PUSH2 0x154 PUSH0 CODECOPY PUSH0 DUP2 DUP2 PUSH2 0x135 ADD MSTORE DUP2 DUP2 PUSH2 0x182 ADD MSTORE PUSH2 0x64A ADD MSTORE PUSH0 DUP2 DUP2 PUSH2 0x467 ADD MSTORE DUP2 DUP2 PUSH2 0x4CA ADD MSTORE PUSH2 0x626 ADD MSTORE PUSH2 0xAFC PUSH0 RETURN INVALID PUSH1 0x80 PUSH1 0x40 MSTORE PUSH1 0x4 CALLDATASIZE LT PUSH2 0x54 JUMPI PUSH0 CALLDATALOAD PUSH1 0xE0 SHR DUP1 PUSH4 0x2387A7B EQ PUSH2 0x58 JUMPI DUP1 PUSH4 0x12B58349 EQ PUSH2 0x80 JUMPI DUP1 PUSH4 0x4C738909 EQ PUSH2 0xAA JUMPI DUP1 PUSH4 0xD0E30DB0 EQ PUSH2 0xD4 JUMPI DUP1 PUSH4 0xECBEA24D EQ PUSH2 0xDE JUMPI DUP1 PUSH4 0xF848D541 EQ PUSH2 0x108 JUMPI JUMPDEST PUSH0 PUSH0 REVERT JUMPDEST CALLVALUE DUP1 ISZERO PUSH2 0x63 JUMPI PUSH0 PUSH0 REVERT JUMPDEST POP PUSH2 0x7E PUSH1 0x4 DUP1 CALLDATASIZE SUB DUP2 ADD SWAP1 PUSH2 0x79 SWAP2 SWAP1 PUSH2 0x87B JUMP JUMPDEST PUSH2 0x132 JUMP JUMPDEST STOP JUMPDEST CALLVALUE DUP1 ISZERO PUSH2 0x8B JUMPI PUSH0 PUSH0 REVERT JUMPDEST POP PUSH2 0x94 PUSH2 0x3FB JUMP JUMPDEST PUSH1 0x40 MLOAD PUSH2 0xA1 SWAP2 SWAP1 PUSH2 0x8BE JUMP JUMPDEST PUSH1 0x40 MLOAD DUP1 SWAP2 SUB SWAP1 RETURN JUMPDEST CALLVALUE DUP1 ISZERO PUSH2 0xB5 JUMPI PUSH0 PUSH0 REVERT JUMPDEST POP PUSH2 0xBE PUSH2 0x402 JUMP JUMPDEST PUSH1 0x40 MLOAD PUSH2 0xCB SWAP2 SWAP1 PUSH2 0x8E6 JUMP JUMPDEST PUSH1 0x40 MLOAD DUP1 SWAP2 SUB SWAP1 RETURN JUMPDEST PUSH2 0xDC PUSH2 0x460 JUMP JUMPDEST STOP JUMPDEST CALLVALUE DUP1 ISZERO PUSH2 0xE9 JUMPI PUSH0 PUSH0 REVERT JUMPDEST POP PUSH2 0xF2 PUSH2 0x624 JUMP JUMPDEST PUSH1 0x40 MLOAD PUSH2 0xFF SWAP2 SWAP1 PUSH2 0x8E6 JUMP JUMPDEST PUSH1 0x40 MLOAD DUP1 SWAP2 SUB SWAP1 RETURN JUMPDEST CALLVALUE DUP1 ISZERO PUSH2 0x113 JUMPI PUSH0 PUSH0 REVERT JUMPDEST POP PUSH2 0x11C PUSH2 0x648 JUMP JUMPDEST PUSH1 0x40 MLOAD PUSH2 0x129 SWAP2 SWAP1 PUSH2 0x8E6 JUMP JUMPDEST PUSH1 0x40 MLOAD DUP1 SWAP2 SUB SWAP1 RETURN JUMPDEST DUP1 PUSH32 0x0 PUSH16 0xFFFFFFFFFFFFFFFFFFFFFFFFFFFFFFFF AND DUP2 PUSH16 0xFFFFFFFFFFFFFFFFFFFFFFFFFFFFFFFF AND GT ISZERO PUSH2 0x1DE JUMPI DUP1 PUSH32 0x0 PUSH1 0x40 MLOAD PUSH32 0xD272831700000000000000000000000000000000000000000000000000000000 DUP2 MSTORE PUSH1 0x4 ADD PUSH2 0x1D5 SWAP3 SWAP2 SWAP1 PUSH2 0x8FF JUMP JUMPDEST PUSH1 0x40 MLOAD DUP1 SWAP2 SUB SWAP1 REVERT JUMPDEST DUP2 PUSH0 PUSH0 CALLER PUSH20 0xFFFFFFFFFFFFFFFFFFFFFFFFFFFFFFFFFFFFFFFF AND PUSH20 0xFFFFFFFFFFFFFFFFFFFFFFFFFFFFFFFFFFFFFFFF AND DUP2 MSTORE PUSH1 0x20 ADD SWAP1 DUP2 MSTORE PUSH1 0x20 ADD PUSH0 KECCAK256 PUSH0 SWAP1 SLOAD SWAP1 PUSH2 0x100 EXP SWAP1 DIV PUSH16 0xFFFFFFFFFFFFFFFFFFFFFFFFFFFFFFFF AND PUSH16 0xFFFFFFFFFFFFFFFFFFFFFFFFFFFFFFFF AND DUP2 PUSH16 0xFFFFFFFFFFFFFFFFFFFFFFFFFFFFFFFF AND GT ISZERO PUSH2 0x2F8 JUMPI DUP1 PUSH0 PUSH0 CALLER PUSH20 0xFFFFFFFFFFFFFFFFFFFFFFFFFFFFFFFFFFFFFFFF AND PUSH20 0xFFFFFFFFFFFFFFFFFFFFFFFFFFFFFFFFFFFFFFFF AND DUP2 MSTORE PUSH1 0x20 ADD SWAP1 DUP2 MSTORE PUSH1 0x20 ADD PUSH0 KECCAK256 PUSH0 SWAP1 SLOAD SWAP1 PUSH2 0x100 EXP SWAP1 DIV PUSH16 0xFFFFFFFFFFFFFFFFFFFFFFFFFFFFFFFF AND PUSH1 0x40 MLOAD PUSH32 0xB61CAEEA00000000000000000000000000000000000000000000000000000000 DUP2 MSTORE PUSH1 0x4 ADD PUSH2 0x2EF SWAP3 SWAP2 SWAP1 PUSH2 0x8FF JUMP JUMPDEST PUSH1 0x40 MLOAD DUP1 SWAP2 SUB SWAP1 REVERT JUMPDEST DUP3 PUSH0 PUSH0 CALLER PUSH20 0xFFFFFFFFFFFFFFFFFFFFFFFFFFFFFFFFFFFFFFFF AND PUSH20 0xFFFFFFFFFFFFFFFFFFFFFFFFFFFFFFFFFFFFFFFF AND DUP2 MSTORE PUSH1 0x20 ADD SWAP1 DUP2 MSTORE PUSH1 0x20 ADD PUSH0 KECCAK256 PUSH0 DUP3 DUP3 DUP3 SWAP1 SLOAD SWAP1 PUSH2 0x100 EXP SWAP1 DIV PUSH16 0xFFFFFFFFFFFFFFFFFFFFFFFFFFFFFFFF AND PUSH2 0x35E SWAP2 SWAP1 PUSH2 0x953 JUMP JUMPDEST SWAP3 POP PUSH2 0x100 EXP DUP2 SLOAD DUP2 PUSH16 0xFFFFFFFFFFFFFFFFFFFFFFFFFFFFFFFF MUL NOT AND SWAP1 DUP4 PUSH16 0xFFFFFFFFFFFFFFFFFFFFFFFFFFFFFFFF AND MUL OR SWAP1 SSTORE POP PUSH2 0x39E CALLER PUSH0 PUSH2 0x66C JUMP JUMPDEST PUSH2 0x3A8 CALLER DUP5 PUSH2 0x76F JUMP JUMPDEST CALLER PUSH20 0xFFFFFFFFFFFFFFFFFFFFFFFFFFFFFFFFFFFFFFFF AND PUSH32 0xAB48B3D59A240196DC5BDD7F7A638FCA310F8194C7D350C3DD7765861311DDF8 DUP5 PUSH1 0x40 MLOAD PUSH2 0x3EE SWAP2 SWAP1 PUSH2 0x8E6 JUMP JUMPDEST PUSH1 0x40 MLOAD DUP1 SWAP2 SUB SWAP1 LOG2 POP POP POP JUMP JUMPDEST PUSH0 SELFBALANCE SWAP1 POP SWAP1 JUMP JUMPDEST PUSH0 PUSH0 PUSH0 CALLER PUSH20 0xFFFFFFFFFFFFFFFFFFFFFFFFFFFFFFFFFFFFFFFF AND PUSH20 0xFFFFFFFFFFFFFFFFFFFFFFFFFFFFFFFFFFFFFFFF AND DUP2 MSTORE PUSH1 0x20 ADD SWAP1 DUP2 MSTORE PUSH1 0x20 ADD PUSH0 KECCAK256 PUSH0 SWAP1 SLOAD SWAP1 PUSH2 0x100 EXP SWAP1 DIV PUSH16 0xFFFFFFFFFFFFFFFFFFFFFFFFFFFFFFFF AND SWAP1 POP SWAP1 JUMP JUMPDEST CALLVALUE PUSH0 SELFBALANCE SWAP1 POP PUSH32 0x0 PUSH16 0xFFFFFFFFFFFFFFFFFFFFFFFFFFFFFFFF AND DUP3 DUP3 PUSH2 0x4A4 SWAP2 SWAP1 PUSH2 0x996 JUMP JUMPDEST PUSH16 0xFFFFFFFFFFFFFFFFFFFFFFFFFFFFFFFF AND GT ISZERO PUSH2 0x526 JUMPI DUP2 DUP2 PUSH2 0x4C8 SWAP2 SWAP1 PUSH2 0x996 JUMP JUMPDEST PUSH32 0x0 PUSH1 0x40 MLOAD PUSH32 0xBC42F84600000000000000000000000000000000000000000000000000000000 DUP2 MSTORE PUSH1 0x4 ADD PUSH2 0x51D SWAP3 SWAP2 SWAP1 PUSH2 0x8FF JUMP JUMPDEST PUSH1 0x40 MLOAD DUP1 SWAP2 SUB SWAP1 REVERT JUMPDEST PUSH0 CALLVALUE SWAP1 POP DUP1 PUSH0 PUSH0 CALLER PUSH20 0xFFFFFFFFFFFFFFFFFFFFFFFFFFFFFFFFFFFFFFFF AND PUSH20 0xFFFFFFFFFFFFFFFFFFFFFFFFFFFFFFFFFFFFFFFF AND DUP2 MSTORE PUSH1 0x20 ADD SWAP1 DUP2 MSTORE PUSH1 0x20 ADD PUSH0 KECCAK256 PUSH0 DUP3 DUP3 DUP3 SWAP1 SLOAD SWAP1 PUSH2 0x100 EXP SWAP1 DIV PUSH16 0xFFFFFFFFFFFFFFFFFFFFFFFFFFFFFFFF AND PUSH2 0x590 SWAP2 SWAP1 PUSH2 0x996 JUMP JUMPDEST SWAP3 POP PUSH2 0x100 EXP DUP2 SLOAD DUP2 PUSH16 0xFFFFFFFFFFFFFFFFFFFFFFFFFFFFFFFF MUL NOT AND SWAP1 DUP4 PUSH16 0xFFFFFFFFFFFFFFFFFFFFFFFFFFFFFFFF AND MUL OR SWAP1 SSTORE POP PUSH2 0x5D1 CALLER PUSH1 0x1 PUSH2 0x66C JUMP JUMPDEST CALLER PUSH20 0xFFFFFFFFFFFFFFFFFFFFFFFFFFFFFFFFFFFFFFFF AND PUSH32 0xADB1A06AEA2CD2FF20EAC971640A5EB7D687DF3E3A897BE2F334836494958A47 DUP3 PUSH1 0x40 MLOAD PUSH2 0x617 SWAP2 SWAP1 PUSH2 0x8E6 JUMP JUMPDEST PUSH1 0x40 MLOAD DUP1 SWAP2 SUB SWAP1 LOG2 POP POP POP JUMP JUMPDEST PUSH32 0x0 DUP2 JUMP JUMPDEST PUSH32 0x0 DUP2 JUMP JUMPDEST DUP1 ISZERO PUSH2 0x6F0 JUMPI PUSH1 0x1 DUP1 PUSH0 DUP5 PUSH20 0xFFFFFFFFFFFFFFFFFFFFFFFFFFFFFFFFFFFFFFFF AND PUSH20 0xFFFFFFFFFFFFFFFFFFFFFFFFFFFFFFFFFFFFFFFF AND DUP2 MSTORE PUSH1 0x20 ADD SWAP1 DUP2 MSTORE PUSH1 0x20 ADD PUSH0 KECCAK256 PUSH0 DUP3 DUP3 DUP3 SWAP1 SLOAD SWAP1 PUSH2 0x100 EXP SWAP1 DIV PUSH4 0xFFFFFFFF AND PUSH2 0x6CD SWAP2 SWAP1 PUSH2 0x9E8 JUMP JUMPDEST SWAP3 POP PUSH2 0x100 EXP DUP2 SLOAD DUP2 PUSH4 0xFFFFFFFF MUL NOT AND SWAP1 DUP4 PUSH4 0xFFFFFFFF AND MUL OR SWAP1 SSTORE POP PUSH2 0x76B JUMP JUMPDEST PUSH1 0x1 PUSH1 0x2 PUSH0 DUP5 PUSH20 0xFFFFFFFFFFFFFFFFFFFFFFFFFFFFFFFFFFFFFFFF AND PUSH20 0xFFFFFFFFFFFFFFFFFFFFFFFFFFFFFFFFFFFFFFFF AND DUP2 MSTORE PUSH1 0x20 ADD SWAP1 DUP2 MSTORE PUSH1 0x20 ADD PUSH0 KECCAK256 PUSH0 DUP3 DUP3 DUP3 SWAP1 SLOAD SWAP1 PUSH2 0x100 EXP SWAP1 DIV PUSH4 0xFFFFFFFF AND PUSH2 0x74C SWAP2 SWAP1 PUSH2 0x9E8 JUMP JUMPDEST SWAP3 POP PUSH2 0x100 EXP DUP2 SLOAD DUP2 PUSH4 0xFFFFFFFF MUL NOT AND SWAP1 DUP4 PUSH4 0xFFFFFFFF AND MUL OR SWAP1 SSTORE POP JUMPDEST POP POP JUMP JUMPDEST PUSH0 DUP3 PUSH20 0xFFFFFFFFFFFFFFFFFFFFFFFFFFFFFFFFFFFFFFFF AND DUP3 PUSH16 0xFFFFFFFFFFFFFFFFFFFFFFFFFFFFFFFF AND PUSH1 0x40 MLOAD PUSH2 0x7A6 SWAP1 PUSH2 0xA4C JUMP JUMPDEST PUSH0 PUSH1 0x40 MLOAD DUP1 DUP4 SUB DUP2 DUP6 DUP8 GAS CALL SWAP3 POP POP POP RETURNDATASIZE DUP1 PUSH0 DUP2 EQ PUSH2 0x7E0 JUMPI PUSH1 0x40 MLOAD SWAP2 POP PUSH1 0x1F NOT PUSH1 0x3F RETURNDATASIZE ADD AND DUP3 ADD PUSH1 0x40 MSTORE RETURNDATASIZE DUP3 MSTORE RETURNDATASIZE PUSH0 PUSH1 0x20 DUP5 ADD RETURNDATACOPY PUSH2 0x7E5 JUMP JUMPDEST PUSH1 0x60 SWAP2 POP JUMPDEST POP POP SWAP1 POP DUP1 PUSH2 0x82D JUMPI DUP3 DUP3 PUSH1 0x40 MLOAD PUSH32 0x947FBA8B00000000000000000000000000000000000000000000000000000000 DUP2 MSTORE PUSH1 0x4 ADD PUSH2 0x824 SWAP3 SWAP2 SWAP1 PUSH2 0xA9F JUMP JUMPDEST PUSH1 0x40 MLOAD DUP1 SWAP2 SUB SWAP1 REVERT JUMPDEST POP POP POP JUMP JUMPDEST PUSH0 PUSH0 REVERT JUMPDEST PUSH0 PUSH16 0xFFFFFFFFFFFFFFFFFFFFFFFFFFFFFFFF DUP3 AND SWAP1 POP SWAP2 SWAP1 POP JUMP JUMPDEST PUSH2 0x85A DUP2 PUSH2 0x836 JUMP JUMPDEST DUP2 EQ PUSH2 0x864 JUMPI PUSH0 PUSH0 REVERT JUMPDEST POP JUMP JUMPDEST PUSH0 DUP2 CALLDATALOAD SWAP1 POP PUSH2 0x875 DUP2 PUSH2 0x851 JUMP JUMPDEST SWAP3 SWAP2 POP POP JUMP JUMPDEST PUSH0 PUSH1 0x20 DUP3 DUP5 SUB SLT ISZERO PUSH2 0x890 JUMPI PUSH2 0x88F PUSH2 0x832 JUMP JUMPDEST JUMPDEST PUSH0 PUSH2 0x89D DUP5 DUP3 DUP6 ADD PUSH2 0x867 JUMP JUMPDEST SWAP2 POP POP SWAP3 SWAP2 POP POP JUMP JUMPDEST PUSH0 DUP2 SWAP1 POP SWAP2 SWAP1 POP JUMP JUMPDEST PUSH2 0x8B8 DUP2 PUSH2 0x8A6 JUMP JUMPDEST DUP3 MSTORE POP POP JUMP JUMPDEST PUSH0 PUSH1 0x20 DUP3 ADD SWAP1 POP PUSH2 0x8D1 PUSH0 DUP4 ADD DUP5 PUSH2 0x8AF JUMP JUMPDEST SWAP3 SWAP2 POP POP JUMP JUMPDEST PUSH2 0x8E0 DUP2 PUSH2 0x836 JUMP JUMPDEST DUP3 MSTORE POP POP JUMP JUMPDEST PUSH0 PUSH1 0x20 DUP3 ADD SWAP1 POP PUSH2 0x8F9 PUSH0 DUP4 ADD DUP5 PUSH2 0x8D7 JUMP JUMPDEST SWAP3 SWAP2 POP POP JUMP JUMPDEST PUSH0 PUSH1 0x40 DUP3 ADD SWAP1 POP PUSH2 0x912 PUSH0 DUP4 ADD DUP6 PUSH2 0x8D7 JUMP JUMPDEST PUSH2 0x91F PUSH1 0x20 DUP4 ADD DUP5 PUSH2 0x8D7 JUMP JUMPDEST SWAP4 SWAP3 POP POP POP JUMP JUMPDEST PUSH32 0x4E487B7100000000000000000000000000000000000000000000000000000000 PUSH0 MSTORE PUSH1 0x11 PUSH1 0x4 MSTORE PUSH1 0x24 PUSH0 REVERT JUMPDEST PUSH0 PUSH2 0x95D DUP3 PUSH2 0x836 JUMP JUMPDEST SWAP2 POP PUSH2 0x968 DUP4 PUSH2 0x836 JUMP JUMPDEST SWAP3 POP DUP3 DUP3 SUB SWAP1 POP PUSH16 0xFFFFFFFFFFFFFFFFFFFFFFFFFFFFFFFF DUP2 GT ISZERO PUSH2 0x990 JUMPI PUSH2 0x98F PUSH2 0x926 JUMP JUMPDEST JUMPDEST SWAP3 SWAP2 POP POP JUMP JUMPDEST PUSH0 PUSH2 0x9A0 DUP3 PUSH2 0x836 JUMP JUMPDEST SWAP2 POP PUSH2 0x9AB DUP4 PUSH2 0x836 JUMP JUMPDEST SWAP3 POP DUP3 DUP3 ADD SWAP1 POP PUSH16 0xFFFFFFFFFFFFFFFFFFFFFFFFFFFFFFFF DUP2 GT ISZERO PUSH2 0x9D3 JUMPI PUSH2 0x9D2 PUSH2 0x926 JUMP JUMPDEST JUMPDEST SWAP3 SWAP2 POP POP JUMP JUMPDEST PUSH0 PUSH4 0xFFFFFFFF DUP3 AND SWAP1 POP SWAP2 SWAP1 POP JUMP JUMPDEST PUSH0 PUSH2 0x9F2 DUP3 PUSH2 0x9D9 JUMP JUMPDEST SWAP2 POP PUSH2 0x9FD DUP4 PUSH2 0x9D9 JUMP JUMPDEST SWAP3 POP DUP3 DUP3 ADD SWAP1 POP PUSH4 0xFFFFFFFF DUP2 GT ISZERO PUSH2 0xA19 JUMPI PUSH2 0xA18 PUSH2 0x926 JUMP JUMPDEST JUMPDEST SWAP3 SWAP2 POP POP JUMP JUMPDEST PUSH0 DUP2 SWAP1 POP SWAP3 SWAP2 POP POP JUMP JUMPDEST POP JUMP JUMPDEST PUSH0 PUSH2 0xA37 PUSH0 DUP4 PUSH2 0xA1F JUMP JUMPDEST SWAP2 POP PUSH2 0xA42 DUP3 PUSH2 0xA29 JUMP JUMPDEST PUSH0 DUP3 ADD SWAP1 POP SWAP2 SWAP1 POP JUMP JUMPDEST PUSH0 PUSH2 0xA56 DUP3 PUSH2 0xA2C JUMP JUMPDEST SWAP2 POP DUP2 SWAP1 POP SWAP2 SWAP1 POP JUMP JUMPDEST PUSH0 PUSH20 0xFFFFFFFFFFFFFFFFFFFFFFFFFFFFFFFFFFFFFFFF DUP3 AND SWAP1 POP SWAP2 SWAP1 POP JUMP JUMPDEST PUSH0 PUSH2 0xA89 DUP3 PUSH2 0xA60 JUMP JUMPDEST SWAP1 POP SWAP2 SWAP1 POP JUMP JUMPDEST PUSH2 0xA99 DUP2 PUSH2 0xA7F JUMP JUMPDEST DUP3 MSTORE POP POP JUMP JUMPDEST PUSH0 PUSH1 0x40 DUP3 ADD SWAP1 POP PUSH2 0xAB2 PUSH0 DUP4 ADD DUP6 PUSH2 0xA90 JUMP JUMPDEST PUSH2 0xABF PUSH1 0x20 DUP4 ADD DUP5 PUSH2 0x8D7 JUMP JUMPDEST SWAP4 SWAP3 POP POP POP JUMP INVALID LOG2 PUSH5 0x6970667358 0x22 SLT KECCAK256 PUSH19 0xA4A47B77E6A44211F2445A445AACA81DB70409 NOT PUSH8 0xBBFD67B7BCEF2AE3 DUP1 0xC0 PUSH5 0x736F6C6343 STOP ADDMOD 0x1E STOP CALLER "
				},
				"gasEstimates": {
					"creation": {
						"codeDepositCost": "562400",
						"executionCost": "infinite",
						"totalCost": "infinite"
					},
					"external": {
						"bankCap()": "infinite",
						"deposit()": "infinite",
						"getMyBalance()": "2581",
						"getTotalBalance()": "334",
						"withdraw(uint128)": "infinite",
						"withdrawLimit()": "infinite"
					},
					"internal": {
						"_safeTransfer(address,uint128)": "infinite",
						"_updateCounters(address,bool)": "infinite"
					}
				},
				"methodIdentifiers": {
					"bankCap()": "ecbea24d",
					"deposit()": "d0e30db0",
					"getMyBalance()": "4c738909",
					"getTotalBalance()": "12b58349",
					"withdraw(uint128)": "02387a7b",
					"withdrawLimit()": "f848d541"
				}
			},
			"storageLayout": {
				"storage": [
					{
						"astId": 13,
						"contract": "contracts/Kipu-Bank.sol:KipuBank",
						"label": "balances",
						"offset": 0,
						"slot": "0",
						"type": "t_mapping(t_address,t_uint128)"
					},
					{
						"astId": 18,
						"contract": "contracts/Kipu-Bank.sol:KipuBank",
						"label": "depositCount",
						"offset": 0,
						"slot": "1",
						"type": "t_mapping(t_address,t_uint32)"
					},
					{
						"astId": 23,
						"contract": "contracts/Kipu-Bank.sol:KipuBank",
						"label": "withdrawCount",
						"offset": 0,
						"slot": "2",
						"type": "t_mapping(t_address,t_uint32)"
					}
				],
				"types": {
					"t_address": {
						"encoding": "inplace",
						"label": "address",
						"numberOfBytes": "20"
					},
					"t_mapping(t_address,t_uint128)": {
						"encoding": "mapping",
						"key": "t_address",
						"label": "mapping(address => uint128)",
						"numberOfBytes": "32",
						"value": "t_uint128"
					},
					"t_mapping(t_address,t_uint32)": {
						"encoding": "mapping",
						"key": "t_address",
						"label": "mapping(address => uint32)",
						"numberOfBytes": "32",
						"value": "t_uint32"
					},
					"t_uint128": {
						"encoding": "inplace",
						"label": "uint128",
						"numberOfBytes": "16"
					},
					"t_uint32": {
						"encoding": "inplace",
						"label": "uint32",
						"numberOfBytes": "4"
					}
				}
			},
			"userdoc": {
				"errors": {
					"ExceedsBankCap(uint128,uint128)": [
						{
							"notice": "-----------------------------------------------------------------------------------------------                                     ERRORES -----------------------------------------------------------------------------------------------"
						}
					]
				},
				"events": {
					"Deposited(address,uint128)": {
						"notice": "Se emitirá al depositar ETH"
					},
					"Withdrawn(address,uint128)": {
						"notice": "Se emitirá al retirar ETH"
					}
				},
				"kind": "user",
				"methods": {
					"bankCap()": {
						"notice": "Límite total de ETH que se puede almacenar en el banco"
					},
					"deposit()": {
						"notice": "Depositar ETH en el banco"
					},
					"getMyBalance()": {
						"notice": "Consultar el balance propio"
					},
					"getTotalBalance()": {
						"notice": "Consultar el balance total del banco"
					},
					"withdraw(uint128)": {
						"notice": "Retirar ETH del banco"
					},
					"withdrawLimit()": {
						"notice": "Límite de ETH que se puede retirar en una transacción"
					}
				},
				"notice": "Este contrato permite a los usuarios depositar y retirar ETH con límites de seguridad",
				"version": 1
			}
		}
	}
}