{
	"data": {
		"bytecode": {
			"linkReferences": {},
			"object": "60c060405234801561000f575f5ffd5b50604051610ca7380380610ca7833981810160405281019061003191906100d9565b816fffffffffffffffffffffffffffffffff166080816fffffffffffffffffffffffffffffffff1681525050806fffffffffffffffffffffffffffffffff1660a0816fffffffffffffffffffffffffffffffff16815250505050610117565b5f5ffd5b5f6fffffffffffffffffffffffffffffffff82169050919050565b6100b881610094565b81146100c2575f5ffd5b50565b5f815190506100d3816100af565b92915050565b5f5f604083850312156100ef576100ee610090565b5b5f6100fc858286016100c5565b925050602061010d858286016100c5565b9150509250929050565b60805160a051610b536101545f395f81816101af015281816101fc01526106f001525f818161050d0152818161057001526106cc0152610b535ff3fe60806040526004361061007a575f3560e01c80637d8820971161004d5780637d88209714610124578063d0e30db01461014e578063ecbea24d14610158578063f848d541146101825761007a565b806302387a7b1461007e57806312b58349146100a65780634c738909146100d057806360464627146100fa575b5f5ffd5b348015610089575f5ffd5b506100a4600480360381019061009f91906108aa565b6101ac565b005b3480156100b1575f5ffd5b506100ba610477565b6040516100c791906108ed565b60405180910390f35b3480156100db575f5ffd5b506100e461047e565b6040516100f19190610915565b60405180910390f35b348015610105575f5ffd5b5061010e6104dd565b60405161011b919061094c565b60405180910390f35b34801561012f575f5ffd5b506101386104f2565b604051610145919061094c565b60405180910390f35b610156610506565b005b348015610163575f5ffd5b5061016c6106ca565b6040516101799190610915565b60405180910390f35b34801561018d575f5ffd5b506101966106ee565b6040516101a39190610915565b60405180910390f35b807f00000000000000000000000000000000000000000000000000000000000000006fffffffffffffffffffffffffffffffff16816fffffffffffffffffffffffffffffffff16111561025857807f00000000000000000000000000000000000000000000000000000000000000006040517fd272831700000000000000000000000000000000000000000000000000000000815260040161024f929190610965565b60405180910390fd5b8160015f3373ffffffffffffffffffffffffffffffffffffffff1673ffffffffffffffffffffffffffffffffffffffff1681526020019081526020015f205f9054906101000a90046fffffffffffffffffffffffffffffffff166fffffffffffffffffffffffffffffffff16816fffffffffffffffffffffffffffffffff161115610374578060015f3373ffffffffffffffffffffffffffffffffffffffff1673ffffffffffffffffffffffffffffffffffffffff1681526020019081526020015f205f9054906101000a90046fffffffffffffffffffffffffffffffff166040517fb61caeea00000000000000000000000000000000000000000000000000000000815260040161036b929190610965565b60405180910390fd5b8260015f3373ffffffffffffffffffffffffffffffffffffffff1673ffffffffffffffffffffffffffffffffffffffff1681526020019081526020015f205f8282829054906101000a90046fffffffffffffffffffffffffffffffff166103db91906109b9565b92506101000a8154816fffffffffffffffffffffffffffffffff02191690836fffffffffffffffffffffffffffffffff16021790555061041a5f610712565b610424338461079e565b3373ffffffffffffffffffffffffffffffffffffffff167fab48b3d59a240196dc5bdd7f7a638fca310f8194c7d350c3dd7765861311ddf88460405161046a9190610915565b60405180910390a2505050565b5f47905090565b5f60015f3373ffffffffffffffffffffffffffffffffffffffff1673ffffffffffffffffffffffffffffffffffffffff1681526020019081526020015f205f9054906101000a90046fffffffffffffffffffffffffffffffff16905090565b5f60049054906101000a900463ffffffff1681565b5f5f9054906101000a900463ffffffff1681565b345f4790507f00000000000000000000000000000000000000000000000000000000000000006fffffffffffffffffffffffffffffffff16828261054a91906109fc565b6fffffffffffffffffffffffffffffffff1611156105cc57818161056e91906109fc565b7f00000000000000000000000000000000000000000000000000000000000000006040517fbc42f8460000000000000000000000000000000000000000000000000000000081526004016105c3929190610965565b60405180910390fd5b5f3490508060015f3373ffffffffffffffffffffffffffffffffffffffff1673ffffffffffffffffffffffffffffffffffffffff1681526020019081526020015f205f8282829054906101000a90046fffffffffffffffffffffffffffffffff1661063791906109fc565b92506101000a8154816fffffffffffffffffffffffffffffffff02191690836fffffffffffffffffffffffffffffffff1602179055506106776001610712565b3373ffffffffffffffffffffffffffffffffffffffff167fadb1a06aea2cd2ff20eac971640a5eb7d687df3e3a897be2f334836494958a47826040516106bd9190610915565b60405180910390a2505050565b7f000000000000000000000000000000000000000000000000000000000000000081565b7f000000000000000000000000000000000000000000000000000000000000000081565b801561075b5760015f5f8282829054906101000a900463ffffffff166107389190610a3f565b92506101000a81548163ffffffff021916908363ffffffff16021790555061079b565b60015f60048282829054906101000a900463ffffffff1661077c9190610a3f565b92506101000a81548163ffffffff021916908363ffffffff1602179055505b50565b5f8273ffffffffffffffffffffffffffffffffffffffff16826fffffffffffffffffffffffffffffffff166040516107d590610aa3565b5f6040518083038185875af1925050503d805f811461080f576040519150601f19603f3d011682016040523d82523d5f602084013e610814565b606091505b505090508061085c5782826040517f947fba8b000000000000000000000000000000000000000000000000000000008152600401610853929190610af6565b60405180910390fd5b505050565b5f5ffd5b5f6fffffffffffffffffffffffffffffffff82169050919050565b61088981610865565b8114610893575f5ffd5b50565b5f813590506108a481610880565b92915050565b5f602082840312156108bf576108be610861565b5b5f6108cc84828501610896565b91505092915050565b5f819050919050565b6108e7816108d5565b82525050565b5f6020820190506109005f8301846108de565b92915050565b61090f81610865565b82525050565b5f6020820190506109285f830184610906565b92915050565b5f63ffffffff82169050919050565b6109468161092e565b82525050565b5f60208201905061095f5f83018461093d565b92915050565b5f6040820190506109785f830185610906565b6109856020830184610906565b9392505050565b7f4e487b71000000000000000000000000000000000000000000000000000000005f52601160045260245ffd5b5f6109c382610865565b91506109ce83610865565b925082820390506fffffffffffffffffffffffffffffffff8111156109f6576109f561098c565b5b92915050565b5f610a0682610865565b9150610a1183610865565b925082820190506fffffffffffffffffffffffffffffffff811115610a3957610a3861098c565b5b92915050565b5f610a498261092e565b9150610a548361092e565b9250828201905063ffffffff811115610a7057610a6f61098c565b5b92915050565b5f81905092915050565b50565b5f610a8e5f83610a76565b9150610a9982610a80565b5f82019050919050565b5f610aad82610a83565b9150819050919050565b5f73ffffffffffffffffffffffffffffffffffffffff82169050919050565b5f610ae082610ab7565b9050919050565b610af081610ad6565b82525050565b5f604082019050610b095f830185610ae7565b610b166020830184610906565b939250505056fea2646970667358221220e3e2d599bf04f010046f315c71f110c0d4045f7461a5f8da599f6fd94edd048e64736f6c634300081e0033",
			"opcodes": "PUSH1 0xC0 PUSH1 0x40 MSTORE CALLVALUE DUP1 ISZERO PUSH2 0xF JUMPI PUSH0 PUSH0 REVERT JUMPDEST POP PUSH1 0x40 MLOAD PUSH2 0xCA7 CODESIZE SUB DUP1 PUSH2 0xCA7 DUP4 CODECOPY DUP2 DUP2 ADD PUSH1 0x40 MSTORE DUP2 ADD SWAP1 PUSH2 0x31 SWAP2 SWAP1 PUSH2 0xD9 JUMP JUMPDEST DUP2 PUSH16 0xFFFFFFFFFFFFFFFFFFFFFFFFFFFFFFFF AND PUSH1 0x80 DUP2 PUSH16 0xFFFFFFFFFFFFFFFFFFFFFFFFFFFFFFFF AND DUP2 MSTORE POP POP DUP1 PUSH16 0xFFFFFFFFFFFFFFFFFFFFFFFFFFFFFFFF AND PUSH1 0xA0 DUP2 PUSH16 0xFFFFFFFFFFFFFFFFFFFFFFFFFFFFFFFF AND DUP2 MSTORE POP POP POP POP PUSH2 0x117 JUMP JUMPDEST PUSH0 PUSH0 REVERT JUMPDEST PUSH0 PUSH16 0xFFFFFFFFFFFFFFFFFFFFFFFFFFFFFFFF DUP3 AND SWAP1 POP SWAP2 SWAP1 POP JUMP JUMPDEST PUSH2 0xB8 DUP2 PUSH2 0x94 JUMP JUMPDEST DUP2 EQ PUSH2 0xC2 JUMPI PUSH0 PUSH0 REVERT JUMPDEST POP JUMP JUMPDEST PUSH0 DUP2 MLOAD SWAP1 POP PUSH2 0xD3 DUP2 PUSH2 0xAF JUMP JUMPDEST SWAP3 SWAP2 POP POP JUMP JUMPDEST PUSH0 PUSH0 PUSH1 0x40 DUP4 DUP6 SUB SLT ISZERO PUSH2 0xEF JUMPI PUSH2 0xEE PUSH2 0x90 JUMP JUMPDEST JUMPDEST PUSH0 PUSH2 0xFC DUP6 DUP3 DUP7 ADD PUSH2 0xC5 JUMP JUMPDEST SWAP3 POP POP PUSH1 0x20 PUSH2 0x10D DUP6 DUP3 DUP7 ADD PUSH2 0xC5 JUMP JUMPDEST SWAP2 POP POP SWAP3 POP SWAP3 SWAP1 POP JUMP JUMPDEST PUSH1 0x80 MLOAD PUSH1 0xA0 MLOAD PUSH2 0xB53 PUSH2 0x154 PUSH0 CODECOPY PUSH0 DUP2 DUP2 PUSH2 0x1AF ADD MSTORE DUP2 DUP2 PUSH2 0x1FC ADD MSTORE PUSH2 0x6F0 ADD MSTORE PUSH0 DUP2 DUP2 PUSH2 0x50D ADD MSTORE DUP2 DUP2 PUSH2 0x570 ADD MSTORE PUSH2 0x6CC ADD MSTORE PUSH2 0xB53 PUSH0 RETURN INVALID PUSH1 0x80 PUSH1 0x40 MSTORE PUSH1 0x4 CALLDATASIZE LT PUSH2 0x7A JUMPI PUSH0 CALLDATALOAD PUSH1 0xE0 SHR DUP1 PUSH4 0x7D882097 GT PUSH2 0x4D JUMPI DUP1 PUSH4 0x7D882097 EQ PUSH2 0x124 JUMPI DUP1 PUSH4 0xD0E30DB0 EQ PUSH2 0x14E JUMPI DUP1 PUSH4 0xECBEA24D EQ PUSH2 0x158 JUMPI DUP1 PUSH4 0xF848D541 EQ PUSH2 0x182 JUMPI PUSH2 0x7A JUMP JUMPDEST DUP1 PUSH4 0x2387A7B EQ PUSH2 0x7E JUMPI DUP1 PUSH4 0x12B58349 EQ PUSH2 0xA6 JUMPI DUP1 PUSH4 0x4C738909 EQ PUSH2 0xD0 JUMPI DUP1 PUSH4 0x60464627 EQ PUSH2 0xFA JUMPI JUMPDEST PUSH0 PUSH0 REVERT JUMPDEST CALLVALUE DUP1 ISZERO PUSH2 0x89 JUMPI PUSH0 PUSH0 REVERT JUMPDEST POP PUSH2 0xA4 PUSH1 0x4 DUP1 CALLDATASIZE SUB DUP2 ADD SWAP1 PUSH2 0x9F SWAP2 SWAP1 PUSH2 0x8AA JUMP JUMPDEST PUSH2 0x1AC JUMP JUMPDEST STOP JUMPDEST CALLVALUE DUP1 ISZERO PUSH2 0xB1 JUMPI PUSH0 PUSH0 REVERT JUMPDEST POP PUSH2 0xBA PUSH2 0x477 JUMP JUMPDEST PUSH1 0x40 MLOAD PUSH2 0xC7 SWAP2 SWAP1 PUSH2 0x8ED JUMP JUMPDEST PUSH1 0x40 MLOAD DUP1 SWAP2 SUB SWAP1 RETURN JUMPDEST CALLVALUE DUP1 ISZERO PUSH2 0xDB JUMPI PUSH0 PUSH0 REVERT JUMPDEST POP PUSH2 0xE4 PUSH2 0x47E JUMP JUMPDEST PUSH1 0x40 MLOAD PUSH2 0xF1 SWAP2 SWAP1 PUSH2 0x915 JUMP JUMPDEST PUSH1 0x40 MLOAD DUP1 SWAP2 SUB SWAP1 RETURN JUMPDEST CALLVALUE DUP1 ISZERO PUSH2 0x105 JUMPI PUSH0 PUSH0 REVERT JUMPDEST POP PUSH2 0x10E PUSH2 0x4DD JUMP JUMPDEST PUSH1 0x40 MLOAD PUSH2 0x11B SWAP2 SWAP1 PUSH2 0x94C JUMP JUMPDEST PUSH1 0x40 MLOAD DUP1 SWAP2 SUB SWAP1 RETURN JUMPDEST CALLVALUE DUP1 ISZERO PUSH2 0x12F JUMPI PUSH0 PUSH0 REVERT JUMPDEST POP PUSH2 0x138 PUSH2 0x4F2 JUMP JUMPDEST PUSH1 0x40 MLOAD PUSH2 0x145 SWAP2 SWAP1 PUSH2 0x94C JUMP JUMPDEST PUSH1 0x40 MLOAD DUP1 SWAP2 SUB SWAP1 RETURN JUMPDEST PUSH2 0x156 PUSH2 0x506 JUMP JUMPDEST STOP JUMPDEST CALLVALUE DUP1 ISZERO PUSH2 0x163 JUMPI PUSH0 PUSH0 REVERT JUMPDEST POP PUSH2 0x16C PUSH2 0x6CA JUMP JUMPDEST PUSH1 0x40 MLOAD PUSH2 0x179 SWAP2 SWAP1 PUSH2 0x915 JUMP JUMPDEST PUSH1 0x40 MLOAD DUP1 SWAP2 SUB SWAP1 RETURN JUMPDEST CALLVALUE DUP1 ISZERO PUSH2 0x18D JUMPI PUSH0 PUSH0 REVERT JUMPDEST POP PUSH2 0x196 PUSH2 0x6EE JUMP JUMPDEST PUSH1 0x40 MLOAD PUSH2 0x1A3 SWAP2 SWAP1 PUSH2 0x915 JUMP JUMPDEST PUSH1 0x40 MLOAD DUP1 SWAP2 SUB SWAP1 RETURN JUMPDEST DUP1 PUSH32 0x0 PUSH16 0xFFFFFFFFFFFFFFFFFFFFFFFFFFFFFFFF AND DUP2 PUSH16 0xFFFFFFFFFFFFFFFFFFFFFFFFFFFFFFFF AND GT ISZERO PUSH2 0x258 JUMPI DUP1 PUSH32 0x0 PUSH1 0x40 MLOAD PUSH32 0xD272831700000000000000000000000000000000000000000000000000000000 DUP2 MSTORE PUSH1 0x4 ADD PUSH2 0x24F SWAP3 SWAP2 SWAP1 PUSH2 0x965 JUMP JUMPDEST PUSH1 0x40 MLOAD DUP1 SWAP2 SUB SWAP1 REVERT JUMPDEST DUP2 PUSH1 0x1 PUSH0 CALLER PUSH20 0xFFFFFFFFFFFFFFFFFFFFFFFFFFFFFFFFFFFFFFFF AND PUSH20 0xFFFFFFFFFFFFFFFFFFFFFFFFFFFFFFFFFFFFFFFF AND DUP2 MSTORE PUSH1 0x20 ADD SWAP1 DUP2 MSTORE PUSH1 0x20 ADD PUSH0 KECCAK256 PUSH0 SWAP1 SLOAD SWAP1 PUSH2 0x100 EXP SWAP1 DIV PUSH16 0xFFFFFFFFFFFFFFFFFFFFFFFFFFFFFFFF AND PUSH16 0xFFFFFFFFFFFFFFFFFFFFFFFFFFFFFFFF AND DUP2 PUSH16 0xFFFFFFFFFFFFFFFFFFFFFFFFFFFFFFFF AND GT ISZERO PUSH2 0x374 JUMPI DUP1 PUSH1 0x1 PUSH0 CALLER PUSH20 0xFFFFFFFFFFFFFFFFFFFFFFFFFFFFFFFFFFFFFFFF AND PUSH20 0xFFFFFFFFFFFFFFFFFFFFFFFFFFFFFFFFFFFFFFFF AND DUP2 MSTORE PUSH1 0x20 ADD SWAP1 DUP2 MSTORE PUSH1 0x20 ADD PUSH0 KECCAK256 PUSH0 SWAP1 SLOAD SWAP1 PUSH2 0x100 EXP SWAP1 DIV PUSH16 0xFFFFFFFFFFFFFFFFFFFFFFFFFFFFFFFF AND PUSH1 0x40 MLOAD PUSH32 0xB61CAEEA00000000000000000000000000000000000000000000000000000000 DUP2 MSTORE PUSH1 0x4 ADD PUSH2 0x36B SWAP3 SWAP2 SWAP1 PUSH2 0x965 JUMP JUMPDEST PUSH1 0x40 MLOAD DUP1 SWAP2 SUB SWAP1 REVERT JUMPDEST DUP3 PUSH1 0x1 PUSH0 CALLER PUSH20 0xFFFFFFFFFFFFFFFFFFFFFFFFFFFFFFFFFFFFFFFF AND PUSH20 0xFFFFFFFFFFFFFFFFFFFFFFFFFFFFFFFFFFFFFFFF AND DUP2 MSTORE PUSH1 0x20 ADD SWAP1 DUP2 MSTORE PUSH1 0x20 ADD PUSH0 KECCAK256 PUSH0 DUP3 DUP3 DUP3 SWAP1 SLOAD SWAP1 PUSH2 0x100 EXP SWAP1 DIV PUSH16 0xFFFFFFFFFFFFFFFFFFFFFFFFFFFFFFFF AND PUSH2 0x3DB SWAP2 SWAP1 PUSH2 0x9B9 JUMP JUMPDEST SWAP3 POP PUSH2 0x100 EXP DUP2 SLOAD DUP2 PUSH16 0xFFFFFFFFFFFFFFFFFFFFFFFFFFFFFFFF MUL NOT AND SWAP1 DUP4 PUSH16 0xFFFFFFFFFFFFFFFFFFFFFFFFFFFFFFFF AND MUL OR SWAP1 SSTORE POP PUSH2 0x41A PUSH0 PUSH2 0x712 JUMP JUMPDEST PUSH2 0x424 CALLER DUP5 PUSH2 0x79E JUMP JUMPDEST CALLER PUSH20 0xFFFFFFFFFFFFFFFFFFFFFFFFFFFFFFFFFFFFFFFF AND PUSH32 0xAB48B3D59A240196DC5BDD7F7A638FCA310F8194C7D350C3DD7765861311DDF8 DUP5 PUSH1 0x40 MLOAD PUSH2 0x46A SWAP2 SWAP1 PUSH2 0x915 JUMP JUMPDEST PUSH1 0x40 MLOAD DUP1 SWAP2 SUB SWAP1 LOG2 POP POP POP JUMP JUMPDEST PUSH0 SELFBALANCE SWAP1 POP SWAP1 JUMP JUMPDEST PUSH0 PUSH1 0x1 PUSH0 CALLER PUSH20 0xFFFFFFFFFFFFFFFFFFFFFFFFFFFFFFFFFFFFFFFF AND PUSH20 0xFFFFFFFFFFFFFFFFFFFFFFFFFFFFFFFFFFFFFFFF AND DUP2 MSTORE PUSH1 0x20 ADD SWAP1 DUP2 MSTORE PUSH1 0x20 ADD PUSH0 KECCAK256 PUSH0 SWAP1 SLOAD SWAP1 PUSH2 0x100 EXP SWAP1 DIV PUSH16 0xFFFFFFFFFFFFFFFFFFFFFFFFFFFFFFFF AND SWAP1 POP SWAP1 JUMP JUMPDEST PUSH0 PUSH1 0x4 SWAP1 SLOAD SWAP1 PUSH2 0x100 EXP SWAP1 DIV PUSH4 0xFFFFFFFF AND DUP2 JUMP JUMPDEST PUSH0 PUSH0 SWAP1 SLOAD SWAP1 PUSH2 0x100 EXP SWAP1 DIV PUSH4 0xFFFFFFFF AND DUP2 JUMP JUMPDEST CALLVALUE PUSH0 SELFBALANCE SWAP1 POP PUSH32 0x0 PUSH16 0xFFFFFFFFFFFFFFFFFFFFFFFFFFFFFFFF AND DUP3 DUP3 PUSH2 0x54A SWAP2 SWAP1 PUSH2 0x9FC JUMP JUMPDEST PUSH16 0xFFFFFFFFFFFFFFFFFFFFFFFFFFFFFFFF AND GT ISZERO PUSH2 0x5CC JUMPI DUP2 DUP2 PUSH2 0x56E SWAP2 SWAP1 PUSH2 0x9FC JUMP JUMPDEST PUSH32 0x0 PUSH1 0x40 MLOAD PUSH32 0xBC42F84600000000000000000000000000000000000000000000000000000000 DUP2 MSTORE PUSH1 0x4 ADD PUSH2 0x5C3 SWAP3 SWAP2 SWAP1 PUSH2 0x965 JUMP JUMPDEST PUSH1 0x40 MLOAD DUP1 SWAP2 SUB SWAP1 REVERT JUMPDEST PUSH0 CALLVALUE SWAP1 POP DUP1 PUSH1 0x1 PUSH0 CALLER PUSH20 0xFFFFFFFFFFFFFFFFFFFFFFFFFFFFFFFFFFFFFFFF AND PUSH20 0xFFFFFFFFFFFFFFFFFFFFFFFFFFFFFFFFFFFFFFFF AND DUP2 MSTORE PUSH1 0x20 ADD SWAP1 DUP2 MSTORE PUSH1 0x20 ADD PUSH0 KECCAK256 PUSH0 DUP3 DUP3 DUP3 SWAP1 SLOAD SWAP1 PUSH2 0x100 EXP SWAP1 DIV PUSH16 0xFFFFFFFFFFFFFFFFFFFFFFFFFFFFFFFF AND PUSH2 0x637 SWAP2 SWAP1 PUSH2 0x9FC JUMP JUMPDEST SWAP3 POP PUSH2 0x100 EXP DUP2 SLOAD DUP2 PUSH16 0xFFFFFFFFFFFFFFFFFFFFFFFFFFFFFFFF MUL NOT AND SWAP1 DUP4 PUSH16 0xFFFFFFFFFFFFFFFFFFFFFFFFFFFFFFFF AND MUL OR SWAP1 SSTORE POP PUSH2 0x677 PUSH1 0x1 PUSH2 0x712 JUMP JUMPDEST CALLER PUSH20 0xFFFFFFFFFFFFFFFFFFFFFFFFFFFFFFFFFFFFFFFF AND PUSH32 0xADB1A06AEA2CD2FF20EAC971640A5EB7D687DF3E3A897BE2F334836494958A47 DUP3 PUSH1 0x40 MLOAD PUSH2 0x6BD SWAP2 SWAP1 PUSH2 0x915 JUMP JUMPDEST PUSH1 0x40 MLOAD DUP1 SWAP2 SUB SWAP1 LOG2 POP POP POP JUMP JUMPDEST PUSH32 0x0 DUP2 JUMP JUMPDEST PUSH32 0x0 DUP2 JUMP JUMPDEST DUP1 ISZERO PUSH2 0x75B JUMPI PUSH1 0x1 PUSH0 PUSH0 DUP3 DUP3 DUP3 SWAP1 SLOAD SWAP1 PUSH2 0x100 EXP SWAP1 DIV PUSH4 0xFFFFFFFF AND PUSH2 0x738 SWAP2 SWAP1 PUSH2 0xA3F JUMP JUMPDEST SWAP3 POP PUSH2 0x100 EXP DUP2 SLOAD DUP2 PUSH4 0xFFFFFFFF MUL NOT AND SWAP1 DUP4 PUSH4 0xFFFFFFFF AND MUL OR SWAP1 SSTORE POP PUSH2 0x79B JUMP JUMPDEST PUSH1 0x1 PUSH0 PUSH1 0x4 DUP3 DUP3 DUP3 SWAP1 SLOAD SWAP1 PUSH2 0x100 EXP SWAP1 DIV PUSH4 0xFFFFFFFF AND PUSH2 0x77C SWAP2 SWAP1 PUSH2 0xA3F JUMP JUMPDEST SWAP3 POP PUSH2 0x100 EXP DUP2 SLOAD DUP2 PUSH4 0xFFFFFFFF MUL NOT AND SWAP1 DUP4 PUSH4 0xFFFFFFFF AND MUL OR SWAP1 SSTORE POP JUMPDEST POP JUMP JUMPDEST PUSH0 DUP3 PUSH20 0xFFFFFFFFFFFFFFFFFFFFFFFFFFFFFFFFFFFFFFFF AND DUP3 PUSH16 0xFFFFFFFFFFFFFFFFFFFFFFFFFFFFFFFF AND PUSH1 0x40 MLOAD PUSH2 0x7D5 SWAP1 PUSH2 0xAA3 JUMP JUMPDEST PUSH0 PUSH1 0x40 MLOAD DUP1 DUP4 SUB DUP2 DUP6 DUP8 GAS CALL SWAP3 POP POP POP RETURNDATASIZE DUP1 PUSH0 DUP2 EQ PUSH2 0x80F JUMPI PUSH1 0x40 MLOAD SWAP2 POP PUSH1 0x1F NOT PUSH1 0x3F RETURNDATASIZE ADD AND DUP3 ADD PUSH1 0x40 MSTORE RETURNDATASIZE DUP3 MSTORE RETURNDATASIZE PUSH0 PUSH1 0x20 DUP5 ADD RETURNDATACOPY PUSH2 0x814 JUMP JUMPDEST PUSH1 0x60 SWAP2 POP JUMPDEST POP POP SWAP1 POP DUP1 PUSH2 0x85C JUMPI DUP3 DUP3 PUSH1 0x40 MLOAD PUSH32 0x947FBA8B00000000000000000000000000000000000000000000000000000000 DUP2 MSTORE PUSH1 0x4 ADD PUSH2 0x853 SWAP3 SWAP2 SWAP1 PUSH2 0xAF6 JUMP JUMPDEST PUSH1 0x40 MLOAD DUP1 SWAP2 SUB SWAP1 REVERT JUMPDEST POP POP POP JUMP JUMPDEST PUSH0 PUSH0 REVERT JUMPDEST PUSH0 PUSH16 0xFFFFFFFFFFFFFFFFFFFFFFFFFFFFFFFF DUP3 AND SWAP1 POP SWAP2 SWAP1 POP JUMP JUMPDEST PUSH2 0x889 DUP2 PUSH2 0x865 JUMP JUMPDEST DUP2 EQ PUSH2 0x893 JUMPI PUSH0 PUSH0 REVERT JUMPDEST POP JUMP JUMPDEST PUSH0 DUP2 CALLDATALOAD SWAP1 POP PUSH2 0x8A4 DUP2 PUSH2 0x880 JUMP JUMPDEST SWAP3 SWAP2 POP POP JUMP JUMPDEST PUSH0 PUSH1 0x20 DUP3 DUP5 SUB SLT ISZERO PUSH2 0x8BF JUMPI PUSH2 0x8BE PUSH2 0x861 JUMP JUMPDEST JUMPDEST PUSH0 PUSH2 0x8CC DUP5 DUP3 DUP6 ADD PUSH2 0x896 JUMP JUMPDEST SWAP2 POP POP SWAP3 SWAP2 POP POP JUMP JUMPDEST PUSH0 DUP2 SWAP1 POP SWAP2 SWAP1 POP JUMP JUMPDEST PUSH2 0x8E7 DUP2 PUSH2 0x8D5 JUMP JUMPDEST DUP3 MSTORE POP POP JUMP JUMPDEST PUSH0 PUSH1 0x20 DUP3 ADD SWAP1 POP PUSH2 0x900 PUSH0 DUP4 ADD DUP5 PUSH2 0x8DE JUMP JUMPDEST SWAP3 SWAP2 POP POP JUMP JUMPDEST PUSH2 0x90F DUP2 PUSH2 0x865 JUMP JUMPDEST DUP3 MSTORE POP POP JUMP JUMPDEST PUSH0 PUSH1 0x20 DUP3 ADD SWAP1 POP PUSH2 0x928 PUSH0 DUP4 ADD DUP5 PUSH2 0x906 JUMP JUMPDEST SWAP3 SWAP2 POP POP JUMP JUMPDEST PUSH0 PUSH4 0xFFFFFFFF DUP3 AND SWAP1 POP SWAP2 SWAP1 POP JUMP JUMPDEST PUSH2 0x946 DUP2 PUSH2 0x92E JUMP JUMPDEST DUP3 MSTORE POP POP JUMP JUMPDEST PUSH0 PUSH1 0x20 DUP3 ADD SWAP1 POP PUSH2 0x95F PUSH0 DUP4 ADD DUP5 PUSH2 0x93D JUMP JUMPDEST SWAP3 SWAP2 POP POP JUMP JUMPDEST PUSH0 PUSH1 0x40 DUP3 ADD SWAP1 POP PUSH2 0x978 PUSH0 DUP4 ADD DUP6 PUSH2 0x906 JUMP JUMPDEST PUSH2 0x985 PUSH1 0x20 DUP4 ADD DUP5 PUSH2 0x906 JUMP JUMPDEST SWAP4 SWAP3 POP POP POP JUMP JUMPDEST PUSH32 0x4E487B7100000000000000000000000000000000000000000000000000000000 PUSH0 MSTORE PUSH1 0x11 PUSH1 0x4 MSTORE PUSH1 0x24 PUSH0 REVERT JUMPDEST PUSH0 PUSH2 0x9C3 DUP3 PUSH2 0x865 JUMP JUMPDEST SWAP2 POP PUSH2 0x9CE DUP4 PUSH2 0x865 JUMP JUMPDEST SWAP3 POP DUP3 DUP3 SUB SWAP1 POP PUSH16 0xFFFFFFFFFFFFFFFFFFFFFFFFFFFFFFFF DUP2 GT ISZERO PUSH2 0x9F6 JUMPI PUSH2 0x9F5 PUSH2 0x98C JUMP JUMPDEST JUMPDEST SWAP3 SWAP2 POP POP JUMP JUMPDEST PUSH0 PUSH2 0xA06 DUP3 PUSH2 0x865 JUMP JUMPDEST SWAP2 POP PUSH2 0xA11 DUP4 PUSH2 0x865 JUMP JUMPDEST SWAP3 POP DUP3 DUP3 ADD SWAP1 POP PUSH16 0xFFFFFFFFFFFFFFFFFFFFFFFFFFFFFFFF DUP2 GT ISZERO PUSH2 0xA39 JUMPI PUSH2 0xA38 PUSH2 0x98C JUMP JUMPDEST JUMPDEST SWAP3 SWAP2 POP POP JUMP JUMPDEST PUSH0 PUSH2 0xA49 DUP3 PUSH2 0x92E JUMP JUMPDEST SWAP2 POP PUSH2 0xA54 DUP4 PUSH2 0x92E JUMP JUMPDEST SWAP3 POP DUP3 DUP3 ADD SWAP1 POP PUSH4 0xFFFFFFFF DUP2 GT ISZERO PUSH2 0xA70 JUMPI PUSH2 0xA6F PUSH2 0x98C JUMP JUMPDEST JUMPDEST SWAP3 SWAP2 POP POP JUMP JUMPDEST PUSH0 DUP2 SWAP1 POP SWAP3 SWAP2 POP POP JUMP JUMPDEST POP JUMP JUMPDEST PUSH0 PUSH2 0xA8E PUSH0 DUP4 PUSH2 0xA76 JUMP JUMPDEST SWAP2 POP PUSH2 0xA99 DUP3 PUSH2 0xA80 JUMP JUMPDEST PUSH0 DUP3 ADD SWAP1 POP SWAP2 SWAP1 POP JUMP JUMPDEST PUSH0 PUSH2 0xAAD DUP3 PUSH2 0xA83 JUMP JUMPDEST SWAP2 POP DUP2 SWAP1 POP SWAP2 SWAP1 POP JUMP JUMPDEST PUSH0 PUSH20 0xFFFFFFFFFFFFFFFFFFFFFFFFFFFFFFFFFFFFFFFF DUP3 AND SWAP1 POP SWAP2 SWAP1 POP JUMP JUMPDEST PUSH0 PUSH2 0xAE0 DUP3 PUSH2 0xAB7 JUMP JUMPDEST SWAP1 POP SWAP2 SWAP1 POP JUMP JUMPDEST PUSH2 0xAF0 DUP2 PUSH2 0xAD6 JUMP JUMPDEST DUP3 MSTORE POP POP JUMP JUMPDEST PUSH0 PUSH1 0x40 DUP3 ADD SWAP1 POP PUSH2 0xB09 PUSH0 DUP4 ADD DUP6 PUSH2 0xAE7 JUMP JUMPDEST PUSH2 0xB16 PUSH1 0x20 DUP4 ADD DUP5 PUSH2 0x906 JUMP JUMPDEST SWAP4 SWAP3 POP POP POP JUMP INVALID LOG2 PUSH5 0x6970667358 0x22 SLT KECCAK256 CALLF 0xE2D5 SWAP10 0xBF DIV CREATE LT DIV PUSH16 0x315C71F110C0D4045F7461A5F8DA599F PUSH16 0xD94EDD048E64736F6C634300081E0033 "
		},
		"gasEstimates": {
			"creation": {
				"codeDepositCost": "579800",
				"executionCost": "infinite",
				"totalCost": "infinite"
			},
			"external": {
				"bankCap()": "infinite",
				"deposit()": "infinite",
				"getMyBalance()": "2605",
				"getTotalBalance()": "357",
				"totalDeposits()": "2465",
				"totalWithdrawals()": "2583",
				"withdraw(uint128)": "infinite",
				"withdrawLimit()": "infinite"
			},
			"internal": {
				"_safeTransfer(address,uint128)": "infinite",
				"_updateCounters(bool)": "infinite"
			}
		},
		"methodIdentifiers": {
			"bankCap()": "ecbea24d",
			"deposit()": "d0e30db0",
			"getMyBalance()": "4c738909",
			"getTotalBalance()": "12b58349",
			"totalDeposits()": "7d882097",
			"totalWithdrawals()": "60464627",
			"withdraw(uint128)": "02387a7b",
			"withdrawLimit()": "f848d541"
		}
	},
	"abi": [
		{
			"inputs": [
				{
					"internalType": "uint128",
					"name": "_bankCap",
					"type": "uint128"
				},
				{
					"internalType": "uint128",
					"name": "_withdrawLimit",
					"type": "uint128"
				}
			],
			"stateMutability": "nonpayable",
			"type": "constructor"
		},
		{
			"inputs": [
				{
					"internalType": "uint128",
					"name": "attempted",
					"type": "uint128"
				},
				{
					"internalType": "uint128",
					"name": "cap",
					"type": "uint128"
				}
			],
			"name": "ExceedsBankCap",
			"type": "error"
		},
		{
			"inputs": [
				{
					"internalType": "uint128",
					"name": "attempted",
					"type": "uint128"
				},
				{
					"internalType": "uint128",
					"name": "limit",
					"type": "uint128"
				}
			],
			"name": "ExceedsWithdrawLimit",
			"type": "error"
		},
		{
			"inputs": [
				{
					"internalType": "uint128",
					"name": "requested",
					"type": "uint128"
				},
				{
					"internalType": "uint128",
					"name": "available",
					"type": "uint128"
				}
			],
			"name": "InsufficientBalance",
			"type": "error"
		},
		{
			"inputs": [
				{
					"internalType": "address",
					"name": "to",
					"type": "address"
				},
				{
					"internalType": "uint128",
					"name": "amount",
					"type": "uint128"
				}
			],
			"name": "TransferFailed",
			"type": "error"
		},
		{
			"anonymous": false,
			"inputs": [
				{
					"indexed": true,
					"internalType": "address",
					"name": "user",
					"type": "address"
				},
				{
					"indexed": false,
					"internalType": "uint128",
					"name": "amount",
					"type": "uint128"
				}
			],
			"name": "Deposited",
			"type": "event"
		},
		{
			"anonymous": false,
			"inputs": [
				{
					"indexed": true,
					"internalType": "address",
					"name": "user",
					"type": "address"
				},
				{
					"indexed": false,
					"internalType": "uint128",
					"name": "amount",
					"type": "uint128"
				}
			],
			"name": "Withdrawn",
			"type": "event"
		},
		{
			"inputs": [],
			"name": "bankCap",
			"outputs": [
				{
					"internalType": "uint128",
					"name": "",
					"type": "uint128"
				}
			],
			"stateMutability": "view",
			"type": "function"
		},
		{
			"inputs": [],
			"name": "deposit",
			"outputs": [],
			"stateMutability": "payable",
			"type": "function"
		},
		{
			"inputs": [],
			"name": "getMyBalance",
			"outputs": [
				{
					"internalType": "uint128",
					"name": "balance",
					"type": "uint128"
				}
			],
			"stateMutability": "view",
			"type": "function"
		},
		{
			"inputs": [],
			"name": "getTotalBalance",
			"outputs": [
				{
					"internalType": "uint256",
					"name": "totalBalance",
					"type": "uint256"
				}
			],
			"stateMutability": "view",
			"type": "function"
		},
		{
			"inputs": [],
			"name": "totalDeposits",
			"outputs": [
				{
					"internalType": "uint32",
					"name": "",
					"type": "uint32"
				}
			],
			"stateMutability": "view",
			"type": "function"
		},
		{
			"inputs": [],
			"name": "totalWithdrawals",
			"outputs": [
				{
					"internalType": "uint32",
					"name": "",
					"type": "uint32"
				}
			],
			"stateMutability": "view",
			"type": "function"
		},
		{
			"inputs": [
				{
					"internalType": "uint128",
					"name": "amount",
					"type": "uint128"
				}
			],
			"name": "withdraw",
			"outputs": [],
			"stateMutability": "nonpayable",
			"type": "function"
		},
		{
			"inputs": [],
			"name": "withdrawLimit",
			"outputs": [
				{
					"internalType": "uint128",
					"name": "",
					"type": "uint128"
				}
			],
			"stateMutability": "view",
			"type": "function"
		}
	]
}